{
	"contracts/ha4-vaccine.sol": {
		"CredentialBox": {
			"abi": [
				{
					"inputs": [],
					"stateMutability": "nonpayable",
					"type": "constructor"
				},
				{
					"anonymous": false,
					"inputs": [
						{
							"indexed": true,
							"internalType": "address",
							"name": "_issuer",
							"type": "address"
						}
					],
					"name": "AddIssuer",
					"type": "event"
				},
				{
					"anonymous": false,
					"inputs": [
						{
							"indexed": true,
							"internalType": "address",
							"name": "_issuer",
							"type": "address"
						}
					],
					"name": "DelIssuer",
					"type": "event"
				},
				{
					"anonymous": false,
					"inputs": [
						{
							"indexed": true,
							"internalType": "address",
							"name": "_from",
							"type": "address"
						},
						{
							"indexed": true,
							"internalType": "address",
							"name": "_to",
							"type": "address"
						}
					],
					"name": "OwnerTransferPropose",
					"type": "event"
				},
				{
					"inputs": [
						{
							"internalType": "address",
							"name": "_addr",
							"type": "address"
						}
					],
					"name": "addIssuer",
					"outputs": [
						{
							"internalType": "bool",
							"name": "",
							"type": "bool"
						}
					],
					"stateMutability": "nonpayable",
					"type": "function"
				},
				{
					"inputs": [
						{
							"internalType": "string",
							"name": "_vaccineType",
							"type": "string"
						}
					],
					"name": "addVaccineType",
					"outputs": [
						{
							"internalType": "bool",
							"name": "",
							"type": "bool"
						}
					],
					"stateMutability": "nonpayable",
					"type": "function"
				},
				{
					"inputs": [
						{
							"internalType": "address",
							"name": "_vaccinatedAddress",
							"type": "address"
						},
						{
							"internalType": "uint8",
							"name": "_vaccineNum",
							"type": "uint8"
						},
						{
							"internalType": "uint8",
							"name": "_vaccineType",
							"type": "uint8"
						},
						{
							"internalType": "string",
							"name": "_value",
							"type": "string"
						}
					],
					"name": "claimCredential",
					"outputs": [
						{
							"internalType": "bool",
							"name": "",
							"type": "bool"
						}
					],
					"stateMutability": "nonpayable",
					"type": "function"
				},
				{
					"inputs": [
						{
							"internalType": "address",
							"name": "_addr",
							"type": "address"
						}
					],
					"name": "delIssuer",
					"outputs": [
						{
							"internalType": "bool",
							"name": "",
							"type": "bool"
						}
					],
					"stateMutability": "nonpayable",
					"type": "function"
				},
				{
					"inputs": [
						{
							"internalType": "address",
							"name": "_vaccinatedAddress",
							"type": "address"
						},
						{
							"internalType": "uint8",
							"name": "_vaccineNum",
							"type": "uint8"
						}
					],
					"name": "getCredential",
					"outputs": [
						{
							"components": [
								{
									"internalType": "address",
									"name": "vaccineIssuers",
									"type": "address"
								},
								{
									"internalType": "string",
									"name": "vaccineType",
									"type": "string"
								},
								{
									"internalType": "uint8",
									"name": "vaccineNum",
									"type": "uint8"
								},
								{
									"internalType": "uint256",
									"name": "vaccineInfo",
									"type": "uint256"
								}
							],
							"internalType": "struct CredentialBox.Presentation",
							"name": "",
							"type": "tuple"
						}
					],
					"stateMutability": "view",
					"type": "function"
				},
				{
					"inputs": [
						{
							"internalType": "uint8",
							"name": "_vaccineType",
							"type": "uint8"
						}
					],
					"name": "getVaccineType",
					"outputs": [
						{
							"internalType": "string",
							"name": "",
							"type": "string"
						}
					],
					"stateMutability": "view",
					"type": "function"
				},
				{
					"inputs": [
						{
							"internalType": "address",
							"name": "_addr",
							"type": "address"
						}
					],
					"name": "isIssuer",
					"outputs": [
						{
							"internalType": "bool",
							"name": "",
							"type": "bool"
						}
					],
					"stateMutability": "view",
					"type": "function"
				},
				{
					"inputs": [
						{
							"internalType": "address",
							"name": "",
							"type": "address"
						}
					],
					"name": "issuers",
					"outputs": [
						{
							"internalType": "bool",
							"name": "",
							"type": "bool"
						}
					],
					"stateMutability": "view",
					"type": "function"
				},
				{
					"inputs": [
						{
							"internalType": "address",
							"name": "_to",
							"type": "address"
						}
					],
					"name": "transferOwnership",
					"outputs": [],
					"stateMutability": "nonpayable",
					"type": "function"
				},
				{
					"inputs": [
						{
							"internalType": "address",
							"name": "_vaccinatedAddress",
							"type": "address"
						},
						{
							"internalType": "uint8",
							"name": "_vaccineNum",
							"type": "uint8"
						},
						{
							"internalType": "uint8",
							"name": "_vaccineType",
							"type": "uint8"
						}
					],
					"name": "updateVaccinationState",
					"outputs": [
						{
							"internalType": "bool",
							"name": "",
							"type": "bool"
						}
					],
					"stateMutability": "nonpayable",
					"type": "function"
				}
			],
			"devdoc": {
				"kind": "dev",
				"methods": {},
				"version": 1
			},
			"evm": {
				"assembly": "    /* \"contracts/ha4-vaccine.sol\":1423:4908  contract CredentialBox is IssuerHelper{\r... */\n  mstore(0x40, 0x80)\n    /* \"contracts/ha4-vaccine.sol\":2042:2262  constructor() {\r... */\n  callvalue\n  dup1\n  iszero\n  tag_1\n  jumpi\n  0x00\n  dup1\n  revert\ntag_1:\n  pop\n    /* \"contracts/ha4-vaccine.sol\":293:303  msg.sender */\n  caller\n    /* \"contracts/ha4-vaccine.sol\":285:290  owner */\n  0x00\n  dup1\n    /* \"contracts/ha4-vaccine.sol\":285:303  owner = msg.sender */\n  0x0100\n  exp\n  dup2\n  sload\n  dup2\n  0xffffffffffffffffffffffffffffffffffffffff\n  mul\n  not\n  and\n  swap1\n  dup4\n  0xffffffffffffffffffffffffffffffffffffffff\n  and\n  mul\n  or\n  swap1\n  sstore\n  pop\n    /* \"contracts/ha4-vaccine.sol\":874:878  true */\n  0x01\n    /* \"contracts/ha4-vaccine.sol\":852:859  issuers */\n  dup1\n    /* \"contracts/ha4-vaccine.sol\":852:871  issuers[msg.sender] */\n  0x00\n    /* \"contracts/ha4-vaccine.sol\":860:870  msg.sender */\n  caller\n    /* \"contracts/ha4-vaccine.sol\":852:871  issuers[msg.sender] */\n  0xffffffffffffffffffffffffffffffffffffffff\n  and\n  0xffffffffffffffffffffffffffffffffffffffff\n  and\n  dup2\n  mstore\n  0x20\n  add\n  swap1\n  dup2\n  mstore\n  0x20\n  add\n  0x00\n  keccak256\n  0x00\n    /* \"contracts/ha4-vaccine.sol\":852:878  issuers[msg.sender] = true */\n  0x0100\n  exp\n  dup2\n  sload\n  dup2\n  0xff\n  mul\n  not\n  and\n  swap1\n  dup4\n  iszero\n  iszero\n  mul\n  or\n  swap1\n  sstore\n  pop\n    /* \"contracts/ha4-vaccine.sol\":2077:2078  1 */\n  0x01\n    /* \"contracts/ha4-vaccine.sol\":2067:2074  idCount */\n  0x02\n  0x00\n    /* \"contracts/ha4-vaccine.sol\":2067:2078  idCount = 1 */\n  0x0100\n  exp\n  dup2\n  sload\n  dup2\n  0xff\n  mul\n  not\n  and\n  swap1\n  dup4\n  0xff\n  and\n  mul\n  or\n  swap1\n  sstore\n  pop\n    /* \"contracts/ha4-vaccine.sol\":2089:2115  vaccineEnum[0] = \"Moderna\" */\n  mload(0x40)\n  dup1\n  0x40\n  add\n  0x40\n  mstore\n  dup1\n  0x07\n  dup2\n  mstore\n  0x20\n  add\n  0x4d6f6465726e6100000000000000000000000000000000000000000000000000\n  dup2\n  mstore\n  pop\n    /* \"contracts/ha4-vaccine.sol\":2089:2100  vaccineEnum */\n  0x03\n    /* \"contracts/ha4-vaccine.sol\":2089:2103  vaccineEnum[0] */\n  0x00\n    /* \"contracts/ha4-vaccine.sol\":2101:2102  0 */\n  dup1\n    /* \"contracts/ha4-vaccine.sol\":2089:2103  vaccineEnum[0] */\n  0xff\n  and\n  dup2\n  mstore\n  0x20\n  add\n  swap1\n  dup2\n  mstore\n  0x20\n  add\n  0x00\n  keccak256\n    /* \"contracts/ha4-vaccine.sol\":2089:2115  vaccineEnum[0] = \"Moderna\" */\n  swap1\n  dup1\n  mload\n  swap1\n  0x20\n  add\n  swap1\n  tag_8\n  swap3\n  swap2\n  swap1\n  tag_9\n  jump\t// in\ntag_8:\n  pop\n    /* \"contracts/ha4-vaccine.sol\":2126:2151  vaccineEnum[1] = \"Pfizer\" */\n  mload(0x40)\n  dup1\n  0x40\n  add\n  0x40\n  mstore\n  dup1\n  0x06\n  dup2\n  mstore\n  0x20\n  add\n  0x5066697a65720000000000000000000000000000000000000000000000000000\n  dup2\n  mstore\n  pop\n    /* \"contracts/ha4-vaccine.sol\":2126:2137  vaccineEnum */\n  0x03\n    /* \"contracts/ha4-vaccine.sol\":2126:2140  vaccineEnum[1] */\n  0x00\n    /* \"contracts/ha4-vaccine.sol\":2138:2139  1 */\n  0x01\n    /* \"contracts/ha4-vaccine.sol\":2126:2140  vaccineEnum[1] */\n  0xff\n  and\n  dup2\n  mstore\n  0x20\n  add\n  swap1\n  dup2\n  mstore\n  0x20\n  add\n  0x00\n  keccak256\n    /* \"contracts/ha4-vaccine.sol\":2126:2151  vaccineEnum[1] = \"Pfizer\" */\n  swap1\n  dup1\n  mload\n  swap1\n  0x20\n  add\n  swap1\n  tag_10\n  swap3\n  swap2\n  swap1\n  tag_9\n  jump\t// in\ntag_10:\n  pop\n    /* \"contracts/ha4-vaccine.sol\":2162:2188  vaccineEnum[2] = \"Janssen\" */\n  mload(0x40)\n  dup1\n  0x40\n  add\n  0x40\n  mstore\n  dup1\n  0x07\n  dup2\n  mstore\n  0x20\n  add\n  0x4a616e7373656e00000000000000000000000000000000000000000000000000\n  dup2\n  mstore\n  pop\n    /* \"contracts/ha4-vaccine.sol\":2162:2173  vaccineEnum */\n  0x03\n    /* \"contracts/ha4-vaccine.sol\":2162:2176  vaccineEnum[2] */\n  0x00\n    /* \"contracts/ha4-vaccine.sol\":2174:2175  2 */\n  0x02\n    /* \"contracts/ha4-vaccine.sol\":2162:2176  vaccineEnum[2] */\n  0xff\n  and\n  dup2\n  mstore\n  0x20\n  add\n  swap1\n  dup2\n  mstore\n  0x20\n  add\n  0x00\n  keccak256\n    /* \"contracts/ha4-vaccine.sol\":2162:2188  vaccineEnum[2] = \"Janssen\" */\n  swap1\n  dup1\n  mload\n  swap1\n  0x20\n  add\n  swap1\n  tag_11\n  swap3\n  swap2\n  swap1\n  tag_9\n  jump\t// in\ntag_11:\n  pop\n    /* \"contracts/ha4-vaccine.sol\":2199:2229  vaccineEnum[3] = \"Astrazeneca\" */\n  mload(0x40)\n  dup1\n  0x40\n  add\n  0x40\n  mstore\n  dup1\n  0x0b\n  dup2\n  mstore\n  0x20\n  add\n  0x41737472617a656e656361000000000000000000000000000000000000000000\n  dup2\n  mstore\n  pop\n    /* \"contracts/ha4-vaccine.sol\":2199:2210  vaccineEnum */\n  0x03\n    /* \"contracts/ha4-vaccine.sol\":2199:2213  vaccineEnum[3] */\n  0x00\n    /* \"contracts/ha4-vaccine.sol\":2211:2212  3 */\n  0x03\n    /* \"contracts/ha4-vaccine.sol\":2199:2213  vaccineEnum[3] */\n  0xff\n  and\n  dup2\n  mstore\n  0x20\n  add\n  swap1\n  dup2\n  mstore\n  0x20\n  add\n  0x00\n  keccak256\n    /* \"contracts/ha4-vaccine.sol\":2199:2229  vaccineEnum[3] = \"Astrazeneca\" */\n  swap1\n  dup1\n  mload\n  swap1\n  0x20\n  add\n  swap1\n  tag_12\n  swap3\n  swap2\n  swap1\n  tag_9\n  jump\t// in\ntag_12:\n  pop\n    /* \"contracts/ha4-vaccine.sol\":2253:2254  4 */\n  0x04\n    /* \"contracts/ha4-vaccine.sol\":2240:2250  vaccineLen */\n  dup1\n  0x00\n    /* \"contracts/ha4-vaccine.sol\":2240:2254  vaccineLen = 4 */\n  0x0100\n  exp\n  dup2\n  sload\n  dup2\n  0xff\n  mul\n  not\n  and\n  swap1\n  dup4\n  0xff\n  and\n  mul\n  or\n  swap1\n  sstore\n  pop\n    /* \"contracts/ha4-vaccine.sol\":1423:4908  contract CredentialBox is IssuerHelper{\r... */\n  jump(tag_13)\ntag_9:\n  dup3\n  dup1\n  sload\n  tag_14\n  swap1\n  tag_15\n  jump\t// in\ntag_14:\n  swap1\n  0x00\n  mstore\n  keccak256(0x00, 0x20)\n  swap1\n  0x1f\n  add\n  0x20\n  swap1\n  div\n  dup2\n  add\n  swap3\n  dup3\n  tag_17\n  jumpi\n  0x00\n  dup6\n  sstore\n  jump(tag_16)\ntag_17:\n  dup3\n  0x1f\n  lt\n  tag_18\n  jumpi\n  dup1\n  mload\n  not(0xff)\n  and\n  dup4\n  dup1\n  add\n  or\n  dup6\n  sstore\n  jump(tag_16)\ntag_18:\n  dup3\n  dup1\n  add\n  0x01\n  add\n  dup6\n  sstore\n  dup3\n  iszero\n  tag_16\n  jumpi\n  swap2\n  dup3\n  add\ntag_19:\n  dup3\n  dup2\n  gt\n  iszero\n  tag_20\n  jumpi\n  dup3\n  mload\n  dup3\n  sstore\n  swap2\n  0x20\n  add\n  swap2\n  swap1\n  0x01\n  add\n  swap1\n  jump(tag_19)\ntag_20:\ntag_16:\n  pop\n  swap1\n  pop\n  tag_21\n  swap2\n  swap1\n  tag_22\n  jump\t// in\ntag_21:\n  pop\n  swap1\n  jump\t// out\ntag_22:\ntag_23:\n  dup1\n  dup3\n  gt\n  iszero\n  tag_24\n  jumpi\n  0x00\n  dup2\n  0x00\n  swap1\n  sstore\n  pop\n  0x01\n  add\n  jump(tag_23)\ntag_24:\n  pop\n  swap1\n  jump\t// out\n    /* \"#utility.yul\":7:327   */\ntag_15:\n    /* \"#utility.yul\":51:57   */\n  0x00\n    /* \"#utility.yul\":88:89   */\n  0x02\n    /* \"#utility.yul\":82:86   */\n  dup3\n    /* \"#utility.yul\":78:90   */\n  div\n    /* \"#utility.yul\":68:90   */\n  swap1\n  pop\n    /* \"#utility.yul\":135:136   */\n  0x01\n    /* \"#utility.yul\":129:133   */\n  dup3\n    /* \"#utility.yul\":125:137   */\n  and\n    /* \"#utility.yul\":156:174   */\n  dup1\n    /* \"#utility.yul\":146:227   */\n  tag_27\n  jumpi\n    /* \"#utility.yul\":212:216   */\n  0x7f\n    /* \"#utility.yul\":204:210   */\n  dup3\n    /* \"#utility.yul\":200:217   */\n  and\n    /* \"#utility.yul\":190:217   */\n  swap2\n  pop\n    /* \"#utility.yul\":146:227   */\ntag_27:\n    /* \"#utility.yul\":274:276   */\n  0x20\n    /* \"#utility.yul\":266:272   */\n  dup3\n    /* \"#utility.yul\":263:277   */\n  lt\n    /* \"#utility.yul\":243:261   */\n  dup2\n    /* \"#utility.yul\":240:278   */\n  eq\n    /* \"#utility.yul\":237:321   */\n  iszero\n  tag_28\n  jumpi\n    /* \"#utility.yul\":293:311   */\n  tag_29\n  tag_30\n  jump\t// in\ntag_29:\n    /* \"#utility.yul\":237:321   */\ntag_28:\n    /* \"#utility.yul\":58:327   */\n  pop\n    /* \"#utility.yul\":7:327   */\n  swap2\n  swap1\n  pop\n  jump\t// out\n    /* \"#utility.yul\":333:513   */\ntag_30:\n    /* \"#utility.yul\":381:458   */\n  0x4e487b7100000000000000000000000000000000000000000000000000000000\n    /* \"#utility.yul\":378:379   */\n  0x00\n    /* \"#utility.yul\":371:459   */\n  mstore\n    /* \"#utility.yul\":478:482   */\n  0x22\n    /* \"#utility.yul\":475:476   */\n  0x04\n    /* \"#utility.yul\":468:483   */\n  mstore\n    /* \"#utility.yul\":502:506   */\n  0x24\n    /* \"#utility.yul\":499:500   */\n  0x00\n    /* \"#utility.yul\":492:507   */\n  revert\n    /* \"contracts/ha4-vaccine.sol\":1423:4908  contract CredentialBox is IssuerHelper{\r... */\ntag_13:\n  dataSize(sub_0)\n  dup1\n  dataOffset(sub_0)\n  0x00\n  codecopy\n  0x00\n  return\nstop\n\nsub_0: assembly {\n        /* \"contracts/ha4-vaccine.sol\":1423:4908  contract CredentialBox is IssuerHelper{\r... */\n      mstore(0x40, 0x80)\n      callvalue\n      dup1\n      iszero\n      tag_1\n      jumpi\n      0x00\n      dup1\n      revert\n    tag_1:\n      pop\n      jumpi(tag_2, lt(calldatasize, 0x04))\n      shr(0xe0, calldataload(0x00))\n      dup1\n      0x45695248\n      gt\n      tag_13\n      jumpi\n      dup1\n      0x45695248\n      eq\n      tag_8\n      jumpi\n      dup1\n      0x877b9a67\n      eq\n      tag_9\n      jumpi\n      dup1\n      0x959d0258\n      eq\n      tag_10\n      jumpi\n      dup1\n      0xd1658546\n      eq\n      tag_11\n      jumpi\n      dup1\n      0xf2fde38b\n      eq\n      tag_12\n      jumpi\n      jump(tag_2)\n    tag_13:\n      dup1\n      0x20694db0\n      eq\n      tag_3\n      jumpi\n      dup1\n      0x34becfb4\n      eq\n      tag_4\n      jumpi\n      dup1\n      0x36145996\n      eq\n      tag_5\n      jumpi\n      dup1\n      0x38a7543e\n      eq\n      tag_6\n      jumpi\n      dup1\n      0x3f8a37dc\n      eq\n      tag_7\n      jumpi\n    tag_2:\n      0x00\n      dup1\n      revert\n        /* \"contracts/ha4-vaccine.sol\":1002:1205  function addIssuer(address _addr) public onlyOwner returns (bool) {\r... */\n    tag_3:\n      tag_14\n      0x04\n      dup1\n      calldatasize\n      sub\n      dup2\n      add\n      swap1\n      tag_15\n      swap2\n      swap1\n      tag_16\n      jump\t// in\n    tag_15:\n      tag_17\n      jump\t// in\n    tag_14:\n      mload(0x40)\n      tag_18\n      swap2\n      swap1\n      tag_19\n      jump\t// in\n    tag_18:\n      mload(0x40)\n      dup1\n      swap2\n      sub\n      swap1\n      return\n        /* \"contracts/ha4-vaccine.sol\":1213:1416  function delIssuer(address _addr) public onlyOwner returns (bool) {\r... */\n    tag_4:\n      tag_20\n      0x04\n      dup1\n      calldatasize\n      sub\n      dup2\n      add\n      swap1\n      tag_21\n      swap2\n      swap1\n      tag_16\n      jump\t// in\n    tag_21:\n      tag_22\n      jump\t// in\n    tag_20:\n      mload(0x40)\n      tag_23\n      swap2\n      swap1\n      tag_19\n      jump\t// in\n    tag_23:\n      mload(0x40)\n      dup1\n      swap2\n      sub\n      swap1\n      return\n        /* \"contracts/ha4-vaccine.sol\":2270:2924  function claimCredential(address _vaccinatedAddress, uint8 _vaccineNum, uint8 _vaccineType, string calldata _value) public onlyIssuer returns (bool) {\r... */\n    tag_5:\n      tag_24\n      0x04\n      dup1\n      calldatasize\n      sub\n      dup2\n      add\n      swap1\n      tag_25\n      swap2\n      swap1\n      tag_26\n      jump\t// in\n    tag_25:\n      tag_27\n      jump\t// in\n    tag_24:\n      mload(0x40)\n      tag_28\n      swap2\n      swap1\n      tag_19\n      jump\t// in\n    tag_28:\n      mload(0x40)\n      dup1\n      swap2\n      sub\n      swap1\n      return\n        /* \"contracts/ha4-vaccine.sol\":585:624  mapping(address => bool) public issuers */\n    tag_6:\n      tag_29\n      0x04\n      dup1\n      calldatasize\n      sub\n      dup2\n      add\n      swap1\n      tag_30\n      swap2\n      swap1\n      tag_16\n      jump\t// in\n    tag_30:\n      tag_31\n      jump\t// in\n    tag_29:\n      mload(0x40)\n      tag_32\n      swap2\n      swap1\n      tag_19\n      jump\t// in\n    tag_32:\n      mload(0x40)\n      dup1\n      swap2\n      sub\n      swap1\n      return\n        /* \"contracts/ha4-vaccine.sol\":4060:4265  function getVaccineType(uint8 _vaccineType) public view returns (string memory) {\r... */\n    tag_7:\n      tag_33\n      0x04\n      dup1\n      calldatasize\n      sub\n      dup2\n      add\n      swap1\n      tag_34\n      swap2\n      swap1\n      tag_35\n      jump\t// in\n    tag_34:\n      tag_36\n      jump\t// in\n    tag_33:\n      mload(0x40)\n      tag_37\n      swap2\n      swap1\n      tag_38\n      jump\t// in\n    tag_37:\n      mload(0x40)\n      dup1\n      swap2\n      sub\n      swap1\n      return\n        /* \"contracts/ha4-vaccine.sol\":4273:4905  function updateVaccinationState(address _vaccinatedAddress, uint8 _vaccineNum, uint8 _vaccineType) public onlyIssuer returns (bool) {\r... */\n    tag_8:\n      tag_39\n      0x04\n      dup1\n      calldatasize\n      sub\n      dup2\n      add\n      swap1\n      tag_40\n      swap2\n      swap1\n      tag_41\n      jump\t// in\n    tag_40:\n      tag_42\n      jump\t// in\n    tag_39:\n      mload(0x40)\n      tag_43\n      swap2\n      swap1\n      tag_19\n      jump\t// in\n    tag_43:\n      mload(0x40)\n      dup1\n      swap2\n      sub\n      swap1\n      return\n        /* \"contracts/ha4-vaccine.sol\":894:994  function isIssuer(address _addr) public view returns (bool) {\r... */\n    tag_9:\n      tag_44\n      0x04\n      dup1\n      calldatasize\n      sub\n      dup2\n      add\n      swap1\n      tag_45\n      swap2\n      swap1\n      tag_16\n      jump\t// in\n    tag_45:\n      tag_46\n      jump\t// in\n    tag_44:\n      mload(0x40)\n      tag_47\n      swap2\n      swap1\n      tag_19\n      jump\t// in\n    tag_47:\n      mload(0x40)\n      dup1\n      swap2\n      sub\n      swap1\n      return\n        /* \"contracts/ha4-vaccine.sol\":2932:3680  function getCredential(address _vaccinatedAddress, uint8 _vaccineNum) public view returns (Presentation memory) {\r... */\n    tag_10:\n      tag_48\n      0x04\n      dup1\n      calldatasize\n      sub\n      dup2\n      add\n      swap1\n      tag_49\n      swap2\n      swap1\n      tag_50\n      jump\t// in\n    tag_49:\n      tag_51\n      jump\t// in\n    tag_48:\n      mload(0x40)\n      tag_52\n      swap2\n      swap1\n      tag_53\n      jump\t// in\n    tag_52:\n      mload(0x40)\n      dup1\n      swap2\n      sub\n      swap1\n      return\n        /* \"contracts/ha4-vaccine.sol\":3688:4052  function addVaccineType(string calldata _vaccineType) public onlyIssuer returns (bool) {\r... */\n    tag_11:\n      tag_54\n      0x04\n      dup1\n      calldatasize\n      sub\n      dup2\n      add\n      swap1\n      tag_55\n      swap2\n      swap1\n      tag_56\n      jump\t// in\n    tag_55:\n      tag_57\n      jump\t// in\n    tag_54:\n      mload(0x40)\n      tag_58\n      swap2\n      swap1\n      tag_19\n      jump\t// in\n    tag_58:\n      mload(0x40)\n      dup1\n      swap2\n      sub\n      swap1\n      return\n        /* \"contracts/ha4-vaccine.sol\":319:525  function transferOwnership(address _to) public onlyOwner {\r... */\n    tag_12:\n      tag_59\n      0x04\n      dup1\n      calldatasize\n      sub\n      dup2\n      add\n      swap1\n      tag_60\n      swap2\n      swap1\n      tag_16\n      jump\t// in\n    tag_60:\n      tag_61\n      jump\t// in\n    tag_59:\n      stop\n        /* \"contracts/ha4-vaccine.sol\":1002:1205  function addIssuer(address _addr) public onlyOwner returns (bool) {\r... */\n    tag_17:\n        /* \"contracts/ha4-vaccine.sol\":1062:1066  bool */\n      0x00\n        /* \"contracts/ha4-vaccine.sol\":226:231  owner */\n      dup1\n      0x00\n      swap1\n      sload\n      swap1\n      0x0100\n      exp\n      swap1\n      div\n      0xffffffffffffffffffffffffffffffffffffffff\n      and\n        /* \"contracts/ha4-vaccine.sol\":212:231  msg.sender == owner */\n      0xffffffffffffffffffffffffffffffffffffffff\n      and\n        /* \"contracts/ha4-vaccine.sol\":212:222  msg.sender */\n      caller\n        /* \"contracts/ha4-vaccine.sol\":212:231  msg.sender == owner */\n      0xffffffffffffffffffffffffffffffffffffffff\n      and\n      eq\n        /* \"contracts/ha4-vaccine.sol\":204:232  require(msg.sender == owner) */\n      tag_63\n      jumpi\n      0x00\n      dup1\n      revert\n    tag_63:\n        /* \"contracts/ha4-vaccine.sol\":1105:1110  false */\n      0x00\n        /* \"contracts/ha4-vaccine.sol\":1087:1110  issuers[_addr] == false */\n      iszero\n      iszero\n        /* \"contracts/ha4-vaccine.sol\":1087:1094  issuers */\n      0x01\n        /* \"contracts/ha4-vaccine.sol\":1087:1101  issuers[_addr] */\n      0x00\n        /* \"contracts/ha4-vaccine.sol\":1095:1100  _addr */\n      dup5\n        /* \"contracts/ha4-vaccine.sol\":1087:1101  issuers[_addr] */\n      0xffffffffffffffffffffffffffffffffffffffff\n      and\n      0xffffffffffffffffffffffffffffffffffffffff\n      and\n      dup2\n      mstore\n      0x20\n      add\n      swap1\n      dup2\n      mstore\n      0x20\n      add\n      0x00\n      keccak256\n      0x00\n      swap1\n      sload\n      swap1\n      0x0100\n      exp\n      swap1\n      div\n      0xff\n      and\n        /* \"contracts/ha4-vaccine.sol\":1087:1110  issuers[_addr] == false */\n      iszero\n      iszero\n      eq\n        /* \"contracts/ha4-vaccine.sol\":1079:1111  require(issuers[_addr] == false) */\n      tag_65\n      jumpi\n      0x00\n      dup1\n      revert\n    tag_65:\n        /* \"contracts/ha4-vaccine.sol\":1139:1143  true */\n      0x01\n        /* \"contracts/ha4-vaccine.sol\":1122:1129  issuers */\n      dup1\n        /* \"contracts/ha4-vaccine.sol\":1122:1136  issuers[_addr] */\n      0x00\n        /* \"contracts/ha4-vaccine.sol\":1130:1135  _addr */\n      dup5\n        /* \"contracts/ha4-vaccine.sol\":1122:1136  issuers[_addr] */\n      0xffffffffffffffffffffffffffffffffffffffff\n      and\n      0xffffffffffffffffffffffffffffffffffffffff\n      and\n      dup2\n      mstore\n      0x20\n      add\n      swap1\n      dup2\n      mstore\n      0x20\n      add\n      0x00\n      keccak256\n      0x00\n        /* \"contracts/ha4-vaccine.sol\":1122:1143  issuers[_addr] = true */\n      0x0100\n      exp\n      dup2\n      sload\n      dup2\n      0xff\n      mul\n      not\n      and\n      swap1\n      dup4\n      iszero\n      iszero\n      mul\n      or\n      swap1\n      sstore\n      pop\n        /* \"contracts/ha4-vaccine.sol\":1169:1174  _addr */\n      dup2\n        /* \"contracts/ha4-vaccine.sol\":1159:1175  AddIssuer(_addr) */\n      0xffffffffffffffffffffffffffffffffffffffff\n      and\n      0x27aa0506e4da65b95bd4f61c697076f8c7dcb69b2c0937d11efa9ceaa3bf5a95\n      mload(0x40)\n      mload(0x40)\n      dup1\n      swap2\n      sub\n      swap1\n      log2\n        /* \"contracts/ha4-vaccine.sol\":1193:1197  true */\n      0x01\n        /* \"contracts/ha4-vaccine.sol\":1186:1197  return true */\n      swap1\n      pop\n        /* \"contracts/ha4-vaccine.sol\":1002:1205  function addIssuer(address _addr) public onlyOwner returns (bool) {\r... */\n      swap2\n      swap1\n      pop\n      jump\t// out\n        /* \"contracts/ha4-vaccine.sol\":1213:1416  function delIssuer(address _addr) public onlyOwner returns (bool) {\r... */\n    tag_22:\n        /* \"contracts/ha4-vaccine.sol\":1273:1277  bool */\n      0x00\n        /* \"contracts/ha4-vaccine.sol\":226:231  owner */\n      dup1\n      0x00\n      swap1\n      sload\n      swap1\n      0x0100\n      exp\n      swap1\n      div\n      0xffffffffffffffffffffffffffffffffffffffff\n      and\n        /* \"contracts/ha4-vaccine.sol\":212:231  msg.sender == owner */\n      0xffffffffffffffffffffffffffffffffffffffff\n      and\n        /* \"contracts/ha4-vaccine.sol\":212:222  msg.sender */\n      caller\n        /* \"contracts/ha4-vaccine.sol\":212:231  msg.sender == owner */\n      0xffffffffffffffffffffffffffffffffffffffff\n      and\n      eq\n        /* \"contracts/ha4-vaccine.sol\":204:232  require(msg.sender == owner) */\n      tag_67\n      jumpi\n      0x00\n      dup1\n      revert\n    tag_67:\n        /* \"contracts/ha4-vaccine.sol\":1316:1320  true */\n      0x01\n        /* \"contracts/ha4-vaccine.sol\":1298:1320  issuers[_addr] == true */\n      iszero\n      iszero\n        /* \"contracts/ha4-vaccine.sol\":1298:1305  issuers */\n      0x01\n        /* \"contracts/ha4-vaccine.sol\":1298:1312  issuers[_addr] */\n      0x00\n        /* \"contracts/ha4-vaccine.sol\":1306:1311  _addr */\n      dup5\n        /* \"contracts/ha4-vaccine.sol\":1298:1312  issuers[_addr] */\n      0xffffffffffffffffffffffffffffffffffffffff\n      and\n      0xffffffffffffffffffffffffffffffffffffffff\n      and\n      dup2\n      mstore\n      0x20\n      add\n      swap1\n      dup2\n      mstore\n      0x20\n      add\n      0x00\n      keccak256\n      0x00\n      swap1\n      sload\n      swap1\n      0x0100\n      exp\n      swap1\n      div\n      0xff\n      and\n        /* \"contracts/ha4-vaccine.sol\":1298:1320  issuers[_addr] == true */\n      iszero\n      iszero\n      eq\n        /* \"contracts/ha4-vaccine.sol\":1290:1321  require(issuers[_addr] == true) */\n      tag_69\n      jumpi\n      0x00\n      dup1\n      revert\n    tag_69:\n        /* \"contracts/ha4-vaccine.sol\":1349:1354  false */\n      0x00\n        /* \"contracts/ha4-vaccine.sol\":1332:1339  issuers */\n      0x01\n        /* \"contracts/ha4-vaccine.sol\":1332:1346  issuers[_addr] */\n      0x00\n        /* \"contracts/ha4-vaccine.sol\":1340:1345  _addr */\n      dup5\n        /* \"contracts/ha4-vaccine.sol\":1332:1346  issuers[_addr] */\n      0xffffffffffffffffffffffffffffffffffffffff\n      and\n      0xffffffffffffffffffffffffffffffffffffffff\n      and\n      dup2\n      mstore\n      0x20\n      add\n      swap1\n      dup2\n      mstore\n      0x20\n      add\n      0x00\n      keccak256\n      0x00\n        /* \"contracts/ha4-vaccine.sol\":1332:1354  issuers[_addr] = false */\n      0x0100\n      exp\n      dup2\n      sload\n      dup2\n      0xff\n      mul\n      not\n      and\n      swap1\n      dup4\n      iszero\n      iszero\n      mul\n      or\n      swap1\n      sstore\n      pop\n        /* \"contracts/ha4-vaccine.sol\":1380:1385  _addr */\n      dup2\n        /* \"contracts/ha4-vaccine.sol\":1370:1386  DelIssuer(_addr) */\n      0xffffffffffffffffffffffffffffffffffffffff\n      and\n      0xee5d7d94405e51eec1bd7f59c36572787d25afb6c85e3a897bb782f08aac7d44\n      mload(0x40)\n      mload(0x40)\n      dup1\n      swap2\n      sub\n      swap1\n      log2\n        /* \"contracts/ha4-vaccine.sol\":1404:1408  true */\n      0x01\n        /* \"contracts/ha4-vaccine.sol\":1397:1408  return true */\n      swap1\n      pop\n        /* \"contracts/ha4-vaccine.sol\":1213:1416  function delIssuer(address _addr) public onlyOwner returns (bool) {\r... */\n      swap2\n      swap1\n      pop\n      jump\t// out\n        /* \"contracts/ha4-vaccine.sol\":2270:2924  function claimCredential(address _vaccinatedAddress, uint8 _vaccineNum, uint8 _vaccineType, string calldata _value) public onlyIssuer returns (bool) {\r... */\n    tag_27:\n        /* \"contracts/ha4-vaccine.sol\":2413:2417  bool */\n      0x00\n        /* \"contracts/ha4-vaccine.sol\":794:798  true */\n      0x01\n        /* \"contracts/ha4-vaccine.sol\":770:798  isIssuer(msg.sender) == true */\n      iszero\n      iszero\n        /* \"contracts/ha4-vaccine.sol\":770:790  isIssuer(msg.sender) */\n      tag_71\n        /* \"contracts/ha4-vaccine.sol\":779:789  msg.sender */\n      caller\n        /* \"contracts/ha4-vaccine.sol\":770:778  isIssuer */\n      tag_46\n        /* \"contracts/ha4-vaccine.sol\":770:790  isIssuer(msg.sender) */\n      jump\t// in\n    tag_71:\n        /* \"contracts/ha4-vaccine.sol\":770:798  isIssuer(msg.sender) == true */\n      iszero\n      iszero\n      eq\n        /* \"contracts/ha4-vaccine.sol\":762:799  require(isIssuer(msg.sender) == true) */\n      tag_72\n      jumpi\n      0x00\n      dup1\n      revert\n    tag_72:\n        /* \"contracts/ha4-vaccine.sol\":2430:2459  Credential storage credential */\n      0x00\n        /* \"contracts/ha4-vaccine.sol\":2462:2473  credentials */\n      0x05\n        /* \"contracts/ha4-vaccine.sol\":2462:2493  credentials[_vaccinatedAddress] */\n      0x00\n        /* \"contracts/ha4-vaccine.sol\":2474:2492  _vaccinatedAddress */\n      dup9\n        /* \"contracts/ha4-vaccine.sol\":2462:2493  credentials[_vaccinatedAddress] */\n      0xffffffffffffffffffffffffffffffffffffffff\n      and\n      0xffffffffffffffffffffffffffffffffffffffff\n      and\n      dup2\n      mstore\n      0x20\n      add\n      swap1\n      dup2\n      mstore\n      0x20\n      add\n      0x00\n      keccak256\n        /* \"contracts/ha4-vaccine.sol\":2430:2493  Credential storage credential = credentials[_vaccinatedAddress] */\n      swap1\n      pop\n        /* \"contracts/ha4-vaccine.sol\":2529:2530  0 */\n      0x00\n        /* \"contracts/ha4-vaccine.sol\":2512:2522  credential */\n      dup2\n        /* \"contracts/ha4-vaccine.sol\":2512:2525  credential.id */\n      0x00\n      add\n      sload\n        /* \"contracts/ha4-vaccine.sol\":2512:2530  credential.id == 0 */\n      eq\n        /* \"contracts/ha4-vaccine.sol\":2504:2531  require(credential.id == 0) */\n      tag_74\n      jumpi\n      0x00\n      dup1\n      revert\n    tag_74:\n        /* \"contracts/ha4-vaccine.sol\":2565:2566  1 */\n      0x01\n        /* \"contracts/ha4-vaccine.sol\":2550:2561  _vaccineNum */\n      dup7\n        /* \"contracts/ha4-vaccine.sol\":2550:2566  _vaccineNum == 1 */\n      0xff\n      and\n      eq\n        /* \"contracts/ha4-vaccine.sol\":2542:2567  require(_vaccineNum == 1) */\n      tag_75\n      jumpi\n      0x00\n      dup1\n      revert\n    tag_75:\n        /* \"contracts/ha4-vaccine.sol\":2594:2601  idCount */\n      0x02\n      0x00\n      swap1\n      sload\n      swap1\n      0x0100\n      exp\n      swap1\n      div\n      0xff\n      and\n        /* \"contracts/ha4-vaccine.sol\":2578:2601  credential.id = idCount */\n      0xff\n      and\n        /* \"contracts/ha4-vaccine.sol\":2578:2588  credential */\n      dup2\n        /* \"contracts/ha4-vaccine.sol\":2578:2591  credential.id */\n      0x00\n      add\n        /* \"contracts/ha4-vaccine.sol\":2578:2601  credential.id = idCount */\n      dup2\n      swap1\n      sstore\n      pop\n        /* \"contracts/ha4-vaccine.sol\":2653:2663  msg.sender */\n      caller\n        /* \"contracts/ha4-vaccine.sol\":2612:2622  credential */\n      dup2\n        /* \"contracts/ha4-vaccine.sol\":2612:2637  credential.vaccineIssuers */\n      0x02\n      add\n        /* \"contracts/ha4-vaccine.sol\":2612:2650  credential.vaccineIssuers[_vaccineNum] */\n      0x00\n        /* \"contracts/ha4-vaccine.sol\":2638:2649  _vaccineNum */\n      dup9\n        /* \"contracts/ha4-vaccine.sol\":2612:2650  credential.vaccineIssuers[_vaccineNum] */\n      0xff\n      and\n      0xff\n      and\n      dup2\n      mstore\n      0x20\n      add\n      swap1\n      dup2\n      mstore\n      0x20\n      add\n      0x00\n      keccak256\n      0x00\n        /* \"contracts/ha4-vaccine.sol\":2612:2663  credential.vaccineIssuers[_vaccineNum] = msg.sender */\n      0x0100\n      exp\n      dup2\n      sload\n      dup2\n      0xffffffffffffffffffffffffffffffffffffffff\n      mul\n      not\n      and\n      swap1\n      dup4\n      0xffffffffffffffffffffffffffffffffffffffff\n      and\n      mul\n      or\n      swap1\n      sstore\n      pop\n        /* \"contracts/ha4-vaccine.sol\":2712:2724  _vaccineType */\n      dup5\n        /* \"contracts/ha4-vaccine.sol\":2674:2684  credential */\n      dup2\n        /* \"contracts/ha4-vaccine.sol\":2674:2696  credential.vaccineType */\n      0x03\n      add\n        /* \"contracts/ha4-vaccine.sol\":2674:2709  credential.vaccineType[_vaccineNum] */\n      0x00\n        /* \"contracts/ha4-vaccine.sol\":2697:2708  _vaccineNum */\n      dup9\n        /* \"contracts/ha4-vaccine.sol\":2674:2709  credential.vaccineType[_vaccineNum] */\n      0xff\n      and\n      0xff\n      and\n      dup2\n      mstore\n      0x20\n      add\n      swap1\n      dup2\n      mstore\n      0x20\n      add\n      0x00\n      keccak256\n      0x00\n        /* \"contracts/ha4-vaccine.sol\":2674:2724  credential.vaccineType[_vaccineNum] = _vaccineType */\n      0x0100\n      exp\n      dup2\n      sload\n      dup2\n      0xff\n      mul\n      not\n      and\n      swap1\n      dup4\n      0xff\n      and\n      mul\n      or\n      swap1\n      sstore\n      pop\n        /* \"contracts/ha4-vaccine.sol\":2773:2788  block.timestamp */\n      timestamp\n        /* \"contracts/ha4-vaccine.sol\":2735:2745  credential */\n      dup2\n        /* \"contracts/ha4-vaccine.sol\":2735:2757  credential.vaccineInfo */\n      0x04\n      add\n        /* \"contracts/ha4-vaccine.sol\":2735:2770  credential.vaccineInfo[_vaccineNum] */\n      0x00\n        /* \"contracts/ha4-vaccine.sol\":2758:2769  _vaccineNum */\n      dup9\n        /* \"contracts/ha4-vaccine.sol\":2735:2770  credential.vaccineInfo[_vaccineNum] */\n      0xff\n      and\n      0xff\n      and\n      dup2\n      mstore\n      0x20\n      add\n      swap1\n      dup2\n      mstore\n      0x20\n      add\n      0x00\n      keccak256\n        /* \"contracts/ha4-vaccine.sol\":2735:2788  credential.vaccineInfo[_vaccineNum] = block.timestamp */\n      dup2\n      swap1\n      sstore\n      pop\n        /* \"contracts/ha4-vaccine.sol\":2818:2824  _value */\n      dup4\n      dup4\n        /* \"contracts/ha4-vaccine.sol\":2799:2809  credential */\n      dup3\n        /* \"contracts/ha4-vaccine.sol\":2799:2815  credential.value */\n      0x01\n      add\n        /* \"contracts/ha4-vaccine.sol\":2799:2824  credential.value = _value */\n      swap2\n      swap1\n      tag_76\n      swap3\n      swap2\n      swap1\n      tag_77\n      jump\t// in\n    tag_76:\n      pop\n        /* \"contracts/ha4-vaccine.sol\":2866:2867  1 */\n      0x01\n        /* \"contracts/ha4-vaccine.sol\":2835:2845  credential */\n      dup2\n        /* \"contracts/ha4-vaccine.sol\":2835:2863  credential.lastestVaccineNum */\n      0x05\n      add\n      0x00\n        /* \"contracts/ha4-vaccine.sol\":2835:2867  credential.lastestVaccineNum = 1 */\n      0x0100\n      exp\n      dup2\n      sload\n      dup2\n      0xff\n      mul\n      not\n      and\n      swap1\n      dup4\n      0xff\n      and\n      mul\n      or\n      swap1\n      sstore\n      pop\n        /* \"contracts/ha4-vaccine.sol\":2891:2892  1 */\n      0x01\n        /* \"contracts/ha4-vaccine.sol\":2880:2887  idCount */\n      0x02\n      0x00\n        /* \"contracts/ha4-vaccine.sol\":2880:2892  idCount += 1 */\n      dup3\n      dup3\n      dup3\n      swap1\n      sload\n      swap1\n      0x0100\n      exp\n      swap1\n      div\n      0xff\n      and\n      tag_78\n      swap2\n      swap1\n      tag_79\n      jump\t// in\n    tag_78:\n      swap3\n      pop\n      0x0100\n      exp\n      dup2\n      sload\n      dup2\n      0xff\n      mul\n      not\n      and\n      swap1\n      dup4\n      0xff\n      and\n      mul\n      or\n      swap1\n      sstore\n      pop\n        /* \"contracts/ha4-vaccine.sol\":2912:2916  true */\n      0x01\n        /* \"contracts/ha4-vaccine.sol\":2905:2916  return true */\n      swap2\n      pop\n      pop\n        /* \"contracts/ha4-vaccine.sol\":2270:2924  function claimCredential(address _vaccinatedAddress, uint8 _vaccineNum, uint8 _vaccineType, string calldata _value) public onlyIssuer returns (bool) {\r... */\n      swap6\n      swap5\n      pop\n      pop\n      pop\n      pop\n      pop\n      jump\t// out\n        /* \"contracts/ha4-vaccine.sol\":585:624  mapping(address => bool) public issuers */\n    tag_31:\n      mstore(0x20, 0x01)\n      dup1\n      0x00\n      mstore\n      keccak256(0x00, 0x40)\n      0x00\n      swap2\n      pop\n      sload\n      swap1\n      0x0100\n      exp\n      swap1\n      div\n      0xff\n      and\n      dup2\n      jump\t// out\n        /* \"contracts/ha4-vaccine.sol\":4060:4265  function getVaccineType(uint8 _vaccineType) public view returns (string memory) {\r... */\n    tag_36:\n        /* \"contracts/ha4-vaccine.sol\":4125:4138  string memory */\n      0x60\n        /* \"contracts/ha4-vaccine.sol\":4196:4197  0 */\n      0x00\n        /* \"contracts/ha4-vaccine.sol\":4159:4170  vaccineEnum */\n      0x03\n        /* \"contracts/ha4-vaccine.sol\":4159:4184  vaccineEnum[_vaccineType] */\n      0x00\n        /* \"contracts/ha4-vaccine.sol\":4171:4183  _vaccineType */\n      dup5\n        /* \"contracts/ha4-vaccine.sol\":4159:4184  vaccineEnum[_vaccineType] */\n      0xff\n      and\n      0xff\n      and\n      dup2\n      mstore\n      0x20\n      add\n      swap1\n      dup2\n      mstore\n      0x20\n      add\n      0x00\n      keccak256\n        /* \"contracts/ha4-vaccine.sol\":4153:4192  bytes(vaccineEnum[_vaccineType]).length */\n      dup1\n      sload\n      tag_81\n      swap1\n      tag_82\n      jump\t// in\n    tag_81:\n      swap1\n      pop\n        /* \"contracts/ha4-vaccine.sol\":4153:4197  bytes(vaccineEnum[_vaccineType]).length != 0 */\n      eq\n      iszero\n        /* \"contracts/ha4-vaccine.sol\":4145:4214  require(bytes(vaccineEnum[_vaccineType]).length != 0, \"invaild type\") */\n      tag_83\n      jumpi\n      mload(0x40)\n      0x08c379a000000000000000000000000000000000000000000000000000000000\n      dup2\n      mstore\n      0x04\n      add\n      tag_84\n      swap1\n      tag_85\n      jump\t// in\n    tag_84:\n      mload(0x40)\n      dup1\n      swap2\n      sub\n      swap1\n      revert\n    tag_83:\n        /* \"contracts/ha4-vaccine.sol\":4232:4243  vaccineEnum */\n      0x03\n        /* \"contracts/ha4-vaccine.sol\":4232:4257  vaccineEnum[_vaccineType] */\n      0x00\n        /* \"contracts/ha4-vaccine.sol\":4244:4256  _vaccineType */\n      dup4\n        /* \"contracts/ha4-vaccine.sol\":4232:4257  vaccineEnum[_vaccineType] */\n      0xff\n      and\n      0xff\n      and\n      dup2\n      mstore\n      0x20\n      add\n      swap1\n      dup2\n      mstore\n      0x20\n      add\n      0x00\n      keccak256\n        /* \"contracts/ha4-vaccine.sol\":4225:4257  return vaccineEnum[_vaccineType] */\n      dup1\n      sload\n      tag_86\n      swap1\n      tag_82\n      jump\t// in\n    tag_86:\n      dup1\n      0x1f\n      add\n      0x20\n      dup1\n      swap2\n      div\n      mul\n      0x20\n      add\n      mload(0x40)\n      swap1\n      dup2\n      add\n      0x40\n      mstore\n      dup1\n      swap3\n      swap2\n      swap1\n      dup2\n      dup2\n      mstore\n      0x20\n      add\n      dup3\n      dup1\n      sload\n      tag_87\n      swap1\n      tag_82\n      jump\t// in\n    tag_87:\n      dup1\n      iszero\n      tag_88\n      jumpi\n      dup1\n      0x1f\n      lt\n      tag_89\n      jumpi\n      0x0100\n      dup1\n      dup4\n      sload\n      div\n      mul\n      dup4\n      mstore\n      swap2\n      0x20\n      add\n      swap2\n      jump(tag_88)\n    tag_89:\n      dup3\n      add\n      swap2\n      swap1\n      0x00\n      mstore\n      keccak256(0x00, 0x20)\n      swap1\n    tag_90:\n      dup2\n      sload\n      dup2\n      mstore\n      swap1\n      0x01\n      add\n      swap1\n      0x20\n      add\n      dup1\n      dup4\n      gt\n      tag_90\n      jumpi\n      dup3\n      swap1\n      sub\n      0x1f\n      and\n      dup3\n      add\n      swap2\n    tag_88:\n      pop\n      pop\n      pop\n      pop\n      pop\n      swap1\n      pop\n        /* \"contracts/ha4-vaccine.sol\":4060:4265  function getVaccineType(uint8 _vaccineType) public view returns (string memory) {\r... */\n      swap2\n      swap1\n      pop\n      jump\t// out\n        /* \"contracts/ha4-vaccine.sol\":4273:4905  function updateVaccinationState(address _vaccinatedAddress, uint8 _vaccineNum, uint8 _vaccineType) public onlyIssuer returns (bool) {\r... */\n    tag_42:\n        /* \"contracts/ha4-vaccine.sol\":4399:4403  bool */\n      0x00\n        /* \"contracts/ha4-vaccine.sol\":794:798  true */\n      0x01\n        /* \"contracts/ha4-vaccine.sol\":770:798  isIssuer(msg.sender) == true */\n      iszero\n      iszero\n        /* \"contracts/ha4-vaccine.sol\":770:790  isIssuer(msg.sender) */\n      tag_92\n        /* \"contracts/ha4-vaccine.sol\":779:789  msg.sender */\n      caller\n        /* \"contracts/ha4-vaccine.sol\":770:778  isIssuer */\n      tag_46\n        /* \"contracts/ha4-vaccine.sol\":770:790  isIssuer(msg.sender) */\n      jump\t// in\n    tag_92:\n        /* \"contracts/ha4-vaccine.sol\":770:798  isIssuer(msg.sender) == true */\n      iszero\n      iszero\n      eq\n        /* \"contracts/ha4-vaccine.sol\":762:799  require(isIssuer(msg.sender) == true) */\n      tag_93\n      jumpi\n      0x00\n      dup1\n      revert\n    tag_93:\n        /* \"contracts/ha4-vaccine.sol\":4462:4463  0 */\n      0x00\n        /* \"contracts/ha4-vaccine.sol\":4424:4435  credentials */\n      0x05\n        /* \"contracts/ha4-vaccine.sol\":4424:4455  credentials[_vaccinatedAddress] */\n      0x00\n        /* \"contracts/ha4-vaccine.sol\":4436:4454  _vaccinatedAddress */\n      dup7\n        /* \"contracts/ha4-vaccine.sol\":4424:4455  credentials[_vaccinatedAddress] */\n      0xffffffffffffffffffffffffffffffffffffffff\n      and\n      0xffffffffffffffffffffffffffffffffffffffff\n      and\n      dup2\n      mstore\n      0x20\n      add\n      swap1\n      dup2\n      mstore\n      0x20\n      add\n      0x00\n      keccak256\n        /* \"contracts/ha4-vaccine.sol\":4424:4458  credentials[_vaccinatedAddress].id */\n      0x00\n      add\n      sload\n        /* \"contracts/ha4-vaccine.sol\":4424:4463  credentials[_vaccinatedAddress].id != 0 */\n      eq\n      iszero\n        /* \"contracts/ha4-vaccine.sol\":4416:4490  require(credentials[_vaccinatedAddress].id != 0, \"not claimed credential\") */\n      tag_95\n      jumpi\n      mload(0x40)\n      0x08c379a000000000000000000000000000000000000000000000000000000000\n      dup2\n      mstore\n      0x04\n      add\n      tag_96\n      swap1\n      tag_97\n      jump\t// in\n    tag_96:\n      mload(0x40)\n      dup1\n      swap2\n      sub\n      swap1\n      revert\n    tag_95:\n        /* \"contracts/ha4-vaccine.sol\":4524:4534  vaccineLen */\n      0x04\n      0x00\n      swap1\n      sload\n      swap1\n      0x0100\n      exp\n      swap1\n      div\n      0xff\n      and\n        /* \"contracts/ha4-vaccine.sol\":4509:4534  _vaccineType < vaccineLen */\n      0xff\n      and\n        /* \"contracts/ha4-vaccine.sol\":4509:4521  _vaccineType */\n      dup3\n        /* \"contracts/ha4-vaccine.sol\":4509:4534  _vaccineType < vaccineLen */\n      0xff\n      and\n      lt\n        /* \"contracts/ha4-vaccine.sol\":4501:4551  require(_vaccineType < vaccineLen, \"invaild type\") */\n      tag_98\n      jumpi\n      mload(0x40)\n      0x08c379a000000000000000000000000000000000000000000000000000000000\n      dup2\n      mstore\n      0x04\n      add\n      tag_99\n      swap1\n      tag_85\n      jump\t// in\n    tag_99:\n      mload(0x40)\n      dup1\n      swap2\n      sub\n      swap1\n      revert\n    tag_98:\n        /* \"contracts/ha4-vaccine.sol\":4621:4633  _vaccineType */\n      dup2\n        /* \"contracts/ha4-vaccine.sol\":4562:4573  credentials */\n      0x05\n        /* \"contracts/ha4-vaccine.sol\":4562:4593  credentials[_vaccinatedAddress] */\n      0x00\n        /* \"contracts/ha4-vaccine.sol\":4574:4592  _vaccinatedAddress */\n      dup7\n        /* \"contracts/ha4-vaccine.sol\":4562:4593  credentials[_vaccinatedAddress] */\n      0xffffffffffffffffffffffffffffffffffffffff\n      and\n      0xffffffffffffffffffffffffffffffffffffffff\n      and\n      dup2\n      mstore\n      0x20\n      add\n      swap1\n      dup2\n      mstore\n      0x20\n      add\n      0x00\n      keccak256\n        /* \"contracts/ha4-vaccine.sol\":4562:4605  credentials[_vaccinatedAddress].vaccineType */\n      0x03\n      add\n        /* \"contracts/ha4-vaccine.sol\":4562:4618  credentials[_vaccinatedAddress].vaccineType[_vaccineNum] */\n      0x00\n        /* \"contracts/ha4-vaccine.sol\":4606:4617  _vaccineNum */\n      dup6\n        /* \"contracts/ha4-vaccine.sol\":4562:4618  credentials[_vaccinatedAddress].vaccineType[_vaccineNum] */\n      0xff\n      and\n      0xff\n      and\n      dup2\n      mstore\n      0x20\n      add\n      swap1\n      dup2\n      mstore\n      0x20\n      add\n      0x00\n      keccak256\n      0x00\n        /* \"contracts/ha4-vaccine.sol\":4562:4633  credentials[_vaccinatedAddress].vaccineType[_vaccineNum] = _vaccineType */\n      0x0100\n      exp\n      dup2\n      sload\n      dup2\n      0xff\n      mul\n      not\n      and\n      swap1\n      dup4\n      0xff\n      and\n      mul\n      or\n      swap1\n      sstore\n      pop\n        /* \"contracts/ha4-vaccine.sol\":4703:4718  block.timestamp */\n      timestamp\n        /* \"contracts/ha4-vaccine.sol\":4644:4655  credentials */\n      0x05\n        /* \"contracts/ha4-vaccine.sol\":4644:4675  credentials[_vaccinatedAddress] */\n      0x00\n        /* \"contracts/ha4-vaccine.sol\":4656:4674  _vaccinatedAddress */\n      dup7\n        /* \"contracts/ha4-vaccine.sol\":4644:4675  credentials[_vaccinatedAddress] */\n      0xffffffffffffffffffffffffffffffffffffffff\n      and\n      0xffffffffffffffffffffffffffffffffffffffff\n      and\n      dup2\n      mstore\n      0x20\n      add\n      swap1\n      dup2\n      mstore\n      0x20\n      add\n      0x00\n      keccak256\n        /* \"contracts/ha4-vaccine.sol\":4644:4687  credentials[_vaccinatedAddress].vaccineInfo */\n      0x04\n      add\n        /* \"contracts/ha4-vaccine.sol\":4644:4700  credentials[_vaccinatedAddress].vaccineInfo[_vaccineNum] */\n      0x00\n        /* \"contracts/ha4-vaccine.sol\":4688:4699  _vaccineNum */\n      dup6\n        /* \"contracts/ha4-vaccine.sol\":4644:4700  credentials[_vaccinatedAddress].vaccineInfo[_vaccineNum] */\n      0xff\n      and\n      0xff\n      and\n      dup2\n      mstore\n      0x20\n      add\n      swap1\n      dup2\n      mstore\n      0x20\n      add\n      0x00\n      keccak256\n        /* \"contracts/ha4-vaccine.sol\":4644:4718  credentials[_vaccinatedAddress].vaccineInfo[_vaccineNum] = block.timestamp */\n      dup2\n      swap1\n      sstore\n      pop\n        /* \"contracts/ha4-vaccine.sol\":4781:4792  _vaccineNum */\n      dup3\n        /* \"contracts/ha4-vaccine.sol\":4729:4740  credentials */\n      0x05\n        /* \"contracts/ha4-vaccine.sol\":4729:4760  credentials[_vaccinatedAddress] */\n      0x00\n        /* \"contracts/ha4-vaccine.sol\":4741:4759  _vaccinatedAddress */\n      dup7\n        /* \"contracts/ha4-vaccine.sol\":4729:4760  credentials[_vaccinatedAddress] */\n      0xffffffffffffffffffffffffffffffffffffffff\n      and\n      0xffffffffffffffffffffffffffffffffffffffff\n      and\n      dup2\n      mstore\n      0x20\n      add\n      swap1\n      dup2\n      mstore\n      0x20\n      add\n      0x00\n      keccak256\n        /* \"contracts/ha4-vaccine.sol\":4729:4778  credentials[_vaccinatedAddress].lastestVaccineNum */\n      0x05\n      add\n      0x00\n        /* \"contracts/ha4-vaccine.sol\":4729:4792  credentials[_vaccinatedAddress].lastestVaccineNum = _vaccineNum */\n      0x0100\n      exp\n      dup2\n      sload\n      dup2\n      0xff\n      mul\n      not\n      and\n      swap1\n      dup4\n      0xff\n      and\n      mul\n      or\n      swap1\n      sstore\n      pop\n        /* \"contracts/ha4-vaccine.sol\":4865:4875  msg.sender */\n      caller\n        /* \"contracts/ha4-vaccine.sol\":4803:4814  credentials */\n      0x05\n        /* \"contracts/ha4-vaccine.sol\":4803:4834  credentials[_vaccinatedAddress] */\n      0x00\n        /* \"contracts/ha4-vaccine.sol\":4815:4833  _vaccinatedAddress */\n      dup7\n        /* \"contracts/ha4-vaccine.sol\":4803:4834  credentials[_vaccinatedAddress] */\n      0xffffffffffffffffffffffffffffffffffffffff\n      and\n      0xffffffffffffffffffffffffffffffffffffffff\n      and\n      dup2\n      mstore\n      0x20\n      add\n      swap1\n      dup2\n      mstore\n      0x20\n      add\n      0x00\n      keccak256\n        /* \"contracts/ha4-vaccine.sol\":4803:4849  credentials[_vaccinatedAddress].vaccineIssuers */\n      0x02\n      add\n        /* \"contracts/ha4-vaccine.sol\":4803:4862  credentials[_vaccinatedAddress].vaccineIssuers[_vaccineNum] */\n      0x00\n        /* \"contracts/ha4-vaccine.sol\":4850:4861  _vaccineNum */\n      dup6\n        /* \"contracts/ha4-vaccine.sol\":4803:4862  credentials[_vaccinatedAddress].vaccineIssuers[_vaccineNum] */\n      0xff\n      and\n      0xff\n      and\n      dup2\n      mstore\n      0x20\n      add\n      swap1\n      dup2\n      mstore\n      0x20\n      add\n      0x00\n      keccak256\n      0x00\n        /* \"contracts/ha4-vaccine.sol\":4803:4875  credentials[_vaccinatedAddress].vaccineIssuers[_vaccineNum] = msg.sender */\n      0x0100\n      exp\n      dup2\n      sload\n      dup2\n      0xffffffffffffffffffffffffffffffffffffffff\n      mul\n      not\n      and\n      swap1\n      dup4\n      0xffffffffffffffffffffffffffffffffffffffff\n      and\n      mul\n      or\n      swap1\n      sstore\n      pop\n        /* \"contracts/ha4-vaccine.sol\":4893:4897  true */\n      0x01\n        /* \"contracts/ha4-vaccine.sol\":4886:4897  return true */\n      swap1\n      pop\n        /* \"contracts/ha4-vaccine.sol\":4273:4905  function updateVaccinationState(address _vaccinatedAddress, uint8 _vaccineNum, uint8 _vaccineType) public onlyIssuer returns (bool) {\r... */\n      swap4\n      swap3\n      pop\n      pop\n      pop\n      jump\t// out\n        /* \"contracts/ha4-vaccine.sol\":894:994  function isIssuer(address _addr) public view returns (bool) {\r... */\n    tag_46:\n        /* \"contracts/ha4-vaccine.sol\":948:952  bool */\n      0x00\n        /* \"contracts/ha4-vaccine.sol\":972:979  issuers */\n      0x01\n        /* \"contracts/ha4-vaccine.sol\":972:986  issuers[_addr] */\n      0x00\n        /* \"contracts/ha4-vaccine.sol\":980:985  _addr */\n      dup4\n        /* \"contracts/ha4-vaccine.sol\":972:986  issuers[_addr] */\n      0xffffffffffffffffffffffffffffffffffffffff\n      and\n      0xffffffffffffffffffffffffffffffffffffffff\n      and\n      dup2\n      mstore\n      0x20\n      add\n      swap1\n      dup2\n      mstore\n      0x20\n      add\n      0x00\n      keccak256\n      0x00\n      swap1\n      sload\n      swap1\n      0x0100\n      exp\n      swap1\n      div\n      0xff\n      and\n        /* \"contracts/ha4-vaccine.sol\":965:986  return issuers[_addr] */\n      swap1\n      pop\n        /* \"contracts/ha4-vaccine.sol\":894:994  function isIssuer(address _addr) public view returns (bool) {\r... */\n      swap2\n      swap1\n      pop\n      jump\t// out\n        /* \"contracts/ha4-vaccine.sol\":2932:3680  function getCredential(address _vaccinatedAddress, uint8 _vaccineNum) public view returns (Presentation memory) {\r... */\n    tag_51:\n        /* \"contracts/ha4-vaccine.sol\":3023:3042  Presentation memory */\n      tag_101\n      tag_102\n      jump\t// in\n    tag_101:\n        /* \"contracts/ha4-vaccine.sol\":3101:3102  0 */\n      0x00\n        /* \"contracts/ha4-vaccine.sol\":3063:3074  credentials */\n      0x05\n        /* \"contracts/ha4-vaccine.sol\":3063:3094  credentials[_vaccinatedAddress] */\n      0x00\n        /* \"contracts/ha4-vaccine.sol\":3075:3093  _vaccinatedAddress */\n      dup6\n        /* \"contracts/ha4-vaccine.sol\":3063:3094  credentials[_vaccinatedAddress] */\n      0xffffffffffffffffffffffffffffffffffffffff\n      and\n      0xffffffffffffffffffffffffffffffffffffffff\n      and\n      dup2\n      mstore\n      0x20\n      add\n      swap1\n      dup2\n      mstore\n      0x20\n      add\n      0x00\n      keccak256\n        /* \"contracts/ha4-vaccine.sol\":3063:3097  credentials[_vaccinatedAddress].id */\n      0x00\n      add\n      sload\n        /* \"contracts/ha4-vaccine.sol\":3063:3102  credentials[_vaccinatedAddress].id != 0 */\n      eq\n      iszero\n        /* \"contracts/ha4-vaccine.sol\":3055:3129  require(credentials[_vaccinatedAddress].id != 0, \"not claimed credential\") */\n      tag_104\n      jumpi\n      mload(0x40)\n      0x08c379a000000000000000000000000000000000000000000000000000000000\n      dup2\n      mstore\n      0x04\n      add\n      tag_105\n      swap1\n      tag_97\n      jump\t// in\n    tag_105:\n      mload(0x40)\n      dup1\n      swap2\n      sub\n      swap1\n      revert\n    tag_104:\n        /* \"contracts/ha4-vaccine.sol\":3163:3174  credentials */\n      0x05\n        /* \"contracts/ha4-vaccine.sol\":3163:3194  credentials[_vaccinatedAddress] */\n      0x00\n        /* \"contracts/ha4-vaccine.sol\":3175:3193  _vaccinatedAddress */\n      dup5\n        /* \"contracts/ha4-vaccine.sol\":3163:3194  credentials[_vaccinatedAddress] */\n      0xffffffffffffffffffffffffffffffffffffffff\n      and\n      0xffffffffffffffffffffffffffffffffffffffff\n      and\n      dup2\n      mstore\n      0x20\n      add\n      swap1\n      dup2\n      mstore\n      0x20\n      add\n      0x00\n      keccak256\n        /* \"contracts/ha4-vaccine.sol\":3163:3212  credentials[_vaccinatedAddress].lastestVaccineNum */\n      0x05\n      add\n      0x00\n      swap1\n      sload\n      swap1\n      0x0100\n      exp\n      swap1\n      div\n      0xff\n      and\n        /* \"contracts/ha4-vaccine.sol\":3148:3212  _vaccineNum <= credentials[_vaccinatedAddress].lastestVaccineNum */\n      0xff\n      and\n        /* \"contracts/ha4-vaccine.sol\":3148:3159  _vaccineNum */\n      dup3\n        /* \"contracts/ha4-vaccine.sol\":3148:3212  _vaccineNum <= credentials[_vaccinatedAddress].lastestVaccineNum */\n      0xff\n      and\n      gt\n      iszero\n        /* \"contracts/ha4-vaccine.sol\":3140:3239  require(_vaccineNum <= credentials[_vaccinatedAddress].lastestVaccineNum, \"invaild vaccien number\") */\n      tag_106\n      jumpi\n      mload(0x40)\n      0x08c379a000000000000000000000000000000000000000000000000000000000\n      dup2\n      mstore\n      0x04\n      add\n      tag_107\n      swap1\n      tag_108\n      jump\t// in\n    tag_107:\n      mload(0x40)\n      dup1\n      swap2\n      sub\n      swap1\n      revert\n    tag_106:\n        /* \"contracts/ha4-vaccine.sol\":3252:3277  string memory vaccineType */\n      0x60\n        /* \"contracts/ha4-vaccine.sol\":3302:3374  getVaccineType(credentials[_vaccinatedAddress].vaccineType[_vaccineNum]) */\n      tag_109\n        /* \"contracts/ha4-vaccine.sol\":3317:3328  credentials */\n      0x05\n        /* \"contracts/ha4-vaccine.sol\":3317:3348  credentials[_vaccinatedAddress] */\n      0x00\n        /* \"contracts/ha4-vaccine.sol\":3329:3347  _vaccinatedAddress */\n      dup7\n        /* \"contracts/ha4-vaccine.sol\":3317:3348  credentials[_vaccinatedAddress] */\n      0xffffffffffffffffffffffffffffffffffffffff\n      and\n      0xffffffffffffffffffffffffffffffffffffffff\n      and\n      dup2\n      mstore\n      0x20\n      add\n      swap1\n      dup2\n      mstore\n      0x20\n      add\n      0x00\n      keccak256\n        /* \"contracts/ha4-vaccine.sol\":3317:3360  credentials[_vaccinatedAddress].vaccineType */\n      0x03\n      add\n        /* \"contracts/ha4-vaccine.sol\":3317:3373  credentials[_vaccinatedAddress].vaccineType[_vaccineNum] */\n      0x00\n        /* \"contracts/ha4-vaccine.sol\":3361:3372  _vaccineNum */\n      dup6\n        /* \"contracts/ha4-vaccine.sol\":3317:3373  credentials[_vaccinatedAddress].vaccineType[_vaccineNum] */\n      0xff\n      and\n      0xff\n      and\n      dup2\n      mstore\n      0x20\n      add\n      swap1\n      dup2\n      mstore\n      0x20\n      add\n      0x00\n      keccak256\n      0x00\n      swap1\n      sload\n      swap1\n      0x0100\n      exp\n      swap1\n      div\n      0xff\n      and\n        /* \"contracts/ha4-vaccine.sol\":3302:3316  getVaccineType */\n      tag_36\n        /* \"contracts/ha4-vaccine.sol\":3302:3374  getVaccineType(credentials[_vaccinatedAddress].vaccineType[_vaccineNum]) */\n      jump\t// in\n    tag_109:\n        /* \"contracts/ha4-vaccine.sol\":3288:3374  vaccineType = getVaccineType(credentials[_vaccinatedAddress].vaccineType[_vaccineNum]) */\n      swap1\n      pop\n        /* \"contracts/ha4-vaccine.sol\":3385:3417  Presentation memory presentation */\n      0x00\n        /* \"contracts/ha4-vaccine.sol\":3420:3640  Presentation(\r... */\n      mload(0x40)\n      dup1\n      0x80\n      add\n      0x40\n      mstore\n      dup1\n        /* \"contracts/ha4-vaccine.sol\":3447:3458  credentials */\n      0x05\n        /* \"contracts/ha4-vaccine.sol\":3447:3478  credentials[_vaccinatedAddress] */\n      0x00\n        /* \"contracts/ha4-vaccine.sol\":3459:3477  _vaccinatedAddress */\n      dup9\n        /* \"contracts/ha4-vaccine.sol\":3447:3478  credentials[_vaccinatedAddress] */\n      0xffffffffffffffffffffffffffffffffffffffff\n      and\n      0xffffffffffffffffffffffffffffffffffffffff\n      and\n      dup2\n      mstore\n      0x20\n      add\n      swap1\n      dup2\n      mstore\n      0x20\n      add\n      0x00\n      keccak256\n        /* \"contracts/ha4-vaccine.sol\":3447:3493  credentials[_vaccinatedAddress].vaccineIssuers */\n      0x02\n      add\n        /* \"contracts/ha4-vaccine.sol\":3447:3506  credentials[_vaccinatedAddress].vaccineIssuers[_vaccineNum] */\n      0x00\n        /* \"contracts/ha4-vaccine.sol\":3494:3505  _vaccineNum */\n      dup8\n        /* \"contracts/ha4-vaccine.sol\":3447:3506  credentials[_vaccinatedAddress].vaccineIssuers[_vaccineNum] */\n      0xff\n      and\n      0xff\n      and\n      dup2\n      mstore\n      0x20\n      add\n      swap1\n      dup2\n      mstore\n      0x20\n      add\n      0x00\n      keccak256\n      0x00\n      swap1\n      sload\n      swap1\n      0x0100\n      exp\n      swap1\n      div\n      0xffffffffffffffffffffffffffffffffffffffff\n      and\n        /* \"contracts/ha4-vaccine.sol\":3420:3640  Presentation(\r... */\n      0xffffffffffffffffffffffffffffffffffffffff\n      and\n      dup2\n      mstore\n      0x20\n      add\n        /* \"contracts/ha4-vaccine.sol\":3521:3532  vaccineType */\n      dup4\n        /* \"contracts/ha4-vaccine.sol\":3420:3640  Presentation(\r... */\n      dup2\n      mstore\n      0x20\n      add\n        /* \"contracts/ha4-vaccine.sol\":3547:3558  _vaccineNum */\n      dup6\n        /* \"contracts/ha4-vaccine.sol\":3420:3640  Presentation(\r... */\n      0xff\n      and\n      dup2\n      mstore\n      0x20\n      add\n        /* \"contracts/ha4-vaccine.sol\":3573:3584  credentials */\n      0x05\n        /* \"contracts/ha4-vaccine.sol\":3573:3604  credentials[_vaccinatedAddress] */\n      0x00\n        /* \"contracts/ha4-vaccine.sol\":3585:3603  _vaccinatedAddress */\n      dup9\n        /* \"contracts/ha4-vaccine.sol\":3573:3604  credentials[_vaccinatedAddress] */\n      0xffffffffffffffffffffffffffffffffffffffff\n      and\n      0xffffffffffffffffffffffffffffffffffffffff\n      and\n      dup2\n      mstore\n      0x20\n      add\n      swap1\n      dup2\n      mstore\n      0x20\n      add\n      0x00\n      keccak256\n        /* \"contracts/ha4-vaccine.sol\":3573:3616  credentials[_vaccinatedAddress].vaccineInfo */\n      0x04\n      add\n        /* \"contracts/ha4-vaccine.sol\":3573:3629  credentials[_vaccinatedAddress].vaccineInfo[_vaccineNum] */\n      0x00\n        /* \"contracts/ha4-vaccine.sol\":3617:3628  _vaccineNum */\n      dup8\n        /* \"contracts/ha4-vaccine.sol\":3573:3629  credentials[_vaccinatedAddress].vaccineInfo[_vaccineNum] */\n      0xff\n      and\n      0xff\n      and\n      dup2\n      mstore\n      0x20\n      add\n      swap1\n      dup2\n      mstore\n      0x20\n      add\n      0x00\n      keccak256\n      sload\n        /* \"contracts/ha4-vaccine.sol\":3420:3640  Presentation(\r... */\n      dup2\n      mstore\n      pop\n        /* \"contracts/ha4-vaccine.sol\":3385:3640  Presentation memory presentation = Presentation(\r... */\n      swap1\n      pop\n        /* \"contracts/ha4-vaccine.sol\":3660:3672  presentation */\n      dup1\n        /* \"contracts/ha4-vaccine.sol\":3653:3672  return presentation */\n      swap3\n      pop\n      pop\n      pop\n        /* \"contracts/ha4-vaccine.sol\":2932:3680  function getCredential(address _vaccinatedAddress, uint8 _vaccineNum) public view returns (Presentation memory) {\r... */\n      swap3\n      swap2\n      pop\n      pop\n      jump\t// out\n        /* \"contracts/ha4-vaccine.sol\":3688:4052  function addVaccineType(string calldata _vaccineType) public onlyIssuer returns (bool) {\r... */\n    tag_57:\n        /* \"contracts/ha4-vaccine.sol\":3769:3773  bool */\n      0x00\n        /* \"contracts/ha4-vaccine.sol\":794:798  true */\n      0x01\n        /* \"contracts/ha4-vaccine.sol\":770:798  isIssuer(msg.sender) == true */\n      iszero\n      iszero\n        /* \"contracts/ha4-vaccine.sol\":770:790  isIssuer(msg.sender) */\n      tag_111\n        /* \"contracts/ha4-vaccine.sol\":779:789  msg.sender */\n      caller\n        /* \"contracts/ha4-vaccine.sol\":770:778  isIssuer */\n      tag_46\n        /* \"contracts/ha4-vaccine.sol\":770:790  isIssuer(msg.sender) */\n      jump\t// in\n    tag_111:\n        /* \"contracts/ha4-vaccine.sol\":770:798  isIssuer(msg.sender) == true */\n      iszero\n      iszero\n      eq\n        /* \"contracts/ha4-vaccine.sol\":762:799  require(isIssuer(msg.sender) == true) */\n      tag_112\n      jumpi\n      0x00\n      dup1\n      revert\n    tag_112:\n        /* \"contracts/ha4-vaccine.sol\":3791:3798  uint8 i */\n      0x00\n        /* \"contracts/ha4-vaccine.sol\":3786:3951  for (uint8 i = 0; i < vaccineLen; i++) {\r... */\n    tag_114:\n        /* \"contracts/ha4-vaccine.sol\":3808:3818  vaccineLen */\n      0x04\n      0x00\n      swap1\n      sload\n      swap1\n      0x0100\n      exp\n      swap1\n      div\n      0xff\n      and\n        /* \"contracts/ha4-vaccine.sol\":3804:3818  i < vaccineLen */\n      0xff\n      and\n        /* \"contracts/ha4-vaccine.sol\":3804:3805  i */\n      dup2\n        /* \"contracts/ha4-vaccine.sol\":3804:3818  i < vaccineLen */\n      0xff\n      and\n      lt\n        /* \"contracts/ha4-vaccine.sol\":3786:3951  for (uint8 i = 0; i < vaccineLen; i++) {\r... */\n      iszero\n      tag_115\n      jumpi\n        /* \"contracts/ha4-vaccine.sol\":3898:3909  vaccineEnum */\n      0x03\n        /* \"contracts/ha4-vaccine.sol\":3898:3912  vaccineEnum[i] */\n      0x00\n        /* \"contracts/ha4-vaccine.sol\":3910:3911  i */\n      dup3\n        /* \"contracts/ha4-vaccine.sol\":3898:3912  vaccineEnum[i] */\n      0xff\n      and\n      0xff\n      and\n      dup2\n      mstore\n      0x20\n      add\n      swap1\n      dup2\n      mstore\n      0x20\n      add\n      0x00\n      keccak256\n        /* \"contracts/ha4-vaccine.sol\":3882:3914  keccak256(bytes(vaccineEnum[i])) */\n      mload(0x40)\n      tag_117\n      swap2\n      swap1\n      tag_118\n      jump\t// in\n    tag_117:\n      mload(0x40)\n      dup1\n      swap2\n      sub\n      swap1\n      keccak256\n        /* \"contracts/ha4-vaccine.sol\":3864:3876  _vaccineType */\n      dup5\n      dup5\n        /* \"contracts/ha4-vaccine.sol\":3848:3878  keccak256(bytes(_vaccineType)) */\n      mload(0x40)\n      tag_119\n      swap3\n      swap2\n      swap1\n      tag_120\n      jump\t// in\n    tag_119:\n      mload(0x40)\n      dup1\n      swap2\n      sub\n      swap1\n      keccak256\n        /* \"contracts/ha4-vaccine.sol\":3848:3914  keccak256(bytes(_vaccineType)) != keccak256(bytes(vaccineEnum[i])) */\n      eq\n      iszero\n        /* \"contracts/ha4-vaccine.sol\":3840:3939  require(keccak256(bytes(_vaccineType)) != keccak256(bytes(vaccineEnum[i])), \"existed vaccine type\") */\n      tag_121\n      jumpi\n      mload(0x40)\n      0x08c379a000000000000000000000000000000000000000000000000000000000\n      dup2\n      mstore\n      0x04\n      add\n      tag_122\n      swap1\n      tag_123\n      jump\t// in\n    tag_122:\n      mload(0x40)\n      dup1\n      swap2\n      sub\n      swap1\n      revert\n    tag_121:\n        /* \"contracts/ha4-vaccine.sol\":3820:3823  i++ */\n      dup1\n      dup1\n      tag_124\n      swap1\n      tag_125\n      jump\t// in\n    tag_124:\n      swap2\n      pop\n      pop\n        /* \"contracts/ha4-vaccine.sol\":3786:3951  for (uint8 i = 0; i < vaccineLen; i++) {\r... */\n      jump(tag_114)\n    tag_115:\n      pop\n        /* \"contracts/ha4-vaccine.sol\":3987:3999  _vaccineType */\n      dup3\n      dup3\n        /* \"contracts/ha4-vaccine.sol\":3961:3972  vaccineEnum */\n      0x03\n        /* \"contracts/ha4-vaccine.sol\":3961:3984  vaccineEnum[vaccineLen] */\n      0x00\n        /* \"contracts/ha4-vaccine.sol\":3973:3983  vaccineLen */\n      0x04\n      0x00\n      swap1\n      sload\n      swap1\n      0x0100\n      exp\n      swap1\n      div\n      0xff\n      and\n        /* \"contracts/ha4-vaccine.sol\":3961:3984  vaccineEnum[vaccineLen] */\n      0xff\n      and\n      0xff\n      and\n      dup2\n      mstore\n      0x20\n      add\n      swap1\n      dup2\n      mstore\n      0x20\n      add\n      0x00\n      keccak256\n        /* \"contracts/ha4-vaccine.sol\":3961:3999  vaccineEnum[vaccineLen] = _vaccineType */\n      swap2\n      swap1\n      tag_126\n      swap3\n      swap2\n      swap1\n      tag_77\n      jump\t// in\n    tag_126:\n      pop\n        /* \"contracts/ha4-vaccine.sol\":4010:4020  vaccineLen */\n      0x04\n      0x00\n        /* \"contracts/ha4-vaccine.sol\":4010:4022  vaccineLen++ */\n      dup2\n      dup2\n      swap1\n      sload\n      swap1\n      0x0100\n      exp\n      swap1\n      div\n      0xff\n      and\n      dup1\n      swap3\n      swap2\n      swap1\n      tag_127\n      swap1\n      tag_125\n      jump\t// in\n    tag_127:\n      swap2\n      swap1\n      0x0100\n      exp\n      dup2\n      sload\n      dup2\n      0xff\n      mul\n      not\n      and\n      swap1\n      dup4\n      0xff\n      and\n      mul\n      or\n      swap1\n      sstore\n      pop\n      pop\n        /* \"contracts/ha4-vaccine.sol\":4040:4044  true */\n      0x01\n        /* \"contracts/ha4-vaccine.sol\":4033:4044  return true */\n      swap1\n      pop\n        /* \"contracts/ha4-vaccine.sol\":3688:4052  function addVaccineType(string calldata _vaccineType) public onlyIssuer returns (bool) {\r... */\n      swap3\n      swap2\n      pop\n      pop\n      jump\t// out\n        /* \"contracts/ha4-vaccine.sol\":319:525  function transferOwnership(address _to) public onlyOwner {\r... */\n    tag_61:\n        /* \"contracts/ha4-vaccine.sol\":226:231  owner */\n      0x00\n      dup1\n      sload\n      swap1\n      0x0100\n      exp\n      swap1\n      div\n      0xffffffffffffffffffffffffffffffffffffffff\n      and\n        /* \"contracts/ha4-vaccine.sol\":212:231  msg.sender == owner */\n      0xffffffffffffffffffffffffffffffffffffffff\n      and\n        /* \"contracts/ha4-vaccine.sol\":212:222  msg.sender */\n      caller\n        /* \"contracts/ha4-vaccine.sol\":212:231  msg.sender == owner */\n      0xffffffffffffffffffffffffffffffffffffffff\n      and\n      eq\n        /* \"contracts/ha4-vaccine.sol\":204:232  require(msg.sender == owner) */\n      tag_129\n      jumpi\n      0x00\n      dup1\n      revert\n    tag_129:\n        /* \"contracts/ha4-vaccine.sol\":402:407  owner */\n      0x00\n      dup1\n      sload\n      swap1\n      0x0100\n      exp\n      swap1\n      div\n      0xffffffffffffffffffffffffffffffffffffffff\n      and\n        /* \"contracts/ha4-vaccine.sol\":395:407  _to != owner */\n      0xffffffffffffffffffffffffffffffffffffffff\n      and\n        /* \"contracts/ha4-vaccine.sol\":395:398  _to */\n      dup2\n        /* \"contracts/ha4-vaccine.sol\":395:407  _to != owner */\n      0xffffffffffffffffffffffffffffffffffffffff\n      and\n      eq\n      iszero\n        /* \"contracts/ha4-vaccine.sol\":387:408  require(_to != owner) */\n      tag_131\n      jumpi\n      0x00\n      dup1\n      revert\n    tag_131:\n        /* \"contracts/ha4-vaccine.sol\":442:445  0x0 */\n      0x00\n        /* \"contracts/ha4-vaccine.sol\":427:446  _to != address(0x0) */\n      0xffffffffffffffffffffffffffffffffffffffff\n      and\n        /* \"contracts/ha4-vaccine.sol\":427:430  _to */\n      dup2\n        /* \"contracts/ha4-vaccine.sol\":427:446  _to != address(0x0) */\n      0xffffffffffffffffffffffffffffffffffffffff\n      and\n      eq\n      iszero\n        /* \"contracts/ha4-vaccine.sol\":419:447  require(_to != address(0x0)) */\n      tag_132\n      jumpi\n      0x00\n      dup1\n      revert\n    tag_132:\n        /* \"contracts/ha4-vaccine.sol\":466:469  _to */\n      dup1\n        /* \"contracts/ha4-vaccine.sol\":458:463  owner */\n      0x00\n      dup1\n        /* \"contracts/ha4-vaccine.sol\":458:469  owner = _to */\n      0x0100\n      exp\n      dup2\n      sload\n      dup2\n      0xffffffffffffffffffffffffffffffffffffffff\n      mul\n      not\n      and\n      swap1\n      dup4\n      0xffffffffffffffffffffffffffffffffffffffff\n      and\n      mul\n      or\n      swap1\n      sstore\n      pop\n        /* \"contracts/ha4-vaccine.sol\":513:516  _to */\n      dup1\n        /* \"contracts/ha4-vaccine.sol\":485:517  OwnerTransferPropose(owner, _to) */\n      0xffffffffffffffffffffffffffffffffffffffff\n      and\n        /* \"contracts/ha4-vaccine.sol\":506:511  owner */\n      0x00\n      dup1\n      sload\n      swap1\n      0x0100\n      exp\n      swap1\n      div\n      0xffffffffffffffffffffffffffffffffffffffff\n      and\n        /* \"contracts/ha4-vaccine.sol\":485:517  OwnerTransferPropose(owner, _to) */\n      0xffffffffffffffffffffffffffffffffffffffff\n      and\n      0x2ae143016adc0aa482e6ba5d9a350f3e3122aeb005ca4bf47d1d7b8221bce472\n      mload(0x40)\n      mload(0x40)\n      dup1\n      swap2\n      sub\n      swap1\n      log3\n        /* \"contracts/ha4-vaccine.sol\":319:525  function transferOwnership(address _to) public onlyOwner {\r... */\n      pop\n      jump\t// out\n    tag_77:\n      dup3\n      dup1\n      sload\n      tag_133\n      swap1\n      tag_82\n      jump\t// in\n    tag_133:\n      swap1\n      0x00\n      mstore\n      keccak256(0x00, 0x20)\n      swap1\n      0x1f\n      add\n      0x20\n      swap1\n      div\n      dup2\n      add\n      swap3\n      dup3\n      tag_135\n      jumpi\n      0x00\n      dup6\n      sstore\n      jump(tag_134)\n    tag_135:\n      dup3\n      0x1f\n      lt\n      tag_136\n      jumpi\n      dup1\n      calldataload\n      not(0xff)\n      and\n      dup4\n      dup1\n      add\n      or\n      dup6\n      sstore\n      jump(tag_134)\n    tag_136:\n      dup3\n      dup1\n      add\n      0x01\n      add\n      dup6\n      sstore\n      dup3\n      iszero\n      tag_134\n      jumpi\n      swap2\n      dup3\n      add\n    tag_137:\n      dup3\n      dup2\n      gt\n      iszero\n      tag_138\n      jumpi\n      dup3\n      calldataload\n      dup3\n      sstore\n      swap2\n      0x20\n      add\n      swap2\n      swap1\n      0x01\n      add\n      swap1\n      jump(tag_137)\n    tag_138:\n    tag_134:\n      pop\n      swap1\n      pop\n      tag_139\n      swap2\n      swap1\n      tag_140\n      jump\t// in\n    tag_139:\n      pop\n      swap1\n      jump\t// out\n    tag_102:\n      mload(0x40)\n      dup1\n      0x80\n      add\n      0x40\n      mstore\n      dup1\n      and(0xffffffffffffffffffffffffffffffffffffffff, 0x00)\n      dup2\n      mstore\n      0x20\n      add\n      0x60\n      dup2\n      mstore\n      0x20\n      add\n      and(0xff, 0x00)\n      dup2\n      mstore\n      0x20\n      add\n      0x00\n      dup2\n      mstore\n      pop\n      swap1\n      jump\t// out\n    tag_140:\n    tag_141:\n      dup1\n      dup3\n      gt\n      iszero\n      tag_142\n      jumpi\n      0x00\n      dup2\n      0x00\n      swap1\n      sstore\n      pop\n      0x01\n      add\n      jump(tag_141)\n    tag_142:\n      pop\n      swap1\n      jump\t// out\n        /* \"#utility.yul\":7:146   */\n    tag_144:\n        /* \"#utility.yul\":53:58   */\n      0x00\n        /* \"#utility.yul\":91:97   */\n      dup2\n        /* \"#utility.yul\":78:98   */\n      calldataload\n        /* \"#utility.yul\":69:98   */\n      swap1\n      pop\n        /* \"#utility.yul\":107:140   */\n      tag_146\n        /* \"#utility.yul\":134:139   */\n      dup2\n        /* \"#utility.yul\":107:140   */\n      tag_147\n      jump\t// in\n    tag_146:\n        /* \"#utility.yul\":7:146   */\n      swap3\n      swap2\n      pop\n      pop\n      jump\t// out\n        /* \"#utility.yul\":166:719   */\n    tag_148:\n        /* \"#utility.yul\":224:232   */\n      0x00\n        /* \"#utility.yul\":234:240   */\n      dup1\n        /* \"#utility.yul\":284:287   */\n      dup4\n        /* \"#utility.yul\":277:281   */\n      0x1f\n        /* \"#utility.yul\":269:275   */\n      dup5\n        /* \"#utility.yul\":265:282   */\n      add\n        /* \"#utility.yul\":261:288   */\n      slt\n        /* \"#utility.yul\":251:373   */\n      tag_150\n      jumpi\n        /* \"#utility.yul\":292:371   */\n      tag_151\n      tag_152\n      jump\t// in\n    tag_151:\n        /* \"#utility.yul\":251:373   */\n    tag_150:\n        /* \"#utility.yul\":405:411   */\n      dup3\n        /* \"#utility.yul\":392:412   */\n      calldataload\n        /* \"#utility.yul\":382:412   */\n      swap1\n      pop\n        /* \"#utility.yul\":435:453   */\n      0xffffffffffffffff\n        /* \"#utility.yul\":427:433   */\n      dup2\n        /* \"#utility.yul\":424:454   */\n      gt\n        /* \"#utility.yul\":421:538   */\n      iszero\n      tag_153\n      jumpi\n        /* \"#utility.yul\":457:536   */\n      tag_154\n      tag_155\n      jump\t// in\n    tag_154:\n        /* \"#utility.yul\":421:538   */\n    tag_153:\n        /* \"#utility.yul\":571:575   */\n      0x20\n        /* \"#utility.yul\":563:569   */\n      dup4\n        /* \"#utility.yul\":559:576   */\n      add\n        /* \"#utility.yul\":547:576   */\n      swap2\n      pop\n        /* \"#utility.yul\":625:628   */\n      dup4\n        /* \"#utility.yul\":617:621   */\n      0x01\n        /* \"#utility.yul\":609:615   */\n      dup3\n        /* \"#utility.yul\":605:622   */\n      mul\n        /* \"#utility.yul\":595:603   */\n      dup4\n        /* \"#utility.yul\":591:623   */\n      add\n        /* \"#utility.yul\":588:629   */\n      gt\n        /* \"#utility.yul\":585:713   */\n      iszero\n      tag_156\n      jumpi\n        /* \"#utility.yul\":632:711   */\n      tag_157\n      tag_158\n      jump\t// in\n    tag_157:\n        /* \"#utility.yul\":585:713   */\n    tag_156:\n        /* \"#utility.yul\":166:719   */\n      swap3\n      pop\n      swap3\n      swap1\n      pop\n      jump\t// out\n        /* \"#utility.yul\":725:860   */\n    tag_159:\n        /* \"#utility.yul\":769:774   */\n      0x00\n        /* \"#utility.yul\":807:813   */\n      dup2\n        /* \"#utility.yul\":794:814   */\n      calldataload\n        /* \"#utility.yul\":785:814   */\n      swap1\n      pop\n        /* \"#utility.yul\":823:854   */\n      tag_161\n        /* \"#utility.yul\":848:853   */\n      dup2\n        /* \"#utility.yul\":823:854   */\n      tag_162\n      jump\t// in\n    tag_161:\n        /* \"#utility.yul\":725:860   */\n      swap3\n      swap2\n      pop\n      pop\n      jump\t// out\n        /* \"#utility.yul\":866:1195   */\n    tag_16:\n        /* \"#utility.yul\":925:931   */\n      0x00\n        /* \"#utility.yul\":974:976   */\n      0x20\n        /* \"#utility.yul\":962:971   */\n      dup3\n        /* \"#utility.yul\":953:960   */\n      dup5\n        /* \"#utility.yul\":949:972   */\n      sub\n        /* \"#utility.yul\":945:977   */\n      slt\n        /* \"#utility.yul\":942:1061   */\n      iszero\n      tag_164\n      jumpi\n        /* \"#utility.yul\":980:1059   */\n      tag_165\n      tag_166\n      jump\t// in\n    tag_165:\n        /* \"#utility.yul\":942:1061   */\n    tag_164:\n        /* \"#utility.yul\":1100:1101   */\n      0x00\n        /* \"#utility.yul\":1125:1178   */\n      tag_167\n        /* \"#utility.yul\":1170:1177   */\n      dup5\n        /* \"#utility.yul\":1161:1167   */\n      dup3\n        /* \"#utility.yul\":1150:1159   */\n      dup6\n        /* \"#utility.yul\":1146:1168   */\n      add\n        /* \"#utility.yul\":1125:1178   */\n      tag_144\n      jump\t// in\n    tag_167:\n        /* \"#utility.yul\":1115:1178   */\n      swap2\n      pop\n        /* \"#utility.yul\":1071:1188   */\n      pop\n        /* \"#utility.yul\":866:1195   */\n      swap3\n      swap2\n      pop\n      pop\n      jump\t// out\n        /* \"#utility.yul\":1201:1671   */\n    tag_50:\n        /* \"#utility.yul\":1267:1273   */\n      0x00\n        /* \"#utility.yul\":1275:1281   */\n      dup1\n        /* \"#utility.yul\":1324:1326   */\n      0x40\n        /* \"#utility.yul\":1312:1321   */\n      dup4\n        /* \"#utility.yul\":1303:1310   */\n      dup6\n        /* \"#utility.yul\":1299:1322   */\n      sub\n        /* \"#utility.yul\":1295:1327   */\n      slt\n        /* \"#utility.yul\":1292:1411   */\n      iszero\n      tag_169\n      jumpi\n        /* \"#utility.yul\":1330:1409   */\n      tag_170\n      tag_166\n      jump\t// in\n    tag_170:\n        /* \"#utility.yul\":1292:1411   */\n    tag_169:\n        /* \"#utility.yul\":1450:1451   */\n      0x00\n        /* \"#utility.yul\":1475:1528   */\n      tag_171\n        /* \"#utility.yul\":1520:1527   */\n      dup6\n        /* \"#utility.yul\":1511:1517   */\n      dup3\n        /* \"#utility.yul\":1500:1509   */\n      dup7\n        /* \"#utility.yul\":1496:1518   */\n      add\n        /* \"#utility.yul\":1475:1528   */\n      tag_144\n      jump\t// in\n    tag_171:\n        /* \"#utility.yul\":1465:1528   */\n      swap3\n      pop\n        /* \"#utility.yul\":1421:1538   */\n      pop\n        /* \"#utility.yul\":1577:1579   */\n      0x20\n        /* \"#utility.yul\":1603:1654   */\n      tag_172\n        /* \"#utility.yul\":1646:1653   */\n      dup6\n        /* \"#utility.yul\":1637:1643   */\n      dup3\n        /* \"#utility.yul\":1626:1635   */\n      dup7\n        /* \"#utility.yul\":1622:1644   */\n      add\n        /* \"#utility.yul\":1603:1654   */\n      tag_159\n      jump\t// in\n    tag_172:\n        /* \"#utility.yul\":1593:1654   */\n      swap2\n      pop\n        /* \"#utility.yul\":1548:1664   */\n      pop\n        /* \"#utility.yul\":1201:1671   */\n      swap3\n      pop\n      swap3\n      swap1\n      pop\n      jump\t// out\n        /* \"#utility.yul\":1677:2288   */\n    tag_41:\n        /* \"#utility.yul\":1750:1756   */\n      0x00\n        /* \"#utility.yul\":1758:1764   */\n      dup1\n        /* \"#utility.yul\":1766:1772   */\n      0x00\n        /* \"#utility.yul\":1815:1817   */\n      0x60\n        /* \"#utility.yul\":1803:1812   */\n      dup5\n        /* \"#utility.yul\":1794:1801   */\n      dup7\n        /* \"#utility.yul\":1790:1813   */\n      sub\n        /* \"#utility.yul\":1786:1818   */\n      slt\n        /* \"#utility.yul\":1783:1902   */\n      iszero\n      tag_174\n      jumpi\n        /* \"#utility.yul\":1821:1900   */\n      tag_175\n      tag_166\n      jump\t// in\n    tag_175:\n        /* \"#utility.yul\":1783:1902   */\n    tag_174:\n        /* \"#utility.yul\":1941:1942   */\n      0x00\n        /* \"#utility.yul\":1966:2019   */\n      tag_176\n        /* \"#utility.yul\":2011:2018   */\n      dup7\n        /* \"#utility.yul\":2002:2008   */\n      dup3\n        /* \"#utility.yul\":1991:2000   */\n      dup8\n        /* \"#utility.yul\":1987:2009   */\n      add\n        /* \"#utility.yul\":1966:2019   */\n      tag_144\n      jump\t// in\n    tag_176:\n        /* \"#utility.yul\":1956:2019   */\n      swap4\n      pop\n        /* \"#utility.yul\":1912:2029   */\n      pop\n        /* \"#utility.yul\":2068:2070   */\n      0x20\n        /* \"#utility.yul\":2094:2145   */\n      tag_177\n        /* \"#utility.yul\":2137:2144   */\n      dup7\n        /* \"#utility.yul\":2128:2134   */\n      dup3\n        /* \"#utility.yul\":2117:2126   */\n      dup8\n        /* \"#utility.yul\":2113:2135   */\n      add\n        /* \"#utility.yul\":2094:2145   */\n      tag_159\n      jump\t// in\n    tag_177:\n        /* \"#utility.yul\":2084:2145   */\n      swap3\n      pop\n        /* \"#utility.yul\":2039:2155   */\n      pop\n        /* \"#utility.yul\":2194:2196   */\n      0x40\n        /* \"#utility.yul\":2220:2271   */\n      tag_178\n        /* \"#utility.yul\":2263:2270   */\n      dup7\n        /* \"#utility.yul\":2254:2260   */\n      dup3\n        /* \"#utility.yul\":2243:2252   */\n      dup8\n        /* \"#utility.yul\":2239:2261   */\n      add\n        /* \"#utility.yul\":2220:2271   */\n      tag_159\n      jump\t// in\n    tag_178:\n        /* \"#utility.yul\":2210:2271   */\n      swap2\n      pop\n        /* \"#utility.yul\":2165:2281   */\n      pop\n        /* \"#utility.yul\":1677:2288   */\n      swap3\n      pop\n      swap3\n      pop\n      swap3\n      jump\t// out\n        /* \"#utility.yul\":2294:3251   */\n    tag_26:\n        /* \"#utility.yul\":2388:2394   */\n      0x00\n        /* \"#utility.yul\":2396:2402   */\n      dup1\n        /* \"#utility.yul\":2404:2410   */\n      0x00\n        /* \"#utility.yul\":2412:2418   */\n      dup1\n        /* \"#utility.yul\":2420:2426   */\n      0x00\n        /* \"#utility.yul\":2469:2472   */\n      0x80\n        /* \"#utility.yul\":2457:2466   */\n      dup7\n        /* \"#utility.yul\":2448:2455   */\n      dup9\n        /* \"#utility.yul\":2444:2467   */\n      sub\n        /* \"#utility.yul\":2440:2473   */\n      slt\n        /* \"#utility.yul\":2437:2557   */\n      iszero\n      tag_180\n      jumpi\n        /* \"#utility.yul\":2476:2555   */\n      tag_181\n      tag_166\n      jump\t// in\n    tag_181:\n        /* \"#utility.yul\":2437:2557   */\n    tag_180:\n        /* \"#utility.yul\":2596:2597   */\n      0x00\n        /* \"#utility.yul\":2621:2674   */\n      tag_182\n        /* \"#utility.yul\":2666:2673   */\n      dup9\n        /* \"#utility.yul\":2657:2663   */\n      dup3\n        /* \"#utility.yul\":2646:2655   */\n      dup10\n        /* \"#utility.yul\":2642:2664   */\n      add\n        /* \"#utility.yul\":2621:2674   */\n      tag_144\n      jump\t// in\n    tag_182:\n        /* \"#utility.yul\":2611:2674   */\n      swap6\n      pop\n        /* \"#utility.yul\":2567:2684   */\n      pop\n        /* \"#utility.yul\":2723:2725   */\n      0x20\n        /* \"#utility.yul\":2749:2800   */\n      tag_183\n        /* \"#utility.yul\":2792:2799   */\n      dup9\n        /* \"#utility.yul\":2783:2789   */\n      dup3\n        /* \"#utility.yul\":2772:2781   */\n      dup10\n        /* \"#utility.yul\":2768:2790   */\n      add\n        /* \"#utility.yul\":2749:2800   */\n      tag_159\n      jump\t// in\n    tag_183:\n        /* \"#utility.yul\":2739:2800   */\n      swap5\n      pop\n        /* \"#utility.yul\":2694:2810   */\n      pop\n        /* \"#utility.yul\":2849:2851   */\n      0x40\n        /* \"#utility.yul\":2875:2926   */\n      tag_184\n        /* \"#utility.yul\":2918:2925   */\n      dup9\n        /* \"#utility.yul\":2909:2915   */\n      dup3\n        /* \"#utility.yul\":2898:2907   */\n      dup10\n        /* \"#utility.yul\":2894:2916   */\n      add\n        /* \"#utility.yul\":2875:2926   */\n      tag_159\n      jump\t// in\n    tag_184:\n        /* \"#utility.yul\":2865:2926   */\n      swap4\n      pop\n        /* \"#utility.yul\":2820:2936   */\n      pop\n        /* \"#utility.yul\":3003:3005   */\n      0x60\n        /* \"#utility.yul\":2992:3001   */\n      dup7\n        /* \"#utility.yul\":2988:3006   */\n      add\n        /* \"#utility.yul\":2975:3007   */\n      calldataload\n        /* \"#utility.yul\":3034:3052   */\n      0xffffffffffffffff\n        /* \"#utility.yul\":3026:3032   */\n      dup2\n        /* \"#utility.yul\":3023:3053   */\n      gt\n        /* \"#utility.yul\":3020:3137   */\n      iszero\n      tag_185\n      jumpi\n        /* \"#utility.yul\":3056:3135   */\n      tag_186\n      tag_187\n      jump\t// in\n    tag_186:\n        /* \"#utility.yul\":3020:3137   */\n    tag_185:\n        /* \"#utility.yul\":3169:3234   */\n      tag_188\n        /* \"#utility.yul\":3226:3233   */\n      dup9\n        /* \"#utility.yul\":3217:3223   */\n      dup3\n        /* \"#utility.yul\":3206:3215   */\n      dup10\n        /* \"#utility.yul\":3202:3224   */\n      add\n        /* \"#utility.yul\":3169:3234   */\n      tag_148\n      jump\t// in\n    tag_188:\n        /* \"#utility.yul\":3151:3234   */\n      swap3\n      pop\n      swap3\n      pop\n        /* \"#utility.yul\":2946:3244   */\n      pop\n        /* \"#utility.yul\":2294:3251   */\n      swap3\n      swap6\n      pop\n      swap3\n      swap6\n      swap1\n      swap4\n      pop\n      jump\t// out\n        /* \"#utility.yul\":3257:3786   */\n    tag_56:\n        /* \"#utility.yul\":3328:3334   */\n      0x00\n        /* \"#utility.yul\":3336:3342   */\n      dup1\n        /* \"#utility.yul\":3385:3387   */\n      0x20\n        /* \"#utility.yul\":3373:3382   */\n      dup4\n        /* \"#utility.yul\":3364:3371   */\n      dup6\n        /* \"#utility.yul\":3360:3383   */\n      sub\n        /* \"#utility.yul\":3356:3388   */\n      slt\n        /* \"#utility.yul\":3353:3472   */\n      iszero\n      tag_190\n      jumpi\n        /* \"#utility.yul\":3391:3470   */\n      tag_191\n      tag_166\n      jump\t// in\n    tag_191:\n        /* \"#utility.yul\":3353:3472   */\n    tag_190:\n        /* \"#utility.yul\":3539:3540   */\n      0x00\n        /* \"#utility.yul\":3528:3537   */\n      dup4\n        /* \"#utility.yul\":3524:3541   */\n      add\n        /* \"#utility.yul\":3511:3542   */\n      calldataload\n        /* \"#utility.yul\":3569:3587   */\n      0xffffffffffffffff\n        /* \"#utility.yul\":3561:3567   */\n      dup2\n        /* \"#utility.yul\":3558:3588   */\n      gt\n        /* \"#utility.yul\":3555:3672   */\n      iszero\n      tag_192\n      jumpi\n        /* \"#utility.yul\":3591:3670   */\n      tag_193\n      tag_187\n      jump\t// in\n    tag_193:\n        /* \"#utility.yul\":3555:3672   */\n    tag_192:\n        /* \"#utility.yul\":3704:3769   */\n      tag_194\n        /* \"#utility.yul\":3761:3768   */\n      dup6\n        /* \"#utility.yul\":3752:3758   */\n      dup3\n        /* \"#utility.yul\":3741:3750   */\n      dup7\n        /* \"#utility.yul\":3737:3759   */\n      add\n        /* \"#utility.yul\":3704:3769   */\n      tag_148\n      jump\t// in\n    tag_194:\n        /* \"#utility.yul\":3686:3769   */\n      swap3\n      pop\n      swap3\n      pop\n        /* \"#utility.yul\":3482:3779   */\n      pop\n        /* \"#utility.yul\":3257:3786   */\n      swap3\n      pop\n      swap3\n      swap1\n      pop\n      jump\t// out\n        /* \"#utility.yul\":3792:4117   */\n    tag_35:\n        /* \"#utility.yul\":3849:3855   */\n      0x00\n        /* \"#utility.yul\":3898:3900   */\n      0x20\n        /* \"#utility.yul\":3886:3895   */\n      dup3\n        /* \"#utility.yul\":3877:3884   */\n      dup5\n        /* \"#utility.yul\":3873:3896   */\n      sub\n        /* \"#utility.yul\":3869:3901   */\n      slt\n        /* \"#utility.yul\":3866:3985   */\n      iszero\n      tag_196\n      jumpi\n        /* \"#utility.yul\":3904:3983   */\n      tag_197\n      tag_166\n      jump\t// in\n    tag_197:\n        /* \"#utility.yul\":3866:3985   */\n    tag_196:\n        /* \"#utility.yul\":4024:4025   */\n      0x00\n        /* \"#utility.yul\":4049:4100   */\n      tag_198\n        /* \"#utility.yul\":4092:4099   */\n      dup5\n        /* \"#utility.yul\":4083:4089   */\n      dup3\n        /* \"#utility.yul\":4072:4081   */\n      dup6\n        /* \"#utility.yul\":4068:4090   */\n      add\n        /* \"#utility.yul\":4049:4100   */\n      tag_159\n      jump\t// in\n    tag_198:\n        /* \"#utility.yul\":4039:4100   */\n      swap2\n      pop\n        /* \"#utility.yul\":3995:4110   */\n      pop\n        /* \"#utility.yul\":3792:4117   */\n      swap3\n      swap2\n      pop\n      pop\n      jump\t// out\n        /* \"#utility.yul\":4123:4231   */\n    tag_199:\n        /* \"#utility.yul\":4200:4224   */\n      tag_201\n        /* \"#utility.yul\":4218:4223   */\n      dup2\n        /* \"#utility.yul\":4200:4224   */\n      tag_202\n      jump\t// in\n    tag_201:\n        /* \"#utility.yul\":4195:4198   */\n      dup3\n        /* \"#utility.yul\":4188:4225   */\n      mstore\n        /* \"#utility.yul\":4123:4231   */\n      pop\n      pop\n      jump\t// out\n        /* \"#utility.yul\":4237:4346   */\n    tag_203:\n        /* \"#utility.yul\":4318:4339   */\n      tag_205\n        /* \"#utility.yul\":4333:4338   */\n      dup2\n        /* \"#utility.yul\":4318:4339   */\n      tag_206\n      jump\t// in\n    tag_205:\n        /* \"#utility.yul\":4313:4316   */\n      dup3\n        /* \"#utility.yul\":4306:4340   */\n      mstore\n        /* \"#utility.yul\":4237:4346   */\n      pop\n      pop\n      jump\t// out\n        /* \"#utility.yul\":4374:4688   */\n    tag_207:\n        /* \"#utility.yul\":4488:4491   */\n      0x00\n        /* \"#utility.yul\":4509:4597   */\n      tag_209\n        /* \"#utility.yul\":4590:4596   */\n      dup4\n        /* \"#utility.yul\":4585:4588   */\n      dup6\n        /* \"#utility.yul\":4509:4597   */\n      tag_210\n      jump\t// in\n    tag_209:\n        /* \"#utility.yul\":4502:4597   */\n      swap4\n      pop\n        /* \"#utility.yul\":4607:4650   */\n      tag_211\n        /* \"#utility.yul\":4643:4649   */\n      dup4\n        /* \"#utility.yul\":4638:4641   */\n      dup6\n        /* \"#utility.yul\":4631:4636   */\n      dup5\n        /* \"#utility.yul\":4607:4650   */\n      tag_212\n      jump\t// in\n    tag_211:\n        /* \"#utility.yul\":4675:4681   */\n      dup3\n        /* \"#utility.yul\":4670:4673   */\n      dup5\n        /* \"#utility.yul\":4666:4682   */\n      add\n        /* \"#utility.yul\":4659:4682   */\n      swap1\n      pop\n        /* \"#utility.yul\":4374:4688   */\n      swap4\n      swap3\n      pop\n      pop\n      pop\n      jump\t// out\n        /* \"#utility.yul\":4716:5565   */\n    tag_213:\n        /* \"#utility.yul\":4821:4824   */\n      0x00\n        /* \"#utility.yul\":4858:4863   */\n      dup2\n        /* \"#utility.yul\":4852:4864   */\n      sload\n        /* \"#utility.yul\":4887:4923   */\n      tag_215\n        /* \"#utility.yul\":4913:4922   */\n      dup2\n        /* \"#utility.yul\":4887:4923   */\n      tag_82\n      jump\t// in\n    tag_215:\n        /* \"#utility.yul\":4939:5027   */\n      tag_216\n        /* \"#utility.yul\":5020:5026   */\n      dup2\n        /* \"#utility.yul\":5015:5018   */\n      dup7\n        /* \"#utility.yul\":4939:5027   */\n      tag_210\n      jump\t// in\n    tag_216:\n        /* \"#utility.yul\":4932:5027   */\n      swap5\n      pop\n        /* \"#utility.yul\":5058:5059   */\n      0x01\n        /* \"#utility.yul\":5047:5056   */\n      dup3\n        /* \"#utility.yul\":5043:5060   */\n      and\n        /* \"#utility.yul\":5074:5075   */\n      0x00\n        /* \"#utility.yul\":5069:5206   */\n      dup2\n      eq\n      tag_218\n      jumpi\n        /* \"#utility.yul\":5220:5221   */\n      0x01\n        /* \"#utility.yul\":5215:5559   */\n      dup2\n      eq\n      tag_219\n      jumpi\n        /* \"#utility.yul\":5036:5559   */\n      jump(tag_217)\n        /* \"#utility.yul\":5069:5206   */\n    tag_218:\n        /* \"#utility.yul\":5153:5157   */\n      0xff\n        /* \"#utility.yul\":5149:5158   */\n      not\n        /* \"#utility.yul\":5138:5147   */\n      dup4\n        /* \"#utility.yul\":5134:5159   */\n      and\n        /* \"#utility.yul\":5129:5132   */\n      dup7\n        /* \"#utility.yul\":5122:5160   */\n      mstore\n        /* \"#utility.yul\":5189:5195   */\n      dup2\n        /* \"#utility.yul\":5184:5187   */\n      dup7\n        /* \"#utility.yul\":5180:5196   */\n      add\n        /* \"#utility.yul\":5173:5196   */\n      swap4\n      pop\n        /* \"#utility.yul\":5069:5206   */\n      jump(tag_217)\n        /* \"#utility.yul\":5215:5559   */\n    tag_219:\n        /* \"#utility.yul\":5282:5323   */\n      tag_220\n        /* \"#utility.yul\":5317:5322   */\n      dup6\n        /* \"#utility.yul\":5282:5323   */\n      tag_221\n      jump\t// in\n    tag_220:\n        /* \"#utility.yul\":5345:5346   */\n      0x00\n        /* \"#utility.yul\":5359:5513   */\n    tag_222:\n        /* \"#utility.yul\":5373:5379   */\n      dup4\n        /* \"#utility.yul\":5370:5371   */\n      dup2\n        /* \"#utility.yul\":5367:5380   */\n      lt\n        /* \"#utility.yul\":5359:5513   */\n      iszero\n      tag_224\n      jumpi\n        /* \"#utility.yul\":5447:5454   */\n      dup2\n        /* \"#utility.yul\":5441:5455   */\n      sload\n        /* \"#utility.yul\":5437:5438   */\n      dup2\n        /* \"#utility.yul\":5432:5435   */\n      dup10\n        /* \"#utility.yul\":5428:5439   */\n      add\n        /* \"#utility.yul\":5421:5456   */\n      mstore\n        /* \"#utility.yul\":5497:5498   */\n      0x01\n        /* \"#utility.yul\":5488:5495   */\n      dup3\n        /* \"#utility.yul\":5484:5499   */\n      add\n        /* \"#utility.yul\":5473:5499   */\n      swap2\n      pop\n        /* \"#utility.yul\":5395:5399   */\n      0x20\n        /* \"#utility.yul\":5392:5393   */\n      dup2\n        /* \"#utility.yul\":5388:5400   */\n      add\n        /* \"#utility.yul\":5383:5400   */\n      swap1\n      pop\n        /* \"#utility.yul\":5359:5513   */\n      jump(tag_222)\n    tag_224:\n        /* \"#utility.yul\":5542:5548   */\n      dup4\n        /* \"#utility.yul\":5537:5540   */\n      dup9\n        /* \"#utility.yul\":5533:5549   */\n      add\n        /* \"#utility.yul\":5526:5549   */\n      swap6\n      pop\n        /* \"#utility.yul\":5222:5559   */\n      pop\n      pop\n        /* \"#utility.yul\":5036:5559   */\n    tag_217:\n      pop\n        /* \"#utility.yul\":4825:5565   */\n      pop\n      pop\n        /* \"#utility.yul\":4716:5565   */\n      swap3\n      swap2\n      pop\n      pop\n      jump\t// out\n        /* \"#utility.yul\":5571:5915   */\n    tag_225:\n        /* \"#utility.yul\":5649:5652   */\n      0x00\n        /* \"#utility.yul\":5677:5716   */\n      tag_227\n        /* \"#utility.yul\":5710:5715   */\n      dup3\n        /* \"#utility.yul\":5677:5716   */\n      tag_228\n      jump\t// in\n    tag_227:\n        /* \"#utility.yul\":5732:5793   */\n      tag_229\n        /* \"#utility.yul\":5786:5792   */\n      dup2\n        /* \"#utility.yul\":5781:5784   */\n      dup6\n        /* \"#utility.yul\":5732:5793   */\n      tag_230\n      jump\t// in\n    tag_229:\n        /* \"#utility.yul\":5725:5793   */\n      swap4\n      pop\n        /* \"#utility.yul\":5802:5854   */\n      tag_231\n        /* \"#utility.yul\":5847:5853   */\n      dup2\n        /* \"#utility.yul\":5842:5845   */\n      dup6\n        /* \"#utility.yul\":5835:5839   */\n      0x20\n        /* \"#utility.yul\":5828:5833   */\n      dup7\n        /* \"#utility.yul\":5824:5840   */\n      add\n        /* \"#utility.yul\":5802:5854   */\n      tag_232\n      jump\t// in\n    tag_231:\n        /* \"#utility.yul\":5879:5908   */\n      tag_233\n        /* \"#utility.yul\":5901:5907   */\n      dup2\n        /* \"#utility.yul\":5879:5908   */\n      tag_234\n      jump\t// in\n    tag_233:\n        /* \"#utility.yul\":5874:5877   */\n      dup5\n        /* \"#utility.yul\":5870:5909   */\n      add\n        /* \"#utility.yul\":5863:5909   */\n      swap2\n      pop\n        /* \"#utility.yul\":5653:5915   */\n      pop\n        /* \"#utility.yul\":5571:5915   */\n      swap3\n      swap2\n      pop\n      pop\n      jump\t// out\n        /* \"#utility.yul\":5921:6285   */\n    tag_235:\n        /* \"#utility.yul\":6009:6012   */\n      0x00\n        /* \"#utility.yul\":6037:6076   */\n      tag_237\n        /* \"#utility.yul\":6070:6075   */\n      dup3\n        /* \"#utility.yul\":6037:6076   */\n      tag_228\n      jump\t// in\n    tag_237:\n        /* \"#utility.yul\":6092:6163   */\n      tag_238\n        /* \"#utility.yul\":6156:6162   */\n      dup2\n        /* \"#utility.yul\":6151:6154   */\n      dup6\n        /* \"#utility.yul\":6092:6163   */\n      tag_239\n      jump\t// in\n    tag_238:\n        /* \"#utility.yul\":6085:6163   */\n      swap4\n      pop\n        /* \"#utility.yul\":6172:6224   */\n      tag_240\n        /* \"#utility.yul\":6217:6223   */\n      dup2\n        /* \"#utility.yul\":6212:6215   */\n      dup6\n        /* \"#utility.yul\":6205:6209   */\n      0x20\n        /* \"#utility.yul\":6198:6203   */\n      dup7\n        /* \"#utility.yul\":6194:6210   */\n      add\n        /* \"#utility.yul\":6172:6224   */\n      tag_232\n      jump\t// in\n    tag_240:\n        /* \"#utility.yul\":6249:6278   */\n      tag_241\n        /* \"#utility.yul\":6271:6277   */\n      dup2\n        /* \"#utility.yul\":6249:6278   */\n      tag_234\n      jump\t// in\n    tag_241:\n        /* \"#utility.yul\":6244:6247   */\n      dup5\n        /* \"#utility.yul\":6240:6279   */\n      add\n        /* \"#utility.yul\":6233:6279   */\n      swap2\n      pop\n        /* \"#utility.yul\":6013:6285   */\n      pop\n        /* \"#utility.yul\":5921:6285   */\n      swap3\n      swap2\n      pop\n      pop\n      jump\t// out\n        /* \"#utility.yul\":6291:6657   */\n    tag_242:\n        /* \"#utility.yul\":6433:6436   */\n      0x00\n        /* \"#utility.yul\":6454:6521   */\n      tag_244\n        /* \"#utility.yul\":6518:6520   */\n      0x16\n        /* \"#utility.yul\":6513:6516   */\n      dup4\n        /* \"#utility.yul\":6454:6521   */\n      tag_239\n      jump\t// in\n    tag_244:\n        /* \"#utility.yul\":6447:6521   */\n      swap2\n      pop\n        /* \"#utility.yul\":6530:6623   */\n      tag_245\n        /* \"#utility.yul\":6619:6622   */\n      dup3\n        /* \"#utility.yul\":6530:6623   */\n      tag_246\n      jump\t// in\n    tag_245:\n        /* \"#utility.yul\":6648:6650   */\n      0x20\n        /* \"#utility.yul\":6643:6646   */\n      dup3\n        /* \"#utility.yul\":6639:6651   */\n      add\n        /* \"#utility.yul\":6632:6651   */\n      swap1\n      pop\n        /* \"#utility.yul\":6291:6657   */\n      swap2\n      swap1\n      pop\n      jump\t// out\n        /* \"#utility.yul\":6663:7029   */\n    tag_247:\n        /* \"#utility.yul\":6805:6808   */\n      0x00\n        /* \"#utility.yul\":6826:6893   */\n      tag_249\n        /* \"#utility.yul\":6890:6892   */\n      0x0c\n        /* \"#utility.yul\":6885:6888   */\n      dup4\n        /* \"#utility.yul\":6826:6893   */\n      tag_239\n      jump\t// in\n    tag_249:\n        /* \"#utility.yul\":6819:6893   */\n      swap2\n      pop\n        /* \"#utility.yul\":6902:6995   */\n      tag_250\n        /* \"#utility.yul\":6991:6994   */\n      dup3\n        /* \"#utility.yul\":6902:6995   */\n      tag_251\n      jump\t// in\n    tag_250:\n        /* \"#utility.yul\":7020:7022   */\n      0x20\n        /* \"#utility.yul\":7015:7018   */\n      dup3\n        /* \"#utility.yul\":7011:7023   */\n      add\n        /* \"#utility.yul\":7004:7023   */\n      swap1\n      pop\n        /* \"#utility.yul\":6663:7029   */\n      swap2\n      swap1\n      pop\n      jump\t// out\n        /* \"#utility.yul\":7035:7401   */\n    tag_252:\n        /* \"#utility.yul\":7177:7180   */\n      0x00\n        /* \"#utility.yul\":7198:7265   */\n      tag_254\n        /* \"#utility.yul\":7262:7264   */\n      0x16\n        /* \"#utility.yul\":7257:7260   */\n      dup4\n        /* \"#utility.yul\":7198:7265   */\n      tag_239\n      jump\t// in\n    tag_254:\n        /* \"#utility.yul\":7191:7265   */\n      swap2\n      pop\n        /* \"#utility.yul\":7274:7367   */\n      tag_255\n        /* \"#utility.yul\":7363:7366   */\n      dup3\n        /* \"#utility.yul\":7274:7367   */\n      tag_256\n      jump\t// in\n    tag_255:\n        /* \"#utility.yul\":7392:7394   */\n      0x20\n        /* \"#utility.yul\":7387:7390   */\n      dup3\n        /* \"#utility.yul\":7383:7395   */\n      add\n        /* \"#utility.yul\":7376:7395   */\n      swap1\n      pop\n        /* \"#utility.yul\":7035:7401   */\n      swap2\n      swap1\n      pop\n      jump\t// out\n        /* \"#utility.yul\":7407:7773   */\n    tag_257:\n        /* \"#utility.yul\":7549:7552   */\n      0x00\n        /* \"#utility.yul\":7570:7637   */\n      tag_259\n        /* \"#utility.yul\":7634:7636   */\n      0x14\n        /* \"#utility.yul\":7629:7632   */\n      dup4\n        /* \"#utility.yul\":7570:7637   */\n      tag_239\n      jump\t// in\n    tag_259:\n        /* \"#utility.yul\":7563:7637   */\n      swap2\n      pop\n        /* \"#utility.yul\":7646:7739   */\n      tag_260\n        /* \"#utility.yul\":7735:7738   */\n      dup3\n        /* \"#utility.yul\":7646:7739   */\n      tag_261\n      jump\t// in\n    tag_260:\n        /* \"#utility.yul\":7764:7766   */\n      0x20\n        /* \"#utility.yul\":7759:7762   */\n      dup3\n        /* \"#utility.yul\":7755:7767   */\n      add\n        /* \"#utility.yul\":7748:7767   */\n      swap1\n      pop\n        /* \"#utility.yul\":7407:7773   */\n      swap2\n      swap1\n      pop\n      jump\t// out\n        /* \"#utility.yul\":7857:8845   */\n    tag_262:\n        /* \"#utility.yul\":7984:7987   */\n      0x00\n        /* \"#utility.yul\":8020:8024   */\n      0x80\n        /* \"#utility.yul\":8015:8018   */\n      dup4\n        /* \"#utility.yul\":8011:8025   */\n      add\n        /* \"#utility.yul\":8117:8121   */\n      0x00\n        /* \"#utility.yul\":8110:8115   */\n      dup4\n        /* \"#utility.yul\":8106:8122   */\n      add\n        /* \"#utility.yul\":8100:8123   */\n      mload\n        /* \"#utility.yul\":8136:8199   */\n      tag_264\n        /* \"#utility.yul\":8193:8197   */\n      0x00\n        /* \"#utility.yul\":8188:8191   */\n      dup7\n        /* \"#utility.yul\":8184:8198   */\n      add\n        /* \"#utility.yul\":8170:8182   */\n      dup3\n        /* \"#utility.yul\":8136:8199   */\n      tag_199\n      jump\t// in\n    tag_264:\n        /* \"#utility.yul\":8035:8209   */\n      pop\n        /* \"#utility.yul\":8298:8302   */\n      0x20\n        /* \"#utility.yul\":8291:8296   */\n      dup4\n        /* \"#utility.yul\":8287:8303   */\n      add\n        /* \"#utility.yul\":8281:8304   */\n      mload\n        /* \"#utility.yul\":8351:8354   */\n      dup5\n        /* \"#utility.yul\":8345:8349   */\n      dup3\n        /* \"#utility.yul\":8341:8355   */\n      sub\n        /* \"#utility.yul\":8334:8338   */\n      0x20\n        /* \"#utility.yul\":8329:8332   */\n      dup7\n        /* \"#utility.yul\":8325:8339   */\n      add\n        /* \"#utility.yul\":8318:8356   */\n      mstore\n        /* \"#utility.yul\":8377:8450   */\n      tag_265\n        /* \"#utility.yul\":8445:8449   */\n      dup3\n        /* \"#utility.yul\":8431:8443   */\n      dup3\n        /* \"#utility.yul\":8377:8450   */\n      tag_225\n      jump\t// in\n    tag_265:\n        /* \"#utility.yul\":8369:8450   */\n      swap2\n      pop\n        /* \"#utility.yul\":8219:8461   */\n      pop\n        /* \"#utility.yul\":8549:8553   */\n      0x40\n        /* \"#utility.yul\":8542:8547   */\n      dup4\n        /* \"#utility.yul\":8538:8554   */\n      add\n        /* \"#utility.yul\":8532:8555   */\n      mload\n        /* \"#utility.yul\":8568:8627   */\n      tag_266\n        /* \"#utility.yul\":8621:8625   */\n      0x40\n        /* \"#utility.yul\":8616:8619   */\n      dup7\n        /* \"#utility.yul\":8612:8626   */\n      add\n        /* \"#utility.yul\":8598:8610   */\n      dup3\n        /* \"#utility.yul\":8568:8627   */\n      tag_267\n      jump\t// in\n    tag_266:\n        /* \"#utility.yul\":8471:8637   */\n      pop\n        /* \"#utility.yul\":8726:8730   */\n      0x60\n        /* \"#utility.yul\":8719:8724   */\n      dup4\n        /* \"#utility.yul\":8715:8731   */\n      add\n        /* \"#utility.yul\":8709:8732   */\n      mload\n        /* \"#utility.yul\":8745:8808   */\n      tag_268\n        /* \"#utility.yul\":8802:8806   */\n      0x60\n        /* \"#utility.yul\":8797:8800   */\n      dup7\n        /* \"#utility.yul\":8793:8807   */\n      add\n        /* \"#utility.yul\":8779:8791   */\n      dup3\n        /* \"#utility.yul\":8745:8808   */\n      tag_269\n      jump\t// in\n    tag_268:\n        /* \"#utility.yul\":8647:8818   */\n      pop\n        /* \"#utility.yul\":8835:8839   */\n      dup1\n        /* \"#utility.yul\":8828:8839   */\n      swap2\n      pop\n        /* \"#utility.yul\":7989:8845   */\n      pop\n        /* \"#utility.yul\":7857:8845   */\n      swap3\n      swap2\n      pop\n      pop\n      jump\t// out\n        /* \"#utility.yul\":8851:8959   */\n    tag_269:\n        /* \"#utility.yul\":8928:8952   */\n      tag_271\n        /* \"#utility.yul\":8946:8951   */\n      dup2\n        /* \"#utility.yul\":8928:8952   */\n      tag_272\n      jump\t// in\n    tag_271:\n        /* \"#utility.yul\":8923:8926   */\n      dup3\n        /* \"#utility.yul\":8916:8953   */\n      mstore\n        /* \"#utility.yul\":8851:8959   */\n      pop\n      pop\n      jump\t// out\n        /* \"#utility.yul\":8965:9067   */\n    tag_267:\n        /* \"#utility.yul\":9038:9060   */\n      tag_274\n        /* \"#utility.yul\":9054:9059   */\n      dup2\n        /* \"#utility.yul\":9038:9060   */\n      tag_275\n      jump\t// in\n    tag_274:\n        /* \"#utility.yul\":9033:9036   */\n      dup3\n        /* \"#utility.yul\":9026:9061   */\n      mstore\n        /* \"#utility.yul\":8965:9067   */\n      pop\n      pop\n      jump\t// out\n        /* \"#utility.yul\":9073:9364   */\n    tag_120:\n        /* \"#utility.yul\":9213:9216   */\n      0x00\n        /* \"#utility.yul\":9235:9338   */\n      tag_277\n        /* \"#utility.yul\":9334:9337   */\n      dup3\n        /* \"#utility.yul\":9325:9331   */\n      dup5\n        /* \"#utility.yul\":9317:9323   */\n      dup7\n        /* \"#utility.yul\":9235:9338   */\n      tag_207\n      jump\t// in\n    tag_277:\n        /* \"#utility.yul\":9228:9338   */\n      swap2\n      pop\n        /* \"#utility.yul\":9355:9358   */\n      dup2\n        /* \"#utility.yul\":9348:9358   */\n      swap1\n      pop\n        /* \"#utility.yul\":9073:9364   */\n      swap4\n      swap3\n      pop\n      pop\n      pop\n      jump\t// out\n        /* \"#utility.yul\":9370:9643   */\n    tag_118:\n        /* \"#utility.yul\":9501:9504   */\n      0x00\n        /* \"#utility.yul\":9523:9617   */\n      tag_279\n        /* \"#utility.yul\":9613:9616   */\n      dup3\n        /* \"#utility.yul\":9604:9610   */\n      dup5\n        /* \"#utility.yul\":9523:9617   */\n      tag_213\n      jump\t// in\n    tag_279:\n        /* \"#utility.yul\":9516:9617   */\n      swap2\n      pop\n        /* \"#utility.yul\":9634:9637   */\n      dup2\n        /* \"#utility.yul\":9627:9637   */\n      swap1\n      pop\n        /* \"#utility.yul\":9370:9643   */\n      swap3\n      swap2\n      pop\n      pop\n      jump\t// out\n        /* \"#utility.yul\":9649:9859   */\n    tag_19:\n        /* \"#utility.yul\":9736:9740   */\n      0x00\n        /* \"#utility.yul\":9774:9776   */\n      0x20\n        /* \"#utility.yul\":9763:9772   */\n      dup3\n        /* \"#utility.yul\":9759:9777   */\n      add\n        /* \"#utility.yul\":9751:9777   */\n      swap1\n      pop\n        /* \"#utility.yul\":9787:9852   */\n      tag_281\n        /* \"#utility.yul\":9849:9850   */\n      0x00\n        /* \"#utility.yul\":9838:9847   */\n      dup4\n        /* \"#utility.yul\":9834:9851   */\n      add\n        /* \"#utility.yul\":9825:9831   */\n      dup5\n        /* \"#utility.yul\":9787:9852   */\n      tag_203\n      jump\t// in\n    tag_281:\n        /* \"#utility.yul\":9649:9859   */\n      swap3\n      swap2\n      pop\n      pop\n      jump\t// out\n        /* \"#utility.yul\":9865:10178   */\n    tag_38:\n        /* \"#utility.yul\":9978:9982   */\n      0x00\n        /* \"#utility.yul\":10016:10018   */\n      0x20\n        /* \"#utility.yul\":10005:10014   */\n      dup3\n        /* \"#utility.yul\":10001:10019   */\n      add\n        /* \"#utility.yul\":9993:10019   */\n      swap1\n      pop\n        /* \"#utility.yul\":10065:10074   */\n      dup2\n        /* \"#utility.yul\":10059:10063   */\n      dup2\n        /* \"#utility.yul\":10055:10075   */\n      sub\n        /* \"#utility.yul\":10051:10052   */\n      0x00\n        /* \"#utility.yul\":10040:10049   */\n      dup4\n        /* \"#utility.yul\":10036:10053   */\n      add\n        /* \"#utility.yul\":10029:10076   */\n      mstore\n        /* \"#utility.yul\":10093:10171   */\n      tag_283\n        /* \"#utility.yul\":10166:10170   */\n      dup2\n        /* \"#utility.yul\":10157:10163   */\n      dup5\n        /* \"#utility.yul\":10093:10171   */\n      tag_235\n      jump\t// in\n    tag_283:\n        /* \"#utility.yul\":10085:10171   */\n      swap1\n      pop\n        /* \"#utility.yul\":9865:10178   */\n      swap3\n      swap2\n      pop\n      pop\n      jump\t// out\n        /* \"#utility.yul\":10184:10603   */\n    tag_97:\n        /* \"#utility.yul\":10350:10354   */\n      0x00\n        /* \"#utility.yul\":10388:10390   */\n      0x20\n        /* \"#utility.yul\":10377:10386   */\n      dup3\n        /* \"#utility.yul\":10373:10391   */\n      add\n        /* \"#utility.yul\":10365:10391   */\n      swap1\n      pop\n        /* \"#utility.yul\":10437:10446   */\n      dup2\n        /* \"#utility.yul\":10431:10435   */\n      dup2\n        /* \"#utility.yul\":10427:10447   */\n      sub\n        /* \"#utility.yul\":10423:10424   */\n      0x00\n        /* \"#utility.yul\":10412:10421   */\n      dup4\n        /* \"#utility.yul\":10408:10425   */\n      add\n        /* \"#utility.yul\":10401:10448   */\n      mstore\n        /* \"#utility.yul\":10465:10596   */\n      tag_285\n        /* \"#utility.yul\":10591:10595   */\n      dup2\n        /* \"#utility.yul\":10465:10596   */\n      tag_242\n      jump\t// in\n    tag_285:\n        /* \"#utility.yul\":10457:10596   */\n      swap1\n      pop\n        /* \"#utility.yul\":10184:10603   */\n      swap2\n      swap1\n      pop\n      jump\t// out\n        /* \"#utility.yul\":10609:11028   */\n    tag_85:\n        /* \"#utility.yul\":10775:10779   */\n      0x00\n        /* \"#utility.yul\":10813:10815   */\n      0x20\n        /* \"#utility.yul\":10802:10811   */\n      dup3\n        /* \"#utility.yul\":10798:10816   */\n      add\n        /* \"#utility.yul\":10790:10816   */\n      swap1\n      pop\n        /* \"#utility.yul\":10862:10871   */\n      dup2\n        /* \"#utility.yul\":10856:10860   */\n      dup2\n        /* \"#utility.yul\":10852:10872   */\n      sub\n        /* \"#utility.yul\":10848:10849   */\n      0x00\n        /* \"#utility.yul\":10837:10846   */\n      dup4\n        /* \"#utility.yul\":10833:10850   */\n      add\n        /* \"#utility.yul\":10826:10873   */\n      mstore\n        /* \"#utility.yul\":10890:11021   */\n      tag_287\n        /* \"#utility.yul\":11016:11020   */\n      dup2\n        /* \"#utility.yul\":10890:11021   */\n      tag_247\n      jump\t// in\n    tag_287:\n        /* \"#utility.yul\":10882:11021   */\n      swap1\n      pop\n        /* \"#utility.yul\":10609:11028   */\n      swap2\n      swap1\n      pop\n      jump\t// out\n        /* \"#utility.yul\":11034:11453   */\n    tag_108:\n        /* \"#utility.yul\":11200:11204   */\n      0x00\n        /* \"#utility.yul\":11238:11240   */\n      0x20\n        /* \"#utility.yul\":11227:11236   */\n      dup3\n        /* \"#utility.yul\":11223:11241   */\n      add\n        /* \"#utility.yul\":11215:11241   */\n      swap1\n      pop\n        /* \"#utility.yul\":11287:11296   */\n      dup2\n        /* \"#utility.yul\":11281:11285   */\n      dup2\n        /* \"#utility.yul\":11277:11297   */\n      sub\n        /* \"#utility.yul\":11273:11274   */\n      0x00\n        /* \"#utility.yul\":11262:11271   */\n      dup4\n        /* \"#utility.yul\":11258:11275   */\n      add\n        /* \"#utility.yul\":11251:11298   */\n      mstore\n        /* \"#utility.yul\":11315:11446   */\n      tag_289\n        /* \"#utility.yul\":11441:11445   */\n      dup2\n        /* \"#utility.yul\":11315:11446   */\n      tag_252\n      jump\t// in\n    tag_289:\n        /* \"#utility.yul\":11307:11446   */\n      swap1\n      pop\n        /* \"#utility.yul\":11034:11453   */\n      swap2\n      swap1\n      pop\n      jump\t// out\n        /* \"#utility.yul\":11459:11878   */\n    tag_123:\n        /* \"#utility.yul\":11625:11629   */\n      0x00\n        /* \"#utility.yul\":11663:11665   */\n      0x20\n        /* \"#utility.yul\":11652:11661   */\n      dup3\n        /* \"#utility.yul\":11648:11666   */\n      add\n        /* \"#utility.yul\":11640:11666   */\n      swap1\n      pop\n        /* \"#utility.yul\":11712:11721   */\n      dup2\n        /* \"#utility.yul\":11706:11710   */\n      dup2\n        /* \"#utility.yul\":11702:11722   */\n      sub\n        /* \"#utility.yul\":11698:11699   */\n      0x00\n        /* \"#utility.yul\":11687:11696   */\n      dup4\n        /* \"#utility.yul\":11683:11700   */\n      add\n        /* \"#utility.yul\":11676:11723   */\n      mstore\n        /* \"#utility.yul\":11740:11871   */\n      tag_291\n        /* \"#utility.yul\":11866:11870   */\n      dup2\n        /* \"#utility.yul\":11740:11871   */\n      tag_257\n      jump\t// in\n    tag_291:\n        /* \"#utility.yul\":11732:11871   */\n      swap1\n      pop\n        /* \"#utility.yul\":11459:11878   */\n      swap2\n      swap1\n      pop\n      jump\t// out\n        /* \"#utility.yul\":11884:12273   */\n    tag_53:\n        /* \"#utility.yul\":12035:12039   */\n      0x00\n        /* \"#utility.yul\":12073:12075   */\n      0x20\n        /* \"#utility.yul\":12062:12071   */\n      dup3\n        /* \"#utility.yul\":12058:12076   */\n      add\n        /* \"#utility.yul\":12050:12076   */\n      swap1\n      pop\n        /* \"#utility.yul\":12122:12131   */\n      dup2\n        /* \"#utility.yul\":12116:12120   */\n      dup2\n        /* \"#utility.yul\":12112:12132   */\n      sub\n        /* \"#utility.yul\":12108:12109   */\n      0x00\n        /* \"#utility.yul\":12097:12106   */\n      dup4\n        /* \"#utility.yul\":12093:12110   */\n      add\n        /* \"#utility.yul\":12086:12133   */\n      mstore\n        /* \"#utility.yul\":12150:12266   */\n      tag_293\n        /* \"#utility.yul\":12261:12265   */\n      dup2\n        /* \"#utility.yul\":12252:12258   */\n      dup5\n        /* \"#utility.yul\":12150:12266   */\n      tag_262\n      jump\t// in\n    tag_293:\n        /* \"#utility.yul\":12142:12266   */\n      swap1\n      pop\n        /* \"#utility.yul\":11884:12273   */\n      swap3\n      swap2\n      pop\n      pop\n      jump\t// out\n        /* \"#utility.yul\":12360:12504   */\n    tag_221:\n        /* \"#utility.yul\":12412:12416   */\n      0x00\n        /* \"#utility.yul\":12435:12438   */\n      dup2\n        /* \"#utility.yul\":12427:12438   */\n      swap1\n      pop\n        /* \"#utility.yul\":12458:12461   */\n      dup2\n        /* \"#utility.yul\":12455:12456   */\n      0x00\n        /* \"#utility.yul\":12448:12462   */\n      mstore\n        /* \"#utility.yul\":12492:12496   */\n      0x20\n        /* \"#utility.yul\":12489:12490   */\n      0x00\n        /* \"#utility.yul\":12479:12497   */\n      keccak256\n        /* \"#utility.yul\":12471:12497   */\n      swap1\n      pop\n        /* \"#utility.yul\":12360:12504   */\n      swap2\n      swap1\n      pop\n      jump\t// out\n        /* \"#utility.yul\":12510:12609   */\n    tag_228:\n        /* \"#utility.yul\":12562:12568   */\n      0x00\n        /* \"#utility.yul\":12596:12601   */\n      dup2\n        /* \"#utility.yul\":12590:12602   */\n      mload\n        /* \"#utility.yul\":12580:12602   */\n      swap1\n      pop\n        /* \"#utility.yul\":12510:12609   */\n      swap2\n      swap1\n      pop\n      jump\t// out\n        /* \"#utility.yul\":12615:12762   */\n    tag_210:\n        /* \"#utility.yul\":12716:12727   */\n      0x00\n        /* \"#utility.yul\":12753:12756   */\n      dup2\n        /* \"#utility.yul\":12738:12756   */\n      swap1\n      pop\n        /* \"#utility.yul\":12615:12762   */\n      swap3\n      swap2\n      pop\n      pop\n      jump\t// out\n        /* \"#utility.yul\":12768:12927   */\n    tag_230:\n        /* \"#utility.yul\":12842:12853   */\n      0x00\n        /* \"#utility.yul\":12876:12882   */\n      dup3\n        /* \"#utility.yul\":12871:12874   */\n      dup3\n        /* \"#utility.yul\":12864:12883   */\n      mstore\n        /* \"#utility.yul\":12916:12920   */\n      0x20\n        /* \"#utility.yul\":12911:12914   */\n      dup3\n        /* \"#utility.yul\":12907:12921   */\n      add\n        /* \"#utility.yul\":12892:12921   */\n      swap1\n      pop\n        /* \"#utility.yul\":12768:12927   */\n      swap3\n      swap2\n      pop\n      pop\n      jump\t// out\n        /* \"#utility.yul\":12933:13102   */\n    tag_239:\n        /* \"#utility.yul\":13017:13028   */\n      0x00\n        /* \"#utility.yul\":13051:13057   */\n      dup3\n        /* \"#utility.yul\":13046:13049   */\n      dup3\n        /* \"#utility.yul\":13039:13058   */\n      mstore\n        /* \"#utility.yul\":13091:13095   */\n      0x20\n        /* \"#utility.yul\":13086:13089   */\n      dup3\n        /* \"#utility.yul\":13082:13096   */\n      add\n        /* \"#utility.yul\":13067:13096   */\n      swap1\n      pop\n        /* \"#utility.yul\":12933:13102   */\n      swap3\n      swap2\n      pop\n      pop\n      jump\t// out\n        /* \"#utility.yul\":13108:13345   */\n    tag_79:\n        /* \"#utility.yul\":13146:13149   */\n      0x00\n        /* \"#utility.yul\":13165:13183   */\n      tag_302\n        /* \"#utility.yul\":13181:13182   */\n      dup3\n        /* \"#utility.yul\":13165:13183   */\n      tag_275\n      jump\t// in\n    tag_302:\n        /* \"#utility.yul\":13160:13183   */\n      swap2\n      pop\n        /* \"#utility.yul\":13197:13215   */\n      tag_303\n        /* \"#utility.yul\":13213:13214   */\n      dup4\n        /* \"#utility.yul\":13197:13215   */\n      tag_275\n      jump\t// in\n    tag_303:\n        /* \"#utility.yul\":13192:13215   */\n      swap3\n      pop\n        /* \"#utility.yul\":13287:13288   */\n      dup3\n        /* \"#utility.yul\":13281:13285   */\n      0xff\n        /* \"#utility.yul\":13277:13289   */\n      sub\n        /* \"#utility.yul\":13274:13275   */\n      dup3\n        /* \"#utility.yul\":13271:13290   */\n      gt\n        /* \"#utility.yul\":13268:13313   */\n      iszero\n      tag_304\n      jumpi\n        /* \"#utility.yul\":13293:13311   */\n      tag_305\n      tag_306\n      jump\t// in\n    tag_305:\n        /* \"#utility.yul\":13268:13313   */\n    tag_304:\n        /* \"#utility.yul\":13337:13338   */\n      dup3\n        /* \"#utility.yul\":13334:13335   */\n      dup3\n        /* \"#utility.yul\":13330:13339   */\n      add\n        /* \"#utility.yul\":13323:13339   */\n      swap1\n      pop\n        /* \"#utility.yul\":13108:13345   */\n      swap3\n      swap2\n      pop\n      pop\n      jump\t// out\n        /* \"#utility.yul\":13351:13447   */\n    tag_202:\n        /* \"#utility.yul\":13388:13395   */\n      0x00\n        /* \"#utility.yul\":13417:13441   */\n      tag_308\n        /* \"#utility.yul\":13435:13440   */\n      dup3\n        /* \"#utility.yul\":13417:13441   */\n      tag_309\n      jump\t// in\n    tag_308:\n        /* \"#utility.yul\":13406:13441   */\n      swap1\n      pop\n        /* \"#utility.yul\":13351:13447   */\n      swap2\n      swap1\n      pop\n      jump\t// out\n        /* \"#utility.yul\":13453:13543   */\n    tag_206:\n        /* \"#utility.yul\":13487:13494   */\n      0x00\n        /* \"#utility.yul\":13530:13535   */\n      dup2\n        /* \"#utility.yul\":13523:13536   */\n      iszero\n        /* \"#utility.yul\":13516:13537   */\n      iszero\n        /* \"#utility.yul\":13505:13537   */\n      swap1\n      pop\n        /* \"#utility.yul\":13453:13543   */\n      swap2\n      swap1\n      pop\n      jump\t// out\n        /* \"#utility.yul\":13549:13675   */\n    tag_309:\n        /* \"#utility.yul\":13586:13593   */\n      0x00\n        /* \"#utility.yul\":13626:13668   */\n      0xffffffffffffffffffffffffffffffffffffffff\n        /* \"#utility.yul\":13619:13624   */\n      dup3\n        /* \"#utility.yul\":13615:13669   */\n      and\n        /* \"#utility.yul\":13604:13669   */\n      swap1\n      pop\n        /* \"#utility.yul\":13549:13675   */\n      swap2\n      swap1\n      pop\n      jump\t// out\n        /* \"#utility.yul\":13681:13758   */\n    tag_272:\n        /* \"#utility.yul\":13718:13725   */\n      0x00\n        /* \"#utility.yul\":13747:13752   */\n      dup2\n        /* \"#utility.yul\":13736:13752   */\n      swap1\n      pop\n        /* \"#utility.yul\":13681:13758   */\n      swap2\n      swap1\n      pop\n      jump\t// out\n        /* \"#utility.yul\":13764:13850   */\n    tag_275:\n        /* \"#utility.yul\":13799:13806   */\n      0x00\n        /* \"#utility.yul\":13839:13843   */\n      0xff\n        /* \"#utility.yul\":13832:13837   */\n      dup3\n        /* \"#utility.yul\":13828:13844   */\n      and\n        /* \"#utility.yul\":13817:13844   */\n      swap1\n      pop\n        /* \"#utility.yul\":13764:13850   */\n      swap2\n      swap1\n      pop\n      jump\t// out\n        /* \"#utility.yul\":13856:14010   */\n    tag_212:\n        /* \"#utility.yul\":13940:13946   */\n      dup3\n        /* \"#utility.yul\":13935:13938   */\n      dup2\n        /* \"#utility.yul\":13930:13933   */\n      dup4\n        /* \"#utility.yul\":13917:13947   */\n      calldatacopy\n        /* \"#utility.yul\":14002:14003   */\n      0x00\n        /* \"#utility.yul\":13993:13999   */\n      dup4\n        /* \"#utility.yul\":13988:13991   */\n      dup4\n        /* \"#utility.yul\":13984:14000   */\n      add\n        /* \"#utility.yul\":13977:14004   */\n      mstore\n        /* \"#utility.yul\":13856:14010   */\n      pop\n      pop\n      pop\n      jump\t// out\n        /* \"#utility.yul\":14016:14323   */\n    tag_232:\n        /* \"#utility.yul\":14084:14085   */\n      0x00\n        /* \"#utility.yul\":14094:14207   */\n    tag_316:\n        /* \"#utility.yul\":14108:14114   */\n      dup4\n        /* \"#utility.yul\":14105:14106   */\n      dup2\n        /* \"#utility.yul\":14102:14115   */\n      lt\n        /* \"#utility.yul\":14094:14207   */\n      iszero\n      tag_318\n      jumpi\n        /* \"#utility.yul\":14193:14194   */\n      dup1\n        /* \"#utility.yul\":14188:14191   */\n      dup3\n        /* \"#utility.yul\":14184:14195   */\n      add\n        /* \"#utility.yul\":14178:14196   */\n      mload\n        /* \"#utility.yul\":14174:14175   */\n      dup2\n        /* \"#utility.yul\":14169:14172   */\n      dup5\n        /* \"#utility.yul\":14165:14176   */\n      add\n        /* \"#utility.yul\":14158:14197   */\n      mstore\n        /* \"#utility.yul\":14130:14132   */\n      0x20\n        /* \"#utility.yul\":14127:14128   */\n      dup2\n        /* \"#utility.yul\":14123:14133   */\n      add\n        /* \"#utility.yul\":14118:14133   */\n      swap1\n      pop\n        /* \"#utility.yul\":14094:14207   */\n      jump(tag_316)\n    tag_318:\n        /* \"#utility.yul\":14225:14231   */\n      dup4\n        /* \"#utility.yul\":14222:14223   */\n      dup2\n        /* \"#utility.yul\":14219:14232   */\n      gt\n        /* \"#utility.yul\":14216:14317   */\n      iszero\n      tag_319\n      jumpi\n        /* \"#utility.yul\":14305:14306   */\n      0x00\n        /* \"#utility.yul\":14296:14302   */\n      dup5\n        /* \"#utility.yul\":14291:14294   */\n      dup5\n        /* \"#utility.yul\":14287:14303   */\n      add\n        /* \"#utility.yul\":14280:14307   */\n      mstore\n        /* \"#utility.yul\":14216:14317   */\n    tag_319:\n        /* \"#utility.yul\":14065:14323   */\n      pop\n        /* \"#utility.yul\":14016:14323   */\n      pop\n      pop\n      pop\n      jump\t// out\n        /* \"#utility.yul\":14329:14649   */\n    tag_82:\n        /* \"#utility.yul\":14373:14379   */\n      0x00\n        /* \"#utility.yul\":14410:14411   */\n      0x02\n        /* \"#utility.yul\":14404:14408   */\n      dup3\n        /* \"#utility.yul\":14400:14412   */\n      div\n        /* \"#utility.yul\":14390:14412   */\n      swap1\n      pop\n        /* \"#utility.yul\":14457:14458   */\n      0x01\n        /* \"#utility.yul\":14451:14455   */\n      dup3\n        /* \"#utility.yul\":14447:14459   */\n      and\n        /* \"#utility.yul\":14478:14496   */\n      dup1\n        /* \"#utility.yul\":14468:14549   */\n      tag_321\n      jumpi\n        /* \"#utility.yul\":14534:14538   */\n      0x7f\n        /* \"#utility.yul\":14526:14532   */\n      dup3\n        /* \"#utility.yul\":14522:14539   */\n      and\n        /* \"#utility.yul\":14512:14539   */\n      swap2\n      pop\n        /* \"#utility.yul\":14468:14549   */\n    tag_321:\n        /* \"#utility.yul\":14596:14598   */\n      0x20\n        /* \"#utility.yul\":14588:14594   */\n      dup3\n        /* \"#utility.yul\":14585:14599   */\n      lt\n        /* \"#utility.yul\":14565:14583   */\n      dup2\n        /* \"#utility.yul\":14562:14600   */\n      eq\n        /* \"#utility.yul\":14559:14643   */\n      iszero\n      tag_322\n      jumpi\n        /* \"#utility.yul\":14615:14633   */\n      tag_323\n      tag_324\n      jump\t// in\n    tag_323:\n        /* \"#utility.yul\":14559:14643   */\n    tag_322:\n        /* \"#utility.yul\":14380:14649   */\n      pop\n        /* \"#utility.yul\":14329:14649   */\n      swap2\n      swap1\n      pop\n      jump\t// out\n        /* \"#utility.yul\":14655:14822   */\n    tag_125:\n        /* \"#utility.yul\":14692:14695   */\n      0x00\n        /* \"#utility.yul\":14715:14737   */\n      tag_326\n        /* \"#utility.yul\":14731:14736   */\n      dup3\n        /* \"#utility.yul\":14715:14737   */\n      tag_275\n      jump\t// in\n    tag_326:\n        /* \"#utility.yul\":14706:14737   */\n      swap2\n      pop\n        /* \"#utility.yul\":14759:14763   */\n      0xff\n        /* \"#utility.yul\":14752:14757   */\n      dup3\n        /* \"#utility.yul\":14749:14764   */\n      eq\n        /* \"#utility.yul\":14746:14787   */\n      iszero\n      tag_327\n      jumpi\n        /* \"#utility.yul\":14767:14785   */\n      tag_328\n      tag_306\n      jump\t// in\n    tag_328:\n        /* \"#utility.yul\":14746:14787   */\n    tag_327:\n        /* \"#utility.yul\":14814:14815   */\n      0x01\n        /* \"#utility.yul\":14807:14812   */\n      dup3\n        /* \"#utility.yul\":14803:14816   */\n      add\n        /* \"#utility.yul\":14796:14816   */\n      swap1\n      pop\n        /* \"#utility.yul\":14655:14822   */\n      swap2\n      swap1\n      pop\n      jump\t// out\n        /* \"#utility.yul\":14828:15008   */\n    tag_306:\n        /* \"#utility.yul\":14876:14953   */\n      0x4e487b7100000000000000000000000000000000000000000000000000000000\n        /* \"#utility.yul\":14873:14874   */\n      0x00\n        /* \"#utility.yul\":14866:14954   */\n      mstore\n        /* \"#utility.yul\":14973:14977   */\n      0x11\n        /* \"#utility.yul\":14970:14971   */\n      0x04\n        /* \"#utility.yul\":14963:14978   */\n      mstore\n        /* \"#utility.yul\":14997:15001   */\n      0x24\n        /* \"#utility.yul\":14994:14995   */\n      0x00\n        /* \"#utility.yul\":14987:15002   */\n      revert\n        /* \"#utility.yul\":15014:15194   */\n    tag_324:\n        /* \"#utility.yul\":15062:15139   */\n      0x4e487b7100000000000000000000000000000000000000000000000000000000\n        /* \"#utility.yul\":15059:15060   */\n      0x00\n        /* \"#utility.yul\":15052:15140   */\n      mstore\n        /* \"#utility.yul\":15159:15163   */\n      0x22\n        /* \"#utility.yul\":15156:15157   */\n      0x04\n        /* \"#utility.yul\":15149:15164   */\n      mstore\n        /* \"#utility.yul\":15183:15187   */\n      0x24\n        /* \"#utility.yul\":15180:15181   */\n      0x00\n        /* \"#utility.yul\":15173:15188   */\n      revert\n        /* \"#utility.yul\":15200:15317   */\n    tag_155:\n        /* \"#utility.yul\":15309:15310   */\n      0x00\n        /* \"#utility.yul\":15306:15307   */\n      dup1\n        /* \"#utility.yul\":15299:15311   */\n      revert\n        /* \"#utility.yul\":15323:15440   */\n    tag_152:\n        /* \"#utility.yul\":15432:15433   */\n      0x00\n        /* \"#utility.yul\":15429:15430   */\n      dup1\n        /* \"#utility.yul\":15422:15434   */\n      revert\n        /* \"#utility.yul\":15446:15563   */\n    tag_158:\n        /* \"#utility.yul\":15555:15556   */\n      0x00\n        /* \"#utility.yul\":15552:15553   */\n      dup1\n        /* \"#utility.yul\":15545:15557   */\n      revert\n        /* \"#utility.yul\":15569:15686   */\n    tag_187:\n        /* \"#utility.yul\":15678:15679   */\n      0x00\n        /* \"#utility.yul\":15675:15676   */\n      dup1\n        /* \"#utility.yul\":15668:15680   */\n      revert\n        /* \"#utility.yul\":15692:15809   */\n    tag_166:\n        /* \"#utility.yul\":15801:15802   */\n      0x00\n        /* \"#utility.yul\":15798:15799   */\n      dup1\n        /* \"#utility.yul\":15791:15803   */\n      revert\n        /* \"#utility.yul\":15815:15917   */\n    tag_234:\n        /* \"#utility.yul\":15856:15862   */\n      0x00\n        /* \"#utility.yul\":15907:15909   */\n      0x1f\n        /* \"#utility.yul\":15903:15910   */\n      not\n        /* \"#utility.yul\":15898:15900   */\n      0x1f\n        /* \"#utility.yul\":15891:15896   */\n      dup4\n        /* \"#utility.yul\":15887:15901   */\n      add\n        /* \"#utility.yul\":15883:15911   */\n      and\n        /* \"#utility.yul\":15873:15911   */\n      swap1\n      pop\n        /* \"#utility.yul\":15815:15917   */\n      swap2\n      swap1\n      pop\n      jump\t// out\n        /* \"#utility.yul\":15923:16095   */\n    tag_246:\n        /* \"#utility.yul\":16063:16087   */\n      0x6e6f7420636c61696d65642063726564656e7469616c00000000000000000000\n        /* \"#utility.yul\":16059:16060   */\n      0x00\n        /* \"#utility.yul\":16051:16057   */\n      dup3\n        /* \"#utility.yul\":16047:16061   */\n      add\n        /* \"#utility.yul\":16040:16088   */\n      mstore\n        /* \"#utility.yul\":15923:16095   */\n      pop\n      jump\t// out\n        /* \"#utility.yul\":16101:16263   */\n    tag_251:\n        /* \"#utility.yul\":16241:16255   */\n      0x696e7661696c6420747970650000000000000000000000000000000000000000\n        /* \"#utility.yul\":16237:16238   */\n      0x00\n        /* \"#utility.yul\":16229:16235   */\n      dup3\n        /* \"#utility.yul\":16225:16239   */\n      add\n        /* \"#utility.yul\":16218:16256   */\n      mstore\n        /* \"#utility.yul\":16101:16263   */\n      pop\n      jump\t// out\n        /* \"#utility.yul\":16269:16441   */\n    tag_256:\n        /* \"#utility.yul\":16409:16433   */\n      0x696e7661696c64207661636369656e206e756d62657200000000000000000000\n        /* \"#utility.yul\":16405:16406   */\n      0x00\n        /* \"#utility.yul\":16397:16403   */\n      dup3\n        /* \"#utility.yul\":16393:16407   */\n      add\n        /* \"#utility.yul\":16386:16434   */\n      mstore\n        /* \"#utility.yul\":16269:16441   */\n      pop\n      jump\t// out\n        /* \"#utility.yul\":16447:16617   */\n    tag_261:\n        /* \"#utility.yul\":16587:16609   */\n      0x657869737465642076616363696e652074797065000000000000000000000000\n        /* \"#utility.yul\":16583:16584   */\n      0x00\n        /* \"#utility.yul\":16575:16581   */\n      dup3\n        /* \"#utility.yul\":16571:16585   */\n      add\n        /* \"#utility.yul\":16564:16610   */\n      mstore\n        /* \"#utility.yul\":16447:16617   */\n      pop\n      jump\t// out\n        /* \"#utility.yul\":16623:16745   */\n    tag_147:\n        /* \"#utility.yul\":16696:16720   */\n      tag_342\n        /* \"#utility.yul\":16714:16719   */\n      dup2\n        /* \"#utility.yul\":16696:16720   */\n      tag_202\n      jump\t// in\n    tag_342:\n        /* \"#utility.yul\":16689:16694   */\n      dup2\n        /* \"#utility.yul\":16686:16721   */\n      eq\n        /* \"#utility.yul\":16676:16739   */\n      tag_343\n      jumpi\n        /* \"#utility.yul\":16735:16736   */\n      0x00\n        /* \"#utility.yul\":16732:16733   */\n      dup1\n        /* \"#utility.yul\":16725:16737   */\n      revert\n        /* \"#utility.yul\":16676:16739   */\n    tag_343:\n        /* \"#utility.yul\":16623:16745   */\n      pop\n      jump\t// out\n        /* \"#utility.yul\":16751:16869   */\n    tag_162:\n        /* \"#utility.yul\":16822:16844   */\n      tag_345\n        /* \"#utility.yul\":16838:16843   */\n      dup2\n        /* \"#utility.yul\":16822:16844   */\n      tag_275\n      jump\t// in\n    tag_345:\n        /* \"#utility.yul\":16815:16820   */\n      dup2\n        /* \"#utility.yul\":16812:16845   */\n      eq\n        /* \"#utility.yul\":16802:16863   */\n      tag_346\n      jumpi\n        /* \"#utility.yul\":16859:16860   */\n      0x00\n        /* \"#utility.yul\":16856:16857   */\n      dup1\n        /* \"#utility.yul\":16849:16861   */\n      revert\n        /* \"#utility.yul\":16802:16863   */\n    tag_346:\n        /* \"#utility.yul\":16751:16869   */\n      pop\n      jump\t// out\n\n    auxdata: 0xa2646970667358221220199a4aeb9c07f6a5a401f2240b6630c88ac5dc351bdcbb0428b0f3b0e16a9dd564736f6c63430008070033\n}\n",
				"bytecode": {
					"linkReferences": {},
					"object": "60806040523480156200001157600080fd5b50336000806101000a81548173ffffffffffffffffffffffffffffffffffffffff021916908373ffffffffffffffffffffffffffffffffffffffff16021790555060018060003373ffffffffffffffffffffffffffffffffffffffff1673ffffffffffffffffffffffffffffffffffffffff16815260200190815260200160002060006101000a81548160ff0219169083151502179055506001600260006101000a81548160ff021916908360ff1602179055506040518060400160405280600781526020017f4d6f6465726e6100000000000000000000000000000000000000000000000000815250600360008060ff16815260200190815260200160002090805190602001906200012692919062000271565b506040518060400160405280600681526020017f5066697a6572000000000000000000000000000000000000000000000000000081525060036000600160ff16815260200190815260200160002090805190602001906200018992919062000271565b506040518060400160405280600781526020017f4a616e7373656e0000000000000000000000000000000000000000000000000081525060036000600260ff1681526020019081526020016000209080519060200190620001ec92919062000271565b506040518060400160405280600b81526020017f41737472617a656e65636100000000000000000000000000000000000000000081525060036000600360ff16815260200190815260200160002090805190602001906200024f92919062000271565b5060048060006101000a81548160ff021916908360ff16021790555062000386565b8280546200027f9062000321565b90600052602060002090601f016020900481019282620002a35760008555620002ef565b82601f10620002be57805160ff1916838001178555620002ef565b82800160010185558215620002ef579182015b82811115620002ee578251825591602001919060010190620002d1565b5b509050620002fe919062000302565b5090565b5b808211156200031d57600081600090555060010162000303565b5090565b600060028204905060018216806200033a57607f821691505b6020821081141562000351576200035062000357565b5b50919050565b7f4e487b7100000000000000000000000000000000000000000000000000000000600052602260045260246000fd5b611a5e80620003966000396000f3fe608060405234801561001057600080fd5b506004361061009e5760003560e01c806345695248116100665780634569524814610193578063877b9a67146101c3578063959d0258146101f3578063d165854614610223578063f2fde38b146102535761009e565b806320694db0146100a357806334becfb4146100d3578063361459961461010357806338a7543e146101335780633f8a37dc14610163575b600080fd5b6100bd60048036038101906100b89190611245565b61026f565b6040516100ca9190611678565b60405180910390f35b6100ed60048036038101906100e89190611245565b6103ca565b6040516100fa9190611678565b60405180910390f35b61011d60048036038101906101189190611305565b610526565b60405161012a9190611678565b60405180910390f35b61014d60048036038101906101489190611245565b6106e5565b60405161015a9190611678565b60405180910390f35b61017d600480360381019061017891906113da565b610705565b60405161018a9190611693565b60405180910390f35b6101ad60048036038101906101a891906112b2565b610819565b6040516101ba9190611678565b60405180910390f35b6101dd60048036038101906101d89190611245565b610adf565b6040516101ea9190611678565b60405180910390f35b61020d60048036038101906102089190611272565b610b35565b60405161021a9190611735565b60405180910390f35b61023d6004803603810190610238919061138d565b610de9565b60405161024a9190611678565b60405180910390f35b61026d60048036038101906102689190611245565b610f39565b005b60008060009054906101000a900473ffffffffffffffffffffffffffffffffffffffff1673ffffffffffffffffffffffffffffffffffffffff163373ffffffffffffffffffffffffffffffffffffffff16146102ca57600080fd5b60001515600160008473ffffffffffffffffffffffffffffffffffffffff1673ffffffffffffffffffffffffffffffffffffffff16815260200190815260200160002060009054906101000a900460ff1615151461032757600080fd5b60018060008473ffffffffffffffffffffffffffffffffffffffff1673ffffffffffffffffffffffffffffffffffffffff16815260200190815260200160002060006101000a81548160ff0219169083151502179055508173ffffffffffffffffffffffffffffffffffffffff167f27aa0506e4da65b95bd4f61c697076f8c7dcb69b2c0937d11efa9ceaa3bf5a9560405160405180910390a260019050919050565b60008060009054906101000a900473ffffffffffffffffffffffffffffffffffffffff1673ffffffffffffffffffffffffffffffffffffffff163373ffffffffffffffffffffffffffffffffffffffff161461042557600080fd5b60011515600160008473ffffffffffffffffffffffffffffffffffffffff1673ffffffffffffffffffffffffffffffffffffffff16815260200190815260200160002060009054906101000a900460ff1615151461048257600080fd5b6000600160008473ffffffffffffffffffffffffffffffffffffffff1673ffffffffffffffffffffffffffffffffffffffff16815260200190815260200160002060006101000a81548160ff0219169083151502179055508173ffffffffffffffffffffffffffffffffffffffff167fee5d7d94405e51eec1bd7f59c36572787d25afb6c85e3a897bb782f08aac7d4460405160405180910390a260019050919050565b60006001151561053533610adf565b15151461054157600080fd5b6000600560008873ffffffffffffffffffffffffffffffffffffffff1673ffffffffffffffffffffffffffffffffffffffff1681526020019081526020016000209050600081600001541461059557600080fd5b60018660ff16146105a557600080fd5b600260009054906101000a900460ff1660ff168160000181905550338160020160008860ff1660ff16815260200190815260200160002060006101000a81548173ffffffffffffffffffffffffffffffffffffffff021916908373ffffffffffffffffffffffffffffffffffffffff160217905550848160030160008860ff1660ff16815260200190815260200160002060006101000a81548160ff021916908360ff160217905550428160040160008860ff1660ff1681526020019081526020016000208190555083838260010191906106819291906110e1565b5060018160050160006101000a81548160ff021916908360ff1602179055506001600260008282829054906101000a900460ff166106bf91906117a4565b92506101000a81548160ff021916908360ff160217905550600191505095945050505050565b60016020528060005260406000206000915054906101000a900460ff1681565b60606000600360008460ff1660ff168152602001908152602001600020805461072d90611872565b90501415610770576040517f08c379a0000000000000000000000000000000000000000000000000000000008152600401610767906116d5565b60405180910390fd5b600360008360ff1660ff168152602001908152602001600020805461079490611872565b80601f01602080910402602001604051908101604052809291908181526020018280546107c090611872565b801561080d5780601f106107e25761010080835404028352916020019161080d565b820191906000526020600020905b8154815290600101906020018083116107f057829003601f168201915b50505050509050919050565b60006001151561082833610adf565b15151461083457600080fd5b6000600560008673ffffffffffffffffffffffffffffffffffffffff1673ffffffffffffffffffffffffffffffffffffffff1681526020019081526020016000206000015414156108ba576040517f08c379a00000000000000000000000000000000000000000000000000000000081526004016108b1906116b5565b60405180910390fd5b600460009054906101000a900460ff1660ff168260ff1610610911576040517f08c379a0000000000000000000000000000000000000000000000000000000008152600401610908906116d5565b60405180910390fd5b81600560008673ffffffffffffffffffffffffffffffffffffffff1673ffffffffffffffffffffffffffffffffffffffff16815260200190815260200160002060030160008560ff1660ff16815260200190815260200160002060006101000a81548160ff021916908360ff16021790555042600560008673ffffffffffffffffffffffffffffffffffffffff1673ffffffffffffffffffffffffffffffffffffffff16815260200190815260200160002060040160008560ff1660ff1681526020019081526020016000208190555082600560008673ffffffffffffffffffffffffffffffffffffffff1673ffffffffffffffffffffffffffffffffffffffff16815260200190815260200160002060050160006101000a81548160ff021916908360ff16021790555033600560008673ffffffffffffffffffffffffffffffffffffffff1673ffffffffffffffffffffffffffffffffffffffff16815260200190815260200160002060020160008560ff1660ff16815260200190815260200160002060006101000a81548173ffffffffffffffffffffffffffffffffffffffff021916908373ffffffffffffffffffffffffffffffffffffffff160217905550600190509392505050565b6000600160008373ffffffffffffffffffffffffffffffffffffffff1673ffffffffffffffffffffffffffffffffffffffff16815260200190815260200160002060009054906101000a900460ff169050919050565b610b3d611167565b6000600560008573ffffffffffffffffffffffffffffffffffffffff1673ffffffffffffffffffffffffffffffffffffffff168152602001908152602001600020600001541415610bc3576040517f08c379a0000000000000000000000000000000000000000000000000000000008152600401610bba906116b5565b60405180910390fd5b600560008473ffffffffffffffffffffffffffffffffffffffff1673ffffffffffffffffffffffffffffffffffffffff16815260200190815260200160002060050160009054906101000a900460ff1660ff168260ff161115610c5b576040517f08c379a0000000000000000000000000000000000000000000000000000000008152600401610c52906116f5565b60405180910390fd5b6060610ccc600560008673ffffffffffffffffffffffffffffffffffffffff1673ffffffffffffffffffffffffffffffffffffffff16815260200190815260200160002060030160008560ff1660ff16815260200190815260200160002060009054906101000a900460ff16610705565b905060006040518060800160405280600560008873ffffffffffffffffffffffffffffffffffffffff1673ffffffffffffffffffffffffffffffffffffffff16815260200190815260200160002060020160008760ff1660ff16815260200190815260200160002060009054906101000a900473ffffffffffffffffffffffffffffffffffffffff1673ffffffffffffffffffffffffffffffffffffffff1681526020018381526020018560ff168152602001600560008873ffffffffffffffffffffffffffffffffffffffff1673ffffffffffffffffffffffffffffffffffffffff16815260200190815260200160002060040160008760ff1660ff168152602001908152602001600020548152509050809250505092915050565b600060011515610df833610adf565b151514610e0457600080fd5b60005b600460009054906101000a900460ff1660ff168160ff161015610ebe57600360008260ff1660ff168152602001908152602001600020604051610e4a9190611661565b60405180910390208484604051610e62929190611648565b60405180910390201415610eab576040517f08c379a0000000000000000000000000000000000000000000000000000000008152600401610ea290611715565b60405180910390fd5b8080610eb6906118a4565b915050610e07565b50828260036000600460009054906101000a900460ff1660ff1660ff1681526020019081526020016000209190610ef69291906110e1565b506004600081819054906101000a900460ff1680929190610f16906118a4565b91906101000a81548160ff021916908360ff160217905550506001905092915050565b60008054906101000a900473ffffffffffffffffffffffffffffffffffffffff1673ffffffffffffffffffffffffffffffffffffffff163373ffffffffffffffffffffffffffffffffffffffff1614610f9157600080fd5b60008054906101000a900473ffffffffffffffffffffffffffffffffffffffff1673ffffffffffffffffffffffffffffffffffffffff168173ffffffffffffffffffffffffffffffffffffffff161415610fea57600080fd5b600073ffffffffffffffffffffffffffffffffffffffff168173ffffffffffffffffffffffffffffffffffffffff16141561102457600080fd5b806000806101000a81548173ffffffffffffffffffffffffffffffffffffffff021916908373ffffffffffffffffffffffffffffffffffffffff1602179055508073ffffffffffffffffffffffffffffffffffffffff1660008054906101000a900473ffffffffffffffffffffffffffffffffffffffff1673ffffffffffffffffffffffffffffffffffffffff167f2ae143016adc0aa482e6ba5d9a350f3e3122aeb005ca4bf47d1d7b8221bce47260405160405180910390a350565b8280546110ed90611872565b90600052602060002090601f01602090048101928261110f5760008555611156565b82601f1061112857803560ff1916838001178555611156565b82800160010185558215611156579182015b8281111561115557823582559160200191906001019061113a565b5b50905061116391906111a8565b5090565b6040518060800160405280600073ffffffffffffffffffffffffffffffffffffffff16815260200160608152602001600060ff168152602001600081525090565b5b808211156111c15760008160009055506001016111a9565b5090565b6000813590506111d4816119fa565b92915050565b60008083601f8401126111f0576111ef611931565b5b8235905067ffffffffffffffff81111561120d5761120c61192c565b5b60208301915083600182028301111561122957611228611936565b5b9250929050565b60008135905061123f81611a11565b92915050565b60006020828403121561125b5761125a611940565b5b6000611269848285016111c5565b91505092915050565b6000806040838503121561128957611288611940565b5b6000611297858286016111c5565b92505060206112a885828601611230565b9150509250929050565b6000806000606084860312156112cb576112ca611940565b5b60006112d9868287016111c5565b93505060206112ea86828701611230565b92505060406112fb86828701611230565b9150509250925092565b60008060008060006080868803121561132157611320611940565b5b600061132f888289016111c5565b955050602061134088828901611230565b945050604061135188828901611230565b935050606086013567ffffffffffffffff8111156113725761137161193b565b5b61137e888289016111da565b92509250509295509295909350565b600080602083850312156113a4576113a3611940565b5b600083013567ffffffffffffffff8111156113c2576113c161193b565b5b6113ce858286016111da565b92509250509250929050565b6000602082840312156113f0576113ef611940565b5b60006113fe84828501611230565b91505092915050565b611410816117db565b82525050565b61141f816117ed565b82525050565b60006114318385611777565b935061143e838584611830565b82840190509392505050565b6000815461145781611872565b6114618186611777565b9450600182166000811461147c576001811461148d576114c0565b60ff198316865281860193506114c0565b61149685611757565b60005b838110156114b857815481890152600182019150602081019050611499565b838801955050505b50505092915050565b60006114d48261176c565b6114de8185611782565b93506114ee81856020860161183f565b6114f781611945565b840191505092915050565b600061150d8261176c565b6115178185611793565b935061152781856020860161183f565b61153081611945565b840191505092915050565b6000611548601683611793565b915061155382611956565b602082019050919050565b600061156b600c83611793565b91506115768261197f565b602082019050919050565b600061158e601683611793565b9150611599826119a8565b602082019050919050565b60006115b1601483611793565b91506115bc826119d1565b602082019050919050565b60006080830160008301516115df6000860182611407565b50602083015184820360208601526115f782826114c9565b915050604083015161160c6040860182611639565b50606083015161161f606086018261162a565b508091505092915050565b61163381611819565b82525050565b61164281611823565b82525050565b6000611655828486611425565b91508190509392505050565b600061166d828461144a565b915081905092915050565b600060208201905061168d6000830184611416565b92915050565b600060208201905081810360008301526116ad8184611502565b905092915050565b600060208201905081810360008301526116ce8161153b565b9050919050565b600060208201905081810360008301526116ee8161155e565b9050919050565b6000602082019050818103600083015261170e81611581565b9050919050565b6000602082019050818103600083015261172e816115a4565b9050919050565b6000602082019050818103600083015261174f81846115c7565b905092915050565b60008190508160005260206000209050919050565b600081519050919050565b600081905092915050565b600082825260208201905092915050565b600082825260208201905092915050565b60006117af82611823565b91506117ba83611823565b92508260ff038211156117d0576117cf6118ce565b5b828201905092915050565b60006117e6826117f9565b9050919050565b60008115159050919050565b600073ffffffffffffffffffffffffffffffffffffffff82169050919050565b6000819050919050565b600060ff82169050919050565b82818337600083830152505050565b60005b8381101561185d578082015181840152602081019050611842565b8381111561186c576000848401525b50505050565b6000600282049050600182168061188a57607f821691505b6020821081141561189e5761189d6118fd565b5b50919050565b60006118af82611823565b915060ff8214156118c3576118c26118ce565b5b600182019050919050565b7f4e487b7100000000000000000000000000000000000000000000000000000000600052601160045260246000fd5b7f4e487b7100000000000000000000000000000000000000000000000000000000600052602260045260246000fd5b600080fd5b600080fd5b600080fd5b600080fd5b600080fd5b6000601f19601f8301169050919050565b7f6e6f7420636c61696d65642063726564656e7469616c00000000000000000000600082015250565b7f696e7661696c6420747970650000000000000000000000000000000000000000600082015250565b7f696e7661696c64207661636369656e206e756d62657200000000000000000000600082015250565b7f657869737465642076616363696e652074797065000000000000000000000000600082015250565b611a03816117db565b8114611a0e57600080fd5b50565b611a1a81611823565b8114611a2557600080fd5b5056fea2646970667358221220199a4aeb9c07f6a5a401f2240b6630c88ac5dc351bdcbb0428b0f3b0e16a9dd564736f6c63430008070033",
					"opcodes": "PUSH1 0x80 PUSH1 0x40 MSTORE CALLVALUE DUP1 ISZERO PUSH3 0x11 JUMPI PUSH1 0x0 DUP1 REVERT JUMPDEST POP CALLER PUSH1 0x0 DUP1 PUSH2 0x100 EXP DUP2 SLOAD DUP2 PUSH20 0xFFFFFFFFFFFFFFFFFFFFFFFFFFFFFFFFFFFFFFFF MUL NOT AND SWAP1 DUP4 PUSH20 0xFFFFFFFFFFFFFFFFFFFFFFFFFFFFFFFFFFFFFFFF AND MUL OR SWAP1 SSTORE POP PUSH1 0x1 DUP1 PUSH1 0x0 CALLER PUSH20 0xFFFFFFFFFFFFFFFFFFFFFFFFFFFFFFFFFFFFFFFF AND PUSH20 0xFFFFFFFFFFFFFFFFFFFFFFFFFFFFFFFFFFFFFFFF AND DUP2 MSTORE PUSH1 0x20 ADD SWAP1 DUP2 MSTORE PUSH1 0x20 ADD PUSH1 0x0 KECCAK256 PUSH1 0x0 PUSH2 0x100 EXP DUP2 SLOAD DUP2 PUSH1 0xFF MUL NOT AND SWAP1 DUP4 ISZERO ISZERO MUL OR SWAP1 SSTORE POP PUSH1 0x1 PUSH1 0x2 PUSH1 0x0 PUSH2 0x100 EXP DUP2 SLOAD DUP2 PUSH1 0xFF MUL NOT AND SWAP1 DUP4 PUSH1 0xFF AND MUL OR SWAP1 SSTORE POP PUSH1 0x40 MLOAD DUP1 PUSH1 0x40 ADD PUSH1 0x40 MSTORE DUP1 PUSH1 0x7 DUP2 MSTORE PUSH1 0x20 ADD PUSH32 0x4D6F6465726E6100000000000000000000000000000000000000000000000000 DUP2 MSTORE POP PUSH1 0x3 PUSH1 0x0 DUP1 PUSH1 0xFF AND DUP2 MSTORE PUSH1 0x20 ADD SWAP1 DUP2 MSTORE PUSH1 0x20 ADD PUSH1 0x0 KECCAK256 SWAP1 DUP1 MLOAD SWAP1 PUSH1 0x20 ADD SWAP1 PUSH3 0x126 SWAP3 SWAP2 SWAP1 PUSH3 0x271 JUMP JUMPDEST POP PUSH1 0x40 MLOAD DUP1 PUSH1 0x40 ADD PUSH1 0x40 MSTORE DUP1 PUSH1 0x6 DUP2 MSTORE PUSH1 0x20 ADD PUSH32 0x5066697A65720000000000000000000000000000000000000000000000000000 DUP2 MSTORE POP PUSH1 0x3 PUSH1 0x0 PUSH1 0x1 PUSH1 0xFF AND DUP2 MSTORE PUSH1 0x20 ADD SWAP1 DUP2 MSTORE PUSH1 0x20 ADD PUSH1 0x0 KECCAK256 SWAP1 DUP1 MLOAD SWAP1 PUSH1 0x20 ADD SWAP1 PUSH3 0x189 SWAP3 SWAP2 SWAP1 PUSH3 0x271 JUMP JUMPDEST POP PUSH1 0x40 MLOAD DUP1 PUSH1 0x40 ADD PUSH1 0x40 MSTORE DUP1 PUSH1 0x7 DUP2 MSTORE PUSH1 0x20 ADD PUSH32 0x4A616E7373656E00000000000000000000000000000000000000000000000000 DUP2 MSTORE POP PUSH1 0x3 PUSH1 0x0 PUSH1 0x2 PUSH1 0xFF AND DUP2 MSTORE PUSH1 0x20 ADD SWAP1 DUP2 MSTORE PUSH1 0x20 ADD PUSH1 0x0 KECCAK256 SWAP1 DUP1 MLOAD SWAP1 PUSH1 0x20 ADD SWAP1 PUSH3 0x1EC SWAP3 SWAP2 SWAP1 PUSH3 0x271 JUMP JUMPDEST POP PUSH1 0x40 MLOAD DUP1 PUSH1 0x40 ADD PUSH1 0x40 MSTORE DUP1 PUSH1 0xB DUP2 MSTORE PUSH1 0x20 ADD PUSH32 0x41737472617A656E656361000000000000000000000000000000000000000000 DUP2 MSTORE POP PUSH1 0x3 PUSH1 0x0 PUSH1 0x3 PUSH1 0xFF AND DUP2 MSTORE PUSH1 0x20 ADD SWAP1 DUP2 MSTORE PUSH1 0x20 ADD PUSH1 0x0 KECCAK256 SWAP1 DUP1 MLOAD SWAP1 PUSH1 0x20 ADD SWAP1 PUSH3 0x24F SWAP3 SWAP2 SWAP1 PUSH3 0x271 JUMP JUMPDEST POP PUSH1 0x4 DUP1 PUSH1 0x0 PUSH2 0x100 EXP DUP2 SLOAD DUP2 PUSH1 0xFF MUL NOT AND SWAP1 DUP4 PUSH1 0xFF AND MUL OR SWAP1 SSTORE POP PUSH3 0x386 JUMP JUMPDEST DUP3 DUP1 SLOAD PUSH3 0x27F SWAP1 PUSH3 0x321 JUMP JUMPDEST SWAP1 PUSH1 0x0 MSTORE PUSH1 0x20 PUSH1 0x0 KECCAK256 SWAP1 PUSH1 0x1F ADD PUSH1 0x20 SWAP1 DIV DUP2 ADD SWAP3 DUP3 PUSH3 0x2A3 JUMPI PUSH1 0x0 DUP6 SSTORE PUSH3 0x2EF JUMP JUMPDEST DUP3 PUSH1 0x1F LT PUSH3 0x2BE JUMPI DUP1 MLOAD PUSH1 0xFF NOT AND DUP4 DUP1 ADD OR DUP6 SSTORE PUSH3 0x2EF JUMP JUMPDEST DUP3 DUP1 ADD PUSH1 0x1 ADD DUP6 SSTORE DUP3 ISZERO PUSH3 0x2EF JUMPI SWAP2 DUP3 ADD JUMPDEST DUP3 DUP2 GT ISZERO PUSH3 0x2EE JUMPI DUP3 MLOAD DUP3 SSTORE SWAP2 PUSH1 0x20 ADD SWAP2 SWAP1 PUSH1 0x1 ADD SWAP1 PUSH3 0x2D1 JUMP JUMPDEST JUMPDEST POP SWAP1 POP PUSH3 0x2FE SWAP2 SWAP1 PUSH3 0x302 JUMP JUMPDEST POP SWAP1 JUMP JUMPDEST JUMPDEST DUP1 DUP3 GT ISZERO PUSH3 0x31D JUMPI PUSH1 0x0 DUP2 PUSH1 0x0 SWAP1 SSTORE POP PUSH1 0x1 ADD PUSH3 0x303 JUMP JUMPDEST POP SWAP1 JUMP JUMPDEST PUSH1 0x0 PUSH1 0x2 DUP3 DIV SWAP1 POP PUSH1 0x1 DUP3 AND DUP1 PUSH3 0x33A JUMPI PUSH1 0x7F DUP3 AND SWAP2 POP JUMPDEST PUSH1 0x20 DUP3 LT DUP2 EQ ISZERO PUSH3 0x351 JUMPI PUSH3 0x350 PUSH3 0x357 JUMP JUMPDEST JUMPDEST POP SWAP2 SWAP1 POP JUMP JUMPDEST PUSH32 0x4E487B7100000000000000000000000000000000000000000000000000000000 PUSH1 0x0 MSTORE PUSH1 0x22 PUSH1 0x4 MSTORE PUSH1 0x24 PUSH1 0x0 REVERT JUMPDEST PUSH2 0x1A5E DUP1 PUSH3 0x396 PUSH1 0x0 CODECOPY PUSH1 0x0 RETURN INVALID PUSH1 0x80 PUSH1 0x40 MSTORE CALLVALUE DUP1 ISZERO PUSH2 0x10 JUMPI PUSH1 0x0 DUP1 REVERT JUMPDEST POP PUSH1 0x4 CALLDATASIZE LT PUSH2 0x9E JUMPI PUSH1 0x0 CALLDATALOAD PUSH1 0xE0 SHR DUP1 PUSH4 0x45695248 GT PUSH2 0x66 JUMPI DUP1 PUSH4 0x45695248 EQ PUSH2 0x193 JUMPI DUP1 PUSH4 0x877B9A67 EQ PUSH2 0x1C3 JUMPI DUP1 PUSH4 0x959D0258 EQ PUSH2 0x1F3 JUMPI DUP1 PUSH4 0xD1658546 EQ PUSH2 0x223 JUMPI DUP1 PUSH4 0xF2FDE38B EQ PUSH2 0x253 JUMPI PUSH2 0x9E JUMP JUMPDEST DUP1 PUSH4 0x20694DB0 EQ PUSH2 0xA3 JUMPI DUP1 PUSH4 0x34BECFB4 EQ PUSH2 0xD3 JUMPI DUP1 PUSH4 0x36145996 EQ PUSH2 0x103 JUMPI DUP1 PUSH4 0x38A7543E EQ PUSH2 0x133 JUMPI DUP1 PUSH4 0x3F8A37DC EQ PUSH2 0x163 JUMPI JUMPDEST PUSH1 0x0 DUP1 REVERT JUMPDEST PUSH2 0xBD PUSH1 0x4 DUP1 CALLDATASIZE SUB DUP2 ADD SWAP1 PUSH2 0xB8 SWAP2 SWAP1 PUSH2 0x1245 JUMP JUMPDEST PUSH2 0x26F JUMP JUMPDEST PUSH1 0x40 MLOAD PUSH2 0xCA SWAP2 SWAP1 PUSH2 0x1678 JUMP JUMPDEST PUSH1 0x40 MLOAD DUP1 SWAP2 SUB SWAP1 RETURN JUMPDEST PUSH2 0xED PUSH1 0x4 DUP1 CALLDATASIZE SUB DUP2 ADD SWAP1 PUSH2 0xE8 SWAP2 SWAP1 PUSH2 0x1245 JUMP JUMPDEST PUSH2 0x3CA JUMP JUMPDEST PUSH1 0x40 MLOAD PUSH2 0xFA SWAP2 SWAP1 PUSH2 0x1678 JUMP JUMPDEST PUSH1 0x40 MLOAD DUP1 SWAP2 SUB SWAP1 RETURN JUMPDEST PUSH2 0x11D PUSH1 0x4 DUP1 CALLDATASIZE SUB DUP2 ADD SWAP1 PUSH2 0x118 SWAP2 SWAP1 PUSH2 0x1305 JUMP JUMPDEST PUSH2 0x526 JUMP JUMPDEST PUSH1 0x40 MLOAD PUSH2 0x12A SWAP2 SWAP1 PUSH2 0x1678 JUMP JUMPDEST PUSH1 0x40 MLOAD DUP1 SWAP2 SUB SWAP1 RETURN JUMPDEST PUSH2 0x14D PUSH1 0x4 DUP1 CALLDATASIZE SUB DUP2 ADD SWAP1 PUSH2 0x148 SWAP2 SWAP1 PUSH2 0x1245 JUMP JUMPDEST PUSH2 0x6E5 JUMP JUMPDEST PUSH1 0x40 MLOAD PUSH2 0x15A SWAP2 SWAP1 PUSH2 0x1678 JUMP JUMPDEST PUSH1 0x40 MLOAD DUP1 SWAP2 SUB SWAP1 RETURN JUMPDEST PUSH2 0x17D PUSH1 0x4 DUP1 CALLDATASIZE SUB DUP2 ADD SWAP1 PUSH2 0x178 SWAP2 SWAP1 PUSH2 0x13DA JUMP JUMPDEST PUSH2 0x705 JUMP JUMPDEST PUSH1 0x40 MLOAD PUSH2 0x18A SWAP2 SWAP1 PUSH2 0x1693 JUMP JUMPDEST PUSH1 0x40 MLOAD DUP1 SWAP2 SUB SWAP1 RETURN JUMPDEST PUSH2 0x1AD PUSH1 0x4 DUP1 CALLDATASIZE SUB DUP2 ADD SWAP1 PUSH2 0x1A8 SWAP2 SWAP1 PUSH2 0x12B2 JUMP JUMPDEST PUSH2 0x819 JUMP JUMPDEST PUSH1 0x40 MLOAD PUSH2 0x1BA SWAP2 SWAP1 PUSH2 0x1678 JUMP JUMPDEST PUSH1 0x40 MLOAD DUP1 SWAP2 SUB SWAP1 RETURN JUMPDEST PUSH2 0x1DD PUSH1 0x4 DUP1 CALLDATASIZE SUB DUP2 ADD SWAP1 PUSH2 0x1D8 SWAP2 SWAP1 PUSH2 0x1245 JUMP JUMPDEST PUSH2 0xADF JUMP JUMPDEST PUSH1 0x40 MLOAD PUSH2 0x1EA SWAP2 SWAP1 PUSH2 0x1678 JUMP JUMPDEST PUSH1 0x40 MLOAD DUP1 SWAP2 SUB SWAP1 RETURN JUMPDEST PUSH2 0x20D PUSH1 0x4 DUP1 CALLDATASIZE SUB DUP2 ADD SWAP1 PUSH2 0x208 SWAP2 SWAP1 PUSH2 0x1272 JUMP JUMPDEST PUSH2 0xB35 JUMP JUMPDEST PUSH1 0x40 MLOAD PUSH2 0x21A SWAP2 SWAP1 PUSH2 0x1735 JUMP JUMPDEST PUSH1 0x40 MLOAD DUP1 SWAP2 SUB SWAP1 RETURN JUMPDEST PUSH2 0x23D PUSH1 0x4 DUP1 CALLDATASIZE SUB DUP2 ADD SWAP1 PUSH2 0x238 SWAP2 SWAP1 PUSH2 0x138D JUMP JUMPDEST PUSH2 0xDE9 JUMP JUMPDEST PUSH1 0x40 MLOAD PUSH2 0x24A SWAP2 SWAP1 PUSH2 0x1678 JUMP JUMPDEST PUSH1 0x40 MLOAD DUP1 SWAP2 SUB SWAP1 RETURN JUMPDEST PUSH2 0x26D PUSH1 0x4 DUP1 CALLDATASIZE SUB DUP2 ADD SWAP1 PUSH2 0x268 SWAP2 SWAP1 PUSH2 0x1245 JUMP JUMPDEST PUSH2 0xF39 JUMP JUMPDEST STOP JUMPDEST PUSH1 0x0 DUP1 PUSH1 0x0 SWAP1 SLOAD SWAP1 PUSH2 0x100 EXP SWAP1 DIV PUSH20 0xFFFFFFFFFFFFFFFFFFFFFFFFFFFFFFFFFFFFFFFF AND PUSH20 0xFFFFFFFFFFFFFFFFFFFFFFFFFFFFFFFFFFFFFFFF AND CALLER PUSH20 0xFFFFFFFFFFFFFFFFFFFFFFFFFFFFFFFFFFFFFFFF AND EQ PUSH2 0x2CA JUMPI PUSH1 0x0 DUP1 REVERT JUMPDEST PUSH1 0x0 ISZERO ISZERO PUSH1 0x1 PUSH1 0x0 DUP5 PUSH20 0xFFFFFFFFFFFFFFFFFFFFFFFFFFFFFFFFFFFFFFFF AND PUSH20 0xFFFFFFFFFFFFFFFFFFFFFFFFFFFFFFFFFFFFFFFF AND DUP2 MSTORE PUSH1 0x20 ADD SWAP1 DUP2 MSTORE PUSH1 0x20 ADD PUSH1 0x0 KECCAK256 PUSH1 0x0 SWAP1 SLOAD SWAP1 PUSH2 0x100 EXP SWAP1 DIV PUSH1 0xFF AND ISZERO ISZERO EQ PUSH2 0x327 JUMPI PUSH1 0x0 DUP1 REVERT JUMPDEST PUSH1 0x1 DUP1 PUSH1 0x0 DUP5 PUSH20 0xFFFFFFFFFFFFFFFFFFFFFFFFFFFFFFFFFFFFFFFF AND PUSH20 0xFFFFFFFFFFFFFFFFFFFFFFFFFFFFFFFFFFFFFFFF AND DUP2 MSTORE PUSH1 0x20 ADD SWAP1 DUP2 MSTORE PUSH1 0x20 ADD PUSH1 0x0 KECCAK256 PUSH1 0x0 PUSH2 0x100 EXP DUP2 SLOAD DUP2 PUSH1 0xFF MUL NOT AND SWAP1 DUP4 ISZERO ISZERO MUL OR SWAP1 SSTORE POP DUP2 PUSH20 0xFFFFFFFFFFFFFFFFFFFFFFFFFFFFFFFFFFFFFFFF AND PUSH32 0x27AA0506E4DA65B95BD4F61C697076F8C7DCB69B2C0937D11EFA9CEAA3BF5A95 PUSH1 0x40 MLOAD PUSH1 0x40 MLOAD DUP1 SWAP2 SUB SWAP1 LOG2 PUSH1 0x1 SWAP1 POP SWAP2 SWAP1 POP JUMP JUMPDEST PUSH1 0x0 DUP1 PUSH1 0x0 SWAP1 SLOAD SWAP1 PUSH2 0x100 EXP SWAP1 DIV PUSH20 0xFFFFFFFFFFFFFFFFFFFFFFFFFFFFFFFFFFFFFFFF AND PUSH20 0xFFFFFFFFFFFFFFFFFFFFFFFFFFFFFFFFFFFFFFFF AND CALLER PUSH20 0xFFFFFFFFFFFFFFFFFFFFFFFFFFFFFFFFFFFFFFFF AND EQ PUSH2 0x425 JUMPI PUSH1 0x0 DUP1 REVERT JUMPDEST PUSH1 0x1 ISZERO ISZERO PUSH1 0x1 PUSH1 0x0 DUP5 PUSH20 0xFFFFFFFFFFFFFFFFFFFFFFFFFFFFFFFFFFFFFFFF AND PUSH20 0xFFFFFFFFFFFFFFFFFFFFFFFFFFFFFFFFFFFFFFFF AND DUP2 MSTORE PUSH1 0x20 ADD SWAP1 DUP2 MSTORE PUSH1 0x20 ADD PUSH1 0x0 KECCAK256 PUSH1 0x0 SWAP1 SLOAD SWAP1 PUSH2 0x100 EXP SWAP1 DIV PUSH1 0xFF AND ISZERO ISZERO EQ PUSH2 0x482 JUMPI PUSH1 0x0 DUP1 REVERT JUMPDEST PUSH1 0x0 PUSH1 0x1 PUSH1 0x0 DUP5 PUSH20 0xFFFFFFFFFFFFFFFFFFFFFFFFFFFFFFFFFFFFFFFF AND PUSH20 0xFFFFFFFFFFFFFFFFFFFFFFFFFFFFFFFFFFFFFFFF AND DUP2 MSTORE PUSH1 0x20 ADD SWAP1 DUP2 MSTORE PUSH1 0x20 ADD PUSH1 0x0 KECCAK256 PUSH1 0x0 PUSH2 0x100 EXP DUP2 SLOAD DUP2 PUSH1 0xFF MUL NOT AND SWAP1 DUP4 ISZERO ISZERO MUL OR SWAP1 SSTORE POP DUP2 PUSH20 0xFFFFFFFFFFFFFFFFFFFFFFFFFFFFFFFFFFFFFFFF AND PUSH32 0xEE5D7D94405E51EEC1BD7F59C36572787D25AFB6C85E3A897BB782F08AAC7D44 PUSH1 0x40 MLOAD PUSH1 0x40 MLOAD DUP1 SWAP2 SUB SWAP1 LOG2 PUSH1 0x1 SWAP1 POP SWAP2 SWAP1 POP JUMP JUMPDEST PUSH1 0x0 PUSH1 0x1 ISZERO ISZERO PUSH2 0x535 CALLER PUSH2 0xADF JUMP JUMPDEST ISZERO ISZERO EQ PUSH2 0x541 JUMPI PUSH1 0x0 DUP1 REVERT JUMPDEST PUSH1 0x0 PUSH1 0x5 PUSH1 0x0 DUP9 PUSH20 0xFFFFFFFFFFFFFFFFFFFFFFFFFFFFFFFFFFFFFFFF AND PUSH20 0xFFFFFFFFFFFFFFFFFFFFFFFFFFFFFFFFFFFFFFFF AND DUP2 MSTORE PUSH1 0x20 ADD SWAP1 DUP2 MSTORE PUSH1 0x20 ADD PUSH1 0x0 KECCAK256 SWAP1 POP PUSH1 0x0 DUP2 PUSH1 0x0 ADD SLOAD EQ PUSH2 0x595 JUMPI PUSH1 0x0 DUP1 REVERT JUMPDEST PUSH1 0x1 DUP7 PUSH1 0xFF AND EQ PUSH2 0x5A5 JUMPI PUSH1 0x0 DUP1 REVERT JUMPDEST PUSH1 0x2 PUSH1 0x0 SWAP1 SLOAD SWAP1 PUSH2 0x100 EXP SWAP1 DIV PUSH1 0xFF AND PUSH1 0xFF AND DUP2 PUSH1 0x0 ADD DUP2 SWAP1 SSTORE POP CALLER DUP2 PUSH1 0x2 ADD PUSH1 0x0 DUP9 PUSH1 0xFF AND PUSH1 0xFF AND DUP2 MSTORE PUSH1 0x20 ADD SWAP1 DUP2 MSTORE PUSH1 0x20 ADD PUSH1 0x0 KECCAK256 PUSH1 0x0 PUSH2 0x100 EXP DUP2 SLOAD DUP2 PUSH20 0xFFFFFFFFFFFFFFFFFFFFFFFFFFFFFFFFFFFFFFFF MUL NOT AND SWAP1 DUP4 PUSH20 0xFFFFFFFFFFFFFFFFFFFFFFFFFFFFFFFFFFFFFFFF AND MUL OR SWAP1 SSTORE POP DUP5 DUP2 PUSH1 0x3 ADD PUSH1 0x0 DUP9 PUSH1 0xFF AND PUSH1 0xFF AND DUP2 MSTORE PUSH1 0x20 ADD SWAP1 DUP2 MSTORE PUSH1 0x20 ADD PUSH1 0x0 KECCAK256 PUSH1 0x0 PUSH2 0x100 EXP DUP2 SLOAD DUP2 PUSH1 0xFF MUL NOT AND SWAP1 DUP4 PUSH1 0xFF AND MUL OR SWAP1 SSTORE POP TIMESTAMP DUP2 PUSH1 0x4 ADD PUSH1 0x0 DUP9 PUSH1 0xFF AND PUSH1 0xFF AND DUP2 MSTORE PUSH1 0x20 ADD SWAP1 DUP2 MSTORE PUSH1 0x20 ADD PUSH1 0x0 KECCAK256 DUP2 SWAP1 SSTORE POP DUP4 DUP4 DUP3 PUSH1 0x1 ADD SWAP2 SWAP1 PUSH2 0x681 SWAP3 SWAP2 SWAP1 PUSH2 0x10E1 JUMP JUMPDEST POP PUSH1 0x1 DUP2 PUSH1 0x5 ADD PUSH1 0x0 PUSH2 0x100 EXP DUP2 SLOAD DUP2 PUSH1 0xFF MUL NOT AND SWAP1 DUP4 PUSH1 0xFF AND MUL OR SWAP1 SSTORE POP PUSH1 0x1 PUSH1 0x2 PUSH1 0x0 DUP3 DUP3 DUP3 SWAP1 SLOAD SWAP1 PUSH2 0x100 EXP SWAP1 DIV PUSH1 0xFF AND PUSH2 0x6BF SWAP2 SWAP1 PUSH2 0x17A4 JUMP JUMPDEST SWAP3 POP PUSH2 0x100 EXP DUP2 SLOAD DUP2 PUSH1 0xFF MUL NOT AND SWAP1 DUP4 PUSH1 0xFF AND MUL OR SWAP1 SSTORE POP PUSH1 0x1 SWAP2 POP POP SWAP6 SWAP5 POP POP POP POP POP JUMP JUMPDEST PUSH1 0x1 PUSH1 0x20 MSTORE DUP1 PUSH1 0x0 MSTORE PUSH1 0x40 PUSH1 0x0 KECCAK256 PUSH1 0x0 SWAP2 POP SLOAD SWAP1 PUSH2 0x100 EXP SWAP1 DIV PUSH1 0xFF AND DUP2 JUMP JUMPDEST PUSH1 0x60 PUSH1 0x0 PUSH1 0x3 PUSH1 0x0 DUP5 PUSH1 0xFF AND PUSH1 0xFF AND DUP2 MSTORE PUSH1 0x20 ADD SWAP1 DUP2 MSTORE PUSH1 0x20 ADD PUSH1 0x0 KECCAK256 DUP1 SLOAD PUSH2 0x72D SWAP1 PUSH2 0x1872 JUMP JUMPDEST SWAP1 POP EQ ISZERO PUSH2 0x770 JUMPI PUSH1 0x40 MLOAD PUSH32 0x8C379A000000000000000000000000000000000000000000000000000000000 DUP2 MSTORE PUSH1 0x4 ADD PUSH2 0x767 SWAP1 PUSH2 0x16D5 JUMP JUMPDEST PUSH1 0x40 MLOAD DUP1 SWAP2 SUB SWAP1 REVERT JUMPDEST PUSH1 0x3 PUSH1 0x0 DUP4 PUSH1 0xFF AND PUSH1 0xFF AND DUP2 MSTORE PUSH1 0x20 ADD SWAP1 DUP2 MSTORE PUSH1 0x20 ADD PUSH1 0x0 KECCAK256 DUP1 SLOAD PUSH2 0x794 SWAP1 PUSH2 0x1872 JUMP JUMPDEST DUP1 PUSH1 0x1F ADD PUSH1 0x20 DUP1 SWAP2 DIV MUL PUSH1 0x20 ADD PUSH1 0x40 MLOAD SWAP1 DUP2 ADD PUSH1 0x40 MSTORE DUP1 SWAP3 SWAP2 SWAP1 DUP2 DUP2 MSTORE PUSH1 0x20 ADD DUP3 DUP1 SLOAD PUSH2 0x7C0 SWAP1 PUSH2 0x1872 JUMP JUMPDEST DUP1 ISZERO PUSH2 0x80D JUMPI DUP1 PUSH1 0x1F LT PUSH2 0x7E2 JUMPI PUSH2 0x100 DUP1 DUP4 SLOAD DIV MUL DUP4 MSTORE SWAP2 PUSH1 0x20 ADD SWAP2 PUSH2 0x80D JUMP JUMPDEST DUP3 ADD SWAP2 SWAP1 PUSH1 0x0 MSTORE PUSH1 0x20 PUSH1 0x0 KECCAK256 SWAP1 JUMPDEST DUP2 SLOAD DUP2 MSTORE SWAP1 PUSH1 0x1 ADD SWAP1 PUSH1 0x20 ADD DUP1 DUP4 GT PUSH2 0x7F0 JUMPI DUP3 SWAP1 SUB PUSH1 0x1F AND DUP3 ADD SWAP2 JUMPDEST POP POP POP POP POP SWAP1 POP SWAP2 SWAP1 POP JUMP JUMPDEST PUSH1 0x0 PUSH1 0x1 ISZERO ISZERO PUSH2 0x828 CALLER PUSH2 0xADF JUMP JUMPDEST ISZERO ISZERO EQ PUSH2 0x834 JUMPI PUSH1 0x0 DUP1 REVERT JUMPDEST PUSH1 0x0 PUSH1 0x5 PUSH1 0x0 DUP7 PUSH20 0xFFFFFFFFFFFFFFFFFFFFFFFFFFFFFFFFFFFFFFFF AND PUSH20 0xFFFFFFFFFFFFFFFFFFFFFFFFFFFFFFFFFFFFFFFF AND DUP2 MSTORE PUSH1 0x20 ADD SWAP1 DUP2 MSTORE PUSH1 0x20 ADD PUSH1 0x0 KECCAK256 PUSH1 0x0 ADD SLOAD EQ ISZERO PUSH2 0x8BA JUMPI PUSH1 0x40 MLOAD PUSH32 0x8C379A000000000000000000000000000000000000000000000000000000000 DUP2 MSTORE PUSH1 0x4 ADD PUSH2 0x8B1 SWAP1 PUSH2 0x16B5 JUMP JUMPDEST PUSH1 0x40 MLOAD DUP1 SWAP2 SUB SWAP1 REVERT JUMPDEST PUSH1 0x4 PUSH1 0x0 SWAP1 SLOAD SWAP1 PUSH2 0x100 EXP SWAP1 DIV PUSH1 0xFF AND PUSH1 0xFF AND DUP3 PUSH1 0xFF AND LT PUSH2 0x911 JUMPI PUSH1 0x40 MLOAD PUSH32 0x8C379A000000000000000000000000000000000000000000000000000000000 DUP2 MSTORE PUSH1 0x4 ADD PUSH2 0x908 SWAP1 PUSH2 0x16D5 JUMP JUMPDEST PUSH1 0x40 MLOAD DUP1 SWAP2 SUB SWAP1 REVERT JUMPDEST DUP2 PUSH1 0x5 PUSH1 0x0 DUP7 PUSH20 0xFFFFFFFFFFFFFFFFFFFFFFFFFFFFFFFFFFFFFFFF AND PUSH20 0xFFFFFFFFFFFFFFFFFFFFFFFFFFFFFFFFFFFFFFFF AND DUP2 MSTORE PUSH1 0x20 ADD SWAP1 DUP2 MSTORE PUSH1 0x20 ADD PUSH1 0x0 KECCAK256 PUSH1 0x3 ADD PUSH1 0x0 DUP6 PUSH1 0xFF AND PUSH1 0xFF AND DUP2 MSTORE PUSH1 0x20 ADD SWAP1 DUP2 MSTORE PUSH1 0x20 ADD PUSH1 0x0 KECCAK256 PUSH1 0x0 PUSH2 0x100 EXP DUP2 SLOAD DUP2 PUSH1 0xFF MUL NOT AND SWAP1 DUP4 PUSH1 0xFF AND MUL OR SWAP1 SSTORE POP TIMESTAMP PUSH1 0x5 PUSH1 0x0 DUP7 PUSH20 0xFFFFFFFFFFFFFFFFFFFFFFFFFFFFFFFFFFFFFFFF AND PUSH20 0xFFFFFFFFFFFFFFFFFFFFFFFFFFFFFFFFFFFFFFFF AND DUP2 MSTORE PUSH1 0x20 ADD SWAP1 DUP2 MSTORE PUSH1 0x20 ADD PUSH1 0x0 KECCAK256 PUSH1 0x4 ADD PUSH1 0x0 DUP6 PUSH1 0xFF AND PUSH1 0xFF AND DUP2 MSTORE PUSH1 0x20 ADD SWAP1 DUP2 MSTORE PUSH1 0x20 ADD PUSH1 0x0 KECCAK256 DUP2 SWAP1 SSTORE POP DUP3 PUSH1 0x5 PUSH1 0x0 DUP7 PUSH20 0xFFFFFFFFFFFFFFFFFFFFFFFFFFFFFFFFFFFFFFFF AND PUSH20 0xFFFFFFFFFFFFFFFFFFFFFFFFFFFFFFFFFFFFFFFF AND DUP2 MSTORE PUSH1 0x20 ADD SWAP1 DUP2 MSTORE PUSH1 0x20 ADD PUSH1 0x0 KECCAK256 PUSH1 0x5 ADD PUSH1 0x0 PUSH2 0x100 EXP DUP2 SLOAD DUP2 PUSH1 0xFF MUL NOT AND SWAP1 DUP4 PUSH1 0xFF AND MUL OR SWAP1 SSTORE POP CALLER PUSH1 0x5 PUSH1 0x0 DUP7 PUSH20 0xFFFFFFFFFFFFFFFFFFFFFFFFFFFFFFFFFFFFFFFF AND PUSH20 0xFFFFFFFFFFFFFFFFFFFFFFFFFFFFFFFFFFFFFFFF AND DUP2 MSTORE PUSH1 0x20 ADD SWAP1 DUP2 MSTORE PUSH1 0x20 ADD PUSH1 0x0 KECCAK256 PUSH1 0x2 ADD PUSH1 0x0 DUP6 PUSH1 0xFF AND PUSH1 0xFF AND DUP2 MSTORE PUSH1 0x20 ADD SWAP1 DUP2 MSTORE PUSH1 0x20 ADD PUSH1 0x0 KECCAK256 PUSH1 0x0 PUSH2 0x100 EXP DUP2 SLOAD DUP2 PUSH20 0xFFFFFFFFFFFFFFFFFFFFFFFFFFFFFFFFFFFFFFFF MUL NOT AND SWAP1 DUP4 PUSH20 0xFFFFFFFFFFFFFFFFFFFFFFFFFFFFFFFFFFFFFFFF AND MUL OR SWAP1 SSTORE POP PUSH1 0x1 SWAP1 POP SWAP4 SWAP3 POP POP POP JUMP JUMPDEST PUSH1 0x0 PUSH1 0x1 PUSH1 0x0 DUP4 PUSH20 0xFFFFFFFFFFFFFFFFFFFFFFFFFFFFFFFFFFFFFFFF AND PUSH20 0xFFFFFFFFFFFFFFFFFFFFFFFFFFFFFFFFFFFFFFFF AND DUP2 MSTORE PUSH1 0x20 ADD SWAP1 DUP2 MSTORE PUSH1 0x20 ADD PUSH1 0x0 KECCAK256 PUSH1 0x0 SWAP1 SLOAD SWAP1 PUSH2 0x100 EXP SWAP1 DIV PUSH1 0xFF AND SWAP1 POP SWAP2 SWAP1 POP JUMP JUMPDEST PUSH2 0xB3D PUSH2 0x1167 JUMP JUMPDEST PUSH1 0x0 PUSH1 0x5 PUSH1 0x0 DUP6 PUSH20 0xFFFFFFFFFFFFFFFFFFFFFFFFFFFFFFFFFFFFFFFF AND PUSH20 0xFFFFFFFFFFFFFFFFFFFFFFFFFFFFFFFFFFFFFFFF AND DUP2 MSTORE PUSH1 0x20 ADD SWAP1 DUP2 MSTORE PUSH1 0x20 ADD PUSH1 0x0 KECCAK256 PUSH1 0x0 ADD SLOAD EQ ISZERO PUSH2 0xBC3 JUMPI PUSH1 0x40 MLOAD PUSH32 0x8C379A000000000000000000000000000000000000000000000000000000000 DUP2 MSTORE PUSH1 0x4 ADD PUSH2 0xBBA SWAP1 PUSH2 0x16B5 JUMP JUMPDEST PUSH1 0x40 MLOAD DUP1 SWAP2 SUB SWAP1 REVERT JUMPDEST PUSH1 0x5 PUSH1 0x0 DUP5 PUSH20 0xFFFFFFFFFFFFFFFFFFFFFFFFFFFFFFFFFFFFFFFF AND PUSH20 0xFFFFFFFFFFFFFFFFFFFFFFFFFFFFFFFFFFFFFFFF AND DUP2 MSTORE PUSH1 0x20 ADD SWAP1 DUP2 MSTORE PUSH1 0x20 ADD PUSH1 0x0 KECCAK256 PUSH1 0x5 ADD PUSH1 0x0 SWAP1 SLOAD SWAP1 PUSH2 0x100 EXP SWAP1 DIV PUSH1 0xFF AND PUSH1 0xFF AND DUP3 PUSH1 0xFF AND GT ISZERO PUSH2 0xC5B JUMPI PUSH1 0x40 MLOAD PUSH32 0x8C379A000000000000000000000000000000000000000000000000000000000 DUP2 MSTORE PUSH1 0x4 ADD PUSH2 0xC52 SWAP1 PUSH2 0x16F5 JUMP JUMPDEST PUSH1 0x40 MLOAD DUP1 SWAP2 SUB SWAP1 REVERT JUMPDEST PUSH1 0x60 PUSH2 0xCCC PUSH1 0x5 PUSH1 0x0 DUP7 PUSH20 0xFFFFFFFFFFFFFFFFFFFFFFFFFFFFFFFFFFFFFFFF AND PUSH20 0xFFFFFFFFFFFFFFFFFFFFFFFFFFFFFFFFFFFFFFFF AND DUP2 MSTORE PUSH1 0x20 ADD SWAP1 DUP2 MSTORE PUSH1 0x20 ADD PUSH1 0x0 KECCAK256 PUSH1 0x3 ADD PUSH1 0x0 DUP6 PUSH1 0xFF AND PUSH1 0xFF AND DUP2 MSTORE PUSH1 0x20 ADD SWAP1 DUP2 MSTORE PUSH1 0x20 ADD PUSH1 0x0 KECCAK256 PUSH1 0x0 SWAP1 SLOAD SWAP1 PUSH2 0x100 EXP SWAP1 DIV PUSH1 0xFF AND PUSH2 0x705 JUMP JUMPDEST SWAP1 POP PUSH1 0x0 PUSH1 0x40 MLOAD DUP1 PUSH1 0x80 ADD PUSH1 0x40 MSTORE DUP1 PUSH1 0x5 PUSH1 0x0 DUP9 PUSH20 0xFFFFFFFFFFFFFFFFFFFFFFFFFFFFFFFFFFFFFFFF AND PUSH20 0xFFFFFFFFFFFFFFFFFFFFFFFFFFFFFFFFFFFFFFFF AND DUP2 MSTORE PUSH1 0x20 ADD SWAP1 DUP2 MSTORE PUSH1 0x20 ADD PUSH1 0x0 KECCAK256 PUSH1 0x2 ADD PUSH1 0x0 DUP8 PUSH1 0xFF AND PUSH1 0xFF AND DUP2 MSTORE PUSH1 0x20 ADD SWAP1 DUP2 MSTORE PUSH1 0x20 ADD PUSH1 0x0 KECCAK256 PUSH1 0x0 SWAP1 SLOAD SWAP1 PUSH2 0x100 EXP SWAP1 DIV PUSH20 0xFFFFFFFFFFFFFFFFFFFFFFFFFFFFFFFFFFFFFFFF AND PUSH20 0xFFFFFFFFFFFFFFFFFFFFFFFFFFFFFFFFFFFFFFFF AND DUP2 MSTORE PUSH1 0x20 ADD DUP4 DUP2 MSTORE PUSH1 0x20 ADD DUP6 PUSH1 0xFF AND DUP2 MSTORE PUSH1 0x20 ADD PUSH1 0x5 PUSH1 0x0 DUP9 PUSH20 0xFFFFFFFFFFFFFFFFFFFFFFFFFFFFFFFFFFFFFFFF AND PUSH20 0xFFFFFFFFFFFFFFFFFFFFFFFFFFFFFFFFFFFFFFFF AND DUP2 MSTORE PUSH1 0x20 ADD SWAP1 DUP2 MSTORE PUSH1 0x20 ADD PUSH1 0x0 KECCAK256 PUSH1 0x4 ADD PUSH1 0x0 DUP8 PUSH1 0xFF AND PUSH1 0xFF AND DUP2 MSTORE PUSH1 0x20 ADD SWAP1 DUP2 MSTORE PUSH1 0x20 ADD PUSH1 0x0 KECCAK256 SLOAD DUP2 MSTORE POP SWAP1 POP DUP1 SWAP3 POP POP POP SWAP3 SWAP2 POP POP JUMP JUMPDEST PUSH1 0x0 PUSH1 0x1 ISZERO ISZERO PUSH2 0xDF8 CALLER PUSH2 0xADF JUMP JUMPDEST ISZERO ISZERO EQ PUSH2 0xE04 JUMPI PUSH1 0x0 DUP1 REVERT JUMPDEST PUSH1 0x0 JUMPDEST PUSH1 0x4 PUSH1 0x0 SWAP1 SLOAD SWAP1 PUSH2 0x100 EXP SWAP1 DIV PUSH1 0xFF AND PUSH1 0xFF AND DUP2 PUSH1 0xFF AND LT ISZERO PUSH2 0xEBE JUMPI PUSH1 0x3 PUSH1 0x0 DUP3 PUSH1 0xFF AND PUSH1 0xFF AND DUP2 MSTORE PUSH1 0x20 ADD SWAP1 DUP2 MSTORE PUSH1 0x20 ADD PUSH1 0x0 KECCAK256 PUSH1 0x40 MLOAD PUSH2 0xE4A SWAP2 SWAP1 PUSH2 0x1661 JUMP JUMPDEST PUSH1 0x40 MLOAD DUP1 SWAP2 SUB SWAP1 KECCAK256 DUP5 DUP5 PUSH1 0x40 MLOAD PUSH2 0xE62 SWAP3 SWAP2 SWAP1 PUSH2 0x1648 JUMP JUMPDEST PUSH1 0x40 MLOAD DUP1 SWAP2 SUB SWAP1 KECCAK256 EQ ISZERO PUSH2 0xEAB JUMPI PUSH1 0x40 MLOAD PUSH32 0x8C379A000000000000000000000000000000000000000000000000000000000 DUP2 MSTORE PUSH1 0x4 ADD PUSH2 0xEA2 SWAP1 PUSH2 0x1715 JUMP JUMPDEST PUSH1 0x40 MLOAD DUP1 SWAP2 SUB SWAP1 REVERT JUMPDEST DUP1 DUP1 PUSH2 0xEB6 SWAP1 PUSH2 0x18A4 JUMP JUMPDEST SWAP2 POP POP PUSH2 0xE07 JUMP JUMPDEST POP DUP3 DUP3 PUSH1 0x3 PUSH1 0x0 PUSH1 0x4 PUSH1 0x0 SWAP1 SLOAD SWAP1 PUSH2 0x100 EXP SWAP1 DIV PUSH1 0xFF AND PUSH1 0xFF AND PUSH1 0xFF AND DUP2 MSTORE PUSH1 0x20 ADD SWAP1 DUP2 MSTORE PUSH1 0x20 ADD PUSH1 0x0 KECCAK256 SWAP2 SWAP1 PUSH2 0xEF6 SWAP3 SWAP2 SWAP1 PUSH2 0x10E1 JUMP JUMPDEST POP PUSH1 0x4 PUSH1 0x0 DUP2 DUP2 SWAP1 SLOAD SWAP1 PUSH2 0x100 EXP SWAP1 DIV PUSH1 0xFF AND DUP1 SWAP3 SWAP2 SWAP1 PUSH2 0xF16 SWAP1 PUSH2 0x18A4 JUMP JUMPDEST SWAP2 SWAP1 PUSH2 0x100 EXP DUP2 SLOAD DUP2 PUSH1 0xFF MUL NOT AND SWAP1 DUP4 PUSH1 0xFF AND MUL OR SWAP1 SSTORE POP POP PUSH1 0x1 SWAP1 POP SWAP3 SWAP2 POP POP JUMP JUMPDEST PUSH1 0x0 DUP1 SLOAD SWAP1 PUSH2 0x100 EXP SWAP1 DIV PUSH20 0xFFFFFFFFFFFFFFFFFFFFFFFFFFFFFFFFFFFFFFFF AND PUSH20 0xFFFFFFFFFFFFFFFFFFFFFFFFFFFFFFFFFFFFFFFF AND CALLER PUSH20 0xFFFFFFFFFFFFFFFFFFFFFFFFFFFFFFFFFFFFFFFF AND EQ PUSH2 0xF91 JUMPI PUSH1 0x0 DUP1 REVERT JUMPDEST PUSH1 0x0 DUP1 SLOAD SWAP1 PUSH2 0x100 EXP SWAP1 DIV PUSH20 0xFFFFFFFFFFFFFFFFFFFFFFFFFFFFFFFFFFFFFFFF AND PUSH20 0xFFFFFFFFFFFFFFFFFFFFFFFFFFFFFFFFFFFFFFFF AND DUP2 PUSH20 0xFFFFFFFFFFFFFFFFFFFFFFFFFFFFFFFFFFFFFFFF AND EQ ISZERO PUSH2 0xFEA JUMPI PUSH1 0x0 DUP1 REVERT JUMPDEST PUSH1 0x0 PUSH20 0xFFFFFFFFFFFFFFFFFFFFFFFFFFFFFFFFFFFFFFFF AND DUP2 PUSH20 0xFFFFFFFFFFFFFFFFFFFFFFFFFFFFFFFFFFFFFFFF AND EQ ISZERO PUSH2 0x1024 JUMPI PUSH1 0x0 DUP1 REVERT JUMPDEST DUP1 PUSH1 0x0 DUP1 PUSH2 0x100 EXP DUP2 SLOAD DUP2 PUSH20 0xFFFFFFFFFFFFFFFFFFFFFFFFFFFFFFFFFFFFFFFF MUL NOT AND SWAP1 DUP4 PUSH20 0xFFFFFFFFFFFFFFFFFFFFFFFFFFFFFFFFFFFFFFFF AND MUL OR SWAP1 SSTORE POP DUP1 PUSH20 0xFFFFFFFFFFFFFFFFFFFFFFFFFFFFFFFFFFFFFFFF AND PUSH1 0x0 DUP1 SLOAD SWAP1 PUSH2 0x100 EXP SWAP1 DIV PUSH20 0xFFFFFFFFFFFFFFFFFFFFFFFFFFFFFFFFFFFFFFFF AND PUSH20 0xFFFFFFFFFFFFFFFFFFFFFFFFFFFFFFFFFFFFFFFF AND PUSH32 0x2AE143016ADC0AA482E6BA5D9A350F3E3122AEB005CA4BF47D1D7B8221BCE472 PUSH1 0x40 MLOAD PUSH1 0x40 MLOAD DUP1 SWAP2 SUB SWAP1 LOG3 POP JUMP JUMPDEST DUP3 DUP1 SLOAD PUSH2 0x10ED SWAP1 PUSH2 0x1872 JUMP JUMPDEST SWAP1 PUSH1 0x0 MSTORE PUSH1 0x20 PUSH1 0x0 KECCAK256 SWAP1 PUSH1 0x1F ADD PUSH1 0x20 SWAP1 DIV DUP2 ADD SWAP3 DUP3 PUSH2 0x110F JUMPI PUSH1 0x0 DUP6 SSTORE PUSH2 0x1156 JUMP JUMPDEST DUP3 PUSH1 0x1F LT PUSH2 0x1128 JUMPI DUP1 CALLDATALOAD PUSH1 0xFF NOT AND DUP4 DUP1 ADD OR DUP6 SSTORE PUSH2 0x1156 JUMP JUMPDEST DUP3 DUP1 ADD PUSH1 0x1 ADD DUP6 SSTORE DUP3 ISZERO PUSH2 0x1156 JUMPI SWAP2 DUP3 ADD JUMPDEST DUP3 DUP2 GT ISZERO PUSH2 0x1155 JUMPI DUP3 CALLDATALOAD DUP3 SSTORE SWAP2 PUSH1 0x20 ADD SWAP2 SWAP1 PUSH1 0x1 ADD SWAP1 PUSH2 0x113A JUMP JUMPDEST JUMPDEST POP SWAP1 POP PUSH2 0x1163 SWAP2 SWAP1 PUSH2 0x11A8 JUMP JUMPDEST POP SWAP1 JUMP JUMPDEST PUSH1 0x40 MLOAD DUP1 PUSH1 0x80 ADD PUSH1 0x40 MSTORE DUP1 PUSH1 0x0 PUSH20 0xFFFFFFFFFFFFFFFFFFFFFFFFFFFFFFFFFFFFFFFF AND DUP2 MSTORE PUSH1 0x20 ADD PUSH1 0x60 DUP2 MSTORE PUSH1 0x20 ADD PUSH1 0x0 PUSH1 0xFF AND DUP2 MSTORE PUSH1 0x20 ADD PUSH1 0x0 DUP2 MSTORE POP SWAP1 JUMP JUMPDEST JUMPDEST DUP1 DUP3 GT ISZERO PUSH2 0x11C1 JUMPI PUSH1 0x0 DUP2 PUSH1 0x0 SWAP1 SSTORE POP PUSH1 0x1 ADD PUSH2 0x11A9 JUMP JUMPDEST POP SWAP1 JUMP JUMPDEST PUSH1 0x0 DUP2 CALLDATALOAD SWAP1 POP PUSH2 0x11D4 DUP2 PUSH2 0x19FA JUMP JUMPDEST SWAP3 SWAP2 POP POP JUMP JUMPDEST PUSH1 0x0 DUP1 DUP4 PUSH1 0x1F DUP5 ADD SLT PUSH2 0x11F0 JUMPI PUSH2 0x11EF PUSH2 0x1931 JUMP JUMPDEST JUMPDEST DUP3 CALLDATALOAD SWAP1 POP PUSH8 0xFFFFFFFFFFFFFFFF DUP2 GT ISZERO PUSH2 0x120D JUMPI PUSH2 0x120C PUSH2 0x192C JUMP JUMPDEST JUMPDEST PUSH1 0x20 DUP4 ADD SWAP2 POP DUP4 PUSH1 0x1 DUP3 MUL DUP4 ADD GT ISZERO PUSH2 0x1229 JUMPI PUSH2 0x1228 PUSH2 0x1936 JUMP JUMPDEST JUMPDEST SWAP3 POP SWAP3 SWAP1 POP JUMP JUMPDEST PUSH1 0x0 DUP2 CALLDATALOAD SWAP1 POP PUSH2 0x123F DUP2 PUSH2 0x1A11 JUMP JUMPDEST SWAP3 SWAP2 POP POP JUMP JUMPDEST PUSH1 0x0 PUSH1 0x20 DUP3 DUP5 SUB SLT ISZERO PUSH2 0x125B JUMPI PUSH2 0x125A PUSH2 0x1940 JUMP JUMPDEST JUMPDEST PUSH1 0x0 PUSH2 0x1269 DUP5 DUP3 DUP6 ADD PUSH2 0x11C5 JUMP JUMPDEST SWAP2 POP POP SWAP3 SWAP2 POP POP JUMP JUMPDEST PUSH1 0x0 DUP1 PUSH1 0x40 DUP4 DUP6 SUB SLT ISZERO PUSH2 0x1289 JUMPI PUSH2 0x1288 PUSH2 0x1940 JUMP JUMPDEST JUMPDEST PUSH1 0x0 PUSH2 0x1297 DUP6 DUP3 DUP7 ADD PUSH2 0x11C5 JUMP JUMPDEST SWAP3 POP POP PUSH1 0x20 PUSH2 0x12A8 DUP6 DUP3 DUP7 ADD PUSH2 0x1230 JUMP JUMPDEST SWAP2 POP POP SWAP3 POP SWAP3 SWAP1 POP JUMP JUMPDEST PUSH1 0x0 DUP1 PUSH1 0x0 PUSH1 0x60 DUP5 DUP7 SUB SLT ISZERO PUSH2 0x12CB JUMPI PUSH2 0x12CA PUSH2 0x1940 JUMP JUMPDEST JUMPDEST PUSH1 0x0 PUSH2 0x12D9 DUP7 DUP3 DUP8 ADD PUSH2 0x11C5 JUMP JUMPDEST SWAP4 POP POP PUSH1 0x20 PUSH2 0x12EA DUP7 DUP3 DUP8 ADD PUSH2 0x1230 JUMP JUMPDEST SWAP3 POP POP PUSH1 0x40 PUSH2 0x12FB DUP7 DUP3 DUP8 ADD PUSH2 0x1230 JUMP JUMPDEST SWAP2 POP POP SWAP3 POP SWAP3 POP SWAP3 JUMP JUMPDEST PUSH1 0x0 DUP1 PUSH1 0x0 DUP1 PUSH1 0x0 PUSH1 0x80 DUP7 DUP9 SUB SLT ISZERO PUSH2 0x1321 JUMPI PUSH2 0x1320 PUSH2 0x1940 JUMP JUMPDEST JUMPDEST PUSH1 0x0 PUSH2 0x132F DUP9 DUP3 DUP10 ADD PUSH2 0x11C5 JUMP JUMPDEST SWAP6 POP POP PUSH1 0x20 PUSH2 0x1340 DUP9 DUP3 DUP10 ADD PUSH2 0x1230 JUMP JUMPDEST SWAP5 POP POP PUSH1 0x40 PUSH2 0x1351 DUP9 DUP3 DUP10 ADD PUSH2 0x1230 JUMP JUMPDEST SWAP4 POP POP PUSH1 0x60 DUP7 ADD CALLDATALOAD PUSH8 0xFFFFFFFFFFFFFFFF DUP2 GT ISZERO PUSH2 0x1372 JUMPI PUSH2 0x1371 PUSH2 0x193B JUMP JUMPDEST JUMPDEST PUSH2 0x137E DUP9 DUP3 DUP10 ADD PUSH2 0x11DA JUMP JUMPDEST SWAP3 POP SWAP3 POP POP SWAP3 SWAP6 POP SWAP3 SWAP6 SWAP1 SWAP4 POP JUMP JUMPDEST PUSH1 0x0 DUP1 PUSH1 0x20 DUP4 DUP6 SUB SLT ISZERO PUSH2 0x13A4 JUMPI PUSH2 0x13A3 PUSH2 0x1940 JUMP JUMPDEST JUMPDEST PUSH1 0x0 DUP4 ADD CALLDATALOAD PUSH8 0xFFFFFFFFFFFFFFFF DUP2 GT ISZERO PUSH2 0x13C2 JUMPI PUSH2 0x13C1 PUSH2 0x193B JUMP JUMPDEST JUMPDEST PUSH2 0x13CE DUP6 DUP3 DUP7 ADD PUSH2 0x11DA JUMP JUMPDEST SWAP3 POP SWAP3 POP POP SWAP3 POP SWAP3 SWAP1 POP JUMP JUMPDEST PUSH1 0x0 PUSH1 0x20 DUP3 DUP5 SUB SLT ISZERO PUSH2 0x13F0 JUMPI PUSH2 0x13EF PUSH2 0x1940 JUMP JUMPDEST JUMPDEST PUSH1 0x0 PUSH2 0x13FE DUP5 DUP3 DUP6 ADD PUSH2 0x1230 JUMP JUMPDEST SWAP2 POP POP SWAP3 SWAP2 POP POP JUMP JUMPDEST PUSH2 0x1410 DUP2 PUSH2 0x17DB JUMP JUMPDEST DUP3 MSTORE POP POP JUMP JUMPDEST PUSH2 0x141F DUP2 PUSH2 0x17ED JUMP JUMPDEST DUP3 MSTORE POP POP JUMP JUMPDEST PUSH1 0x0 PUSH2 0x1431 DUP4 DUP6 PUSH2 0x1777 JUMP JUMPDEST SWAP4 POP PUSH2 0x143E DUP4 DUP6 DUP5 PUSH2 0x1830 JUMP JUMPDEST DUP3 DUP5 ADD SWAP1 POP SWAP4 SWAP3 POP POP POP JUMP JUMPDEST PUSH1 0x0 DUP2 SLOAD PUSH2 0x1457 DUP2 PUSH2 0x1872 JUMP JUMPDEST PUSH2 0x1461 DUP2 DUP7 PUSH2 0x1777 JUMP JUMPDEST SWAP5 POP PUSH1 0x1 DUP3 AND PUSH1 0x0 DUP2 EQ PUSH2 0x147C JUMPI PUSH1 0x1 DUP2 EQ PUSH2 0x148D JUMPI PUSH2 0x14C0 JUMP JUMPDEST PUSH1 0xFF NOT DUP4 AND DUP7 MSTORE DUP2 DUP7 ADD SWAP4 POP PUSH2 0x14C0 JUMP JUMPDEST PUSH2 0x1496 DUP6 PUSH2 0x1757 JUMP JUMPDEST PUSH1 0x0 JUMPDEST DUP4 DUP2 LT ISZERO PUSH2 0x14B8 JUMPI DUP2 SLOAD DUP2 DUP10 ADD MSTORE PUSH1 0x1 DUP3 ADD SWAP2 POP PUSH1 0x20 DUP2 ADD SWAP1 POP PUSH2 0x1499 JUMP JUMPDEST DUP4 DUP9 ADD SWAP6 POP POP POP JUMPDEST POP POP POP SWAP3 SWAP2 POP POP JUMP JUMPDEST PUSH1 0x0 PUSH2 0x14D4 DUP3 PUSH2 0x176C JUMP JUMPDEST PUSH2 0x14DE DUP2 DUP6 PUSH2 0x1782 JUMP JUMPDEST SWAP4 POP PUSH2 0x14EE DUP2 DUP6 PUSH1 0x20 DUP7 ADD PUSH2 0x183F JUMP JUMPDEST PUSH2 0x14F7 DUP2 PUSH2 0x1945 JUMP JUMPDEST DUP5 ADD SWAP2 POP POP SWAP3 SWAP2 POP POP JUMP JUMPDEST PUSH1 0x0 PUSH2 0x150D DUP3 PUSH2 0x176C JUMP JUMPDEST PUSH2 0x1517 DUP2 DUP6 PUSH2 0x1793 JUMP JUMPDEST SWAP4 POP PUSH2 0x1527 DUP2 DUP6 PUSH1 0x20 DUP7 ADD PUSH2 0x183F JUMP JUMPDEST PUSH2 0x1530 DUP2 PUSH2 0x1945 JUMP JUMPDEST DUP5 ADD SWAP2 POP POP SWAP3 SWAP2 POP POP JUMP JUMPDEST PUSH1 0x0 PUSH2 0x1548 PUSH1 0x16 DUP4 PUSH2 0x1793 JUMP JUMPDEST SWAP2 POP PUSH2 0x1553 DUP3 PUSH2 0x1956 JUMP JUMPDEST PUSH1 0x20 DUP3 ADD SWAP1 POP SWAP2 SWAP1 POP JUMP JUMPDEST PUSH1 0x0 PUSH2 0x156B PUSH1 0xC DUP4 PUSH2 0x1793 JUMP JUMPDEST SWAP2 POP PUSH2 0x1576 DUP3 PUSH2 0x197F JUMP JUMPDEST PUSH1 0x20 DUP3 ADD SWAP1 POP SWAP2 SWAP1 POP JUMP JUMPDEST PUSH1 0x0 PUSH2 0x158E PUSH1 0x16 DUP4 PUSH2 0x1793 JUMP JUMPDEST SWAP2 POP PUSH2 0x1599 DUP3 PUSH2 0x19A8 JUMP JUMPDEST PUSH1 0x20 DUP3 ADD SWAP1 POP SWAP2 SWAP1 POP JUMP JUMPDEST PUSH1 0x0 PUSH2 0x15B1 PUSH1 0x14 DUP4 PUSH2 0x1793 JUMP JUMPDEST SWAP2 POP PUSH2 0x15BC DUP3 PUSH2 0x19D1 JUMP JUMPDEST PUSH1 0x20 DUP3 ADD SWAP1 POP SWAP2 SWAP1 POP JUMP JUMPDEST PUSH1 0x0 PUSH1 0x80 DUP4 ADD PUSH1 0x0 DUP4 ADD MLOAD PUSH2 0x15DF PUSH1 0x0 DUP7 ADD DUP3 PUSH2 0x1407 JUMP JUMPDEST POP PUSH1 0x20 DUP4 ADD MLOAD DUP5 DUP3 SUB PUSH1 0x20 DUP7 ADD MSTORE PUSH2 0x15F7 DUP3 DUP3 PUSH2 0x14C9 JUMP JUMPDEST SWAP2 POP POP PUSH1 0x40 DUP4 ADD MLOAD PUSH2 0x160C PUSH1 0x40 DUP7 ADD DUP3 PUSH2 0x1639 JUMP JUMPDEST POP PUSH1 0x60 DUP4 ADD MLOAD PUSH2 0x161F PUSH1 0x60 DUP7 ADD DUP3 PUSH2 0x162A JUMP JUMPDEST POP DUP1 SWAP2 POP POP SWAP3 SWAP2 POP POP JUMP JUMPDEST PUSH2 0x1633 DUP2 PUSH2 0x1819 JUMP JUMPDEST DUP3 MSTORE POP POP JUMP JUMPDEST PUSH2 0x1642 DUP2 PUSH2 0x1823 JUMP JUMPDEST DUP3 MSTORE POP POP JUMP JUMPDEST PUSH1 0x0 PUSH2 0x1655 DUP3 DUP5 DUP7 PUSH2 0x1425 JUMP JUMPDEST SWAP2 POP DUP2 SWAP1 POP SWAP4 SWAP3 POP POP POP JUMP JUMPDEST PUSH1 0x0 PUSH2 0x166D DUP3 DUP5 PUSH2 0x144A JUMP JUMPDEST SWAP2 POP DUP2 SWAP1 POP SWAP3 SWAP2 POP POP JUMP JUMPDEST PUSH1 0x0 PUSH1 0x20 DUP3 ADD SWAP1 POP PUSH2 0x168D PUSH1 0x0 DUP4 ADD DUP5 PUSH2 0x1416 JUMP JUMPDEST SWAP3 SWAP2 POP POP JUMP JUMPDEST PUSH1 0x0 PUSH1 0x20 DUP3 ADD SWAP1 POP DUP2 DUP2 SUB PUSH1 0x0 DUP4 ADD MSTORE PUSH2 0x16AD DUP2 DUP5 PUSH2 0x1502 JUMP JUMPDEST SWAP1 POP SWAP3 SWAP2 POP POP JUMP JUMPDEST PUSH1 0x0 PUSH1 0x20 DUP3 ADD SWAP1 POP DUP2 DUP2 SUB PUSH1 0x0 DUP4 ADD MSTORE PUSH2 0x16CE DUP2 PUSH2 0x153B JUMP JUMPDEST SWAP1 POP SWAP2 SWAP1 POP JUMP JUMPDEST PUSH1 0x0 PUSH1 0x20 DUP3 ADD SWAP1 POP DUP2 DUP2 SUB PUSH1 0x0 DUP4 ADD MSTORE PUSH2 0x16EE DUP2 PUSH2 0x155E JUMP JUMPDEST SWAP1 POP SWAP2 SWAP1 POP JUMP JUMPDEST PUSH1 0x0 PUSH1 0x20 DUP3 ADD SWAP1 POP DUP2 DUP2 SUB PUSH1 0x0 DUP4 ADD MSTORE PUSH2 0x170E DUP2 PUSH2 0x1581 JUMP JUMPDEST SWAP1 POP SWAP2 SWAP1 POP JUMP JUMPDEST PUSH1 0x0 PUSH1 0x20 DUP3 ADD SWAP1 POP DUP2 DUP2 SUB PUSH1 0x0 DUP4 ADD MSTORE PUSH2 0x172E DUP2 PUSH2 0x15A4 JUMP JUMPDEST SWAP1 POP SWAP2 SWAP1 POP JUMP JUMPDEST PUSH1 0x0 PUSH1 0x20 DUP3 ADD SWAP1 POP DUP2 DUP2 SUB PUSH1 0x0 DUP4 ADD MSTORE PUSH2 0x174F DUP2 DUP5 PUSH2 0x15C7 JUMP JUMPDEST SWAP1 POP SWAP3 SWAP2 POP POP JUMP JUMPDEST PUSH1 0x0 DUP2 SWAP1 POP DUP2 PUSH1 0x0 MSTORE PUSH1 0x20 PUSH1 0x0 KECCAK256 SWAP1 POP SWAP2 SWAP1 POP JUMP JUMPDEST PUSH1 0x0 DUP2 MLOAD SWAP1 POP SWAP2 SWAP1 POP JUMP JUMPDEST PUSH1 0x0 DUP2 SWAP1 POP SWAP3 SWAP2 POP POP JUMP JUMPDEST PUSH1 0x0 DUP3 DUP3 MSTORE PUSH1 0x20 DUP3 ADD SWAP1 POP SWAP3 SWAP2 POP POP JUMP JUMPDEST PUSH1 0x0 DUP3 DUP3 MSTORE PUSH1 0x20 DUP3 ADD SWAP1 POP SWAP3 SWAP2 POP POP JUMP JUMPDEST PUSH1 0x0 PUSH2 0x17AF DUP3 PUSH2 0x1823 JUMP JUMPDEST SWAP2 POP PUSH2 0x17BA DUP4 PUSH2 0x1823 JUMP JUMPDEST SWAP3 POP DUP3 PUSH1 0xFF SUB DUP3 GT ISZERO PUSH2 0x17D0 JUMPI PUSH2 0x17CF PUSH2 0x18CE JUMP JUMPDEST JUMPDEST DUP3 DUP3 ADD SWAP1 POP SWAP3 SWAP2 POP POP JUMP JUMPDEST PUSH1 0x0 PUSH2 0x17E6 DUP3 PUSH2 0x17F9 JUMP JUMPDEST SWAP1 POP SWAP2 SWAP1 POP JUMP JUMPDEST PUSH1 0x0 DUP2 ISZERO ISZERO SWAP1 POP SWAP2 SWAP1 POP JUMP JUMPDEST PUSH1 0x0 PUSH20 0xFFFFFFFFFFFFFFFFFFFFFFFFFFFFFFFFFFFFFFFF DUP3 AND SWAP1 POP SWAP2 SWAP1 POP JUMP JUMPDEST PUSH1 0x0 DUP2 SWAP1 POP SWAP2 SWAP1 POP JUMP JUMPDEST PUSH1 0x0 PUSH1 0xFF DUP3 AND SWAP1 POP SWAP2 SWAP1 POP JUMP JUMPDEST DUP3 DUP2 DUP4 CALLDATACOPY PUSH1 0x0 DUP4 DUP4 ADD MSTORE POP POP POP JUMP JUMPDEST PUSH1 0x0 JUMPDEST DUP4 DUP2 LT ISZERO PUSH2 0x185D JUMPI DUP1 DUP3 ADD MLOAD DUP2 DUP5 ADD MSTORE PUSH1 0x20 DUP2 ADD SWAP1 POP PUSH2 0x1842 JUMP JUMPDEST DUP4 DUP2 GT ISZERO PUSH2 0x186C JUMPI PUSH1 0x0 DUP5 DUP5 ADD MSTORE JUMPDEST POP POP POP POP JUMP JUMPDEST PUSH1 0x0 PUSH1 0x2 DUP3 DIV SWAP1 POP PUSH1 0x1 DUP3 AND DUP1 PUSH2 0x188A JUMPI PUSH1 0x7F DUP3 AND SWAP2 POP JUMPDEST PUSH1 0x20 DUP3 LT DUP2 EQ ISZERO PUSH2 0x189E JUMPI PUSH2 0x189D PUSH2 0x18FD JUMP JUMPDEST JUMPDEST POP SWAP2 SWAP1 POP JUMP JUMPDEST PUSH1 0x0 PUSH2 0x18AF DUP3 PUSH2 0x1823 JUMP JUMPDEST SWAP2 POP PUSH1 0xFF DUP3 EQ ISZERO PUSH2 0x18C3 JUMPI PUSH2 0x18C2 PUSH2 0x18CE JUMP JUMPDEST JUMPDEST PUSH1 0x1 DUP3 ADD SWAP1 POP SWAP2 SWAP1 POP JUMP JUMPDEST PUSH32 0x4E487B7100000000000000000000000000000000000000000000000000000000 PUSH1 0x0 MSTORE PUSH1 0x11 PUSH1 0x4 MSTORE PUSH1 0x24 PUSH1 0x0 REVERT JUMPDEST PUSH32 0x4E487B7100000000000000000000000000000000000000000000000000000000 PUSH1 0x0 MSTORE PUSH1 0x22 PUSH1 0x4 MSTORE PUSH1 0x24 PUSH1 0x0 REVERT JUMPDEST PUSH1 0x0 DUP1 REVERT JUMPDEST PUSH1 0x0 DUP1 REVERT JUMPDEST PUSH1 0x0 DUP1 REVERT JUMPDEST PUSH1 0x0 DUP1 REVERT JUMPDEST PUSH1 0x0 DUP1 REVERT JUMPDEST PUSH1 0x0 PUSH1 0x1F NOT PUSH1 0x1F DUP4 ADD AND SWAP1 POP SWAP2 SWAP1 POP JUMP JUMPDEST PUSH32 0x6E6F7420636C61696D65642063726564656E7469616C00000000000000000000 PUSH1 0x0 DUP3 ADD MSTORE POP JUMP JUMPDEST PUSH32 0x696E7661696C6420747970650000000000000000000000000000000000000000 PUSH1 0x0 DUP3 ADD MSTORE POP JUMP JUMPDEST PUSH32 0x696E7661696C64207661636369656E206E756D62657200000000000000000000 PUSH1 0x0 DUP3 ADD MSTORE POP JUMP JUMPDEST PUSH32 0x657869737465642076616363696E652074797065000000000000000000000000 PUSH1 0x0 DUP3 ADD MSTORE POP JUMP JUMPDEST PUSH2 0x1A03 DUP2 PUSH2 0x17DB JUMP JUMPDEST DUP2 EQ PUSH2 0x1A0E JUMPI PUSH1 0x0 DUP1 REVERT JUMPDEST POP JUMP JUMPDEST PUSH2 0x1A1A DUP2 PUSH2 0x1823 JUMP JUMPDEST DUP2 EQ PUSH2 0x1A25 JUMPI PUSH1 0x0 DUP1 REVERT JUMPDEST POP JUMP INVALID LOG2 PUSH5 0x6970667358 0x22 SLT KECCAK256 NOT SWAP11 0x4A 0xEB SWAP13 SMOD 0xF6 0xA5 LOG4 ADD CALLCODE 0x24 SIGNEXTEND PUSH7 0x30C88AC5DC351B 0xDC 0xBB DIV 0x28 0xB0 RETURN 0xB0 0xE1 PUSH11 0x9DD564736F6C6343000807 STOP CALLER "
				},
				"gasEstimates": {
					"creation": {
						"codeDepositCost": "1350000",
						"executionCost": "infinite",
						"totalCost": "infinite"
					},
					"external": {
						"addIssuer(address)": "30607",
						"addVaccineType(string)": "infinite",
						"claimCredential(address,uint8,uint8,string)": "infinite",
						"delIssuer(address)": "30629",
						"getCredential(address,uint8)": "infinite",
						"getVaccineType(uint8)": "infinite",
						"isIssuer(address)": "2905",
						"issuers(address)": "2912",
						"transferOwnership(address)": "32864",
						"updateVaccinationState(address,uint8,uint8)": "infinite"
					}
				},
				"methodIdentifiers": {
					"addIssuer(address)": "20694db0",
					"addVaccineType(string)": "d1658546",
					"claimCredential(address,uint8,uint8,string)": "36145996",
					"delIssuer(address)": "34becfb4",
					"getCredential(address,uint8)": "959d0258",
					"getVaccineType(uint8)": "3f8a37dc",
					"isIssuer(address)": "877b9a67",
					"issuers(address)": "38a7543e",
					"transferOwnership(address)": "f2fde38b",
					"updateVaccinationState(address,uint8,uint8)": "45695248"
				}
			},
			"storageLayout": {
				"storage": [
					{
						"astId": 3,
						"contract": "contracts/ha4-vaccine.sol:CredentialBox",
						"label": "owner",
						"offset": 0,
						"slot": "0",
						"type": "t_address"
					},
					{
						"astId": 68,
						"contract": "contracts/ha4-vaccine.sol:CredentialBox",
						"label": "issuers",
						"offset": 0,
						"slot": "1",
						"type": "t_mapping(t_address,t_bool)"
					},
					{
						"astId": 177,
						"contract": "contracts/ha4-vaccine.sol:CredentialBox",
						"label": "idCount",
						"offset": 0,
						"slot": "2",
						"type": "t_uint8"
					},
					{
						"astId": 181,
						"contract": "contracts/ha4-vaccine.sol:CredentialBox",
						"label": "vaccineEnum",
						"offset": 0,
						"slot": "3",
						"type": "t_mapping(t_uint8,t_string_storage)"
					},
					{
						"astId": 183,
						"contract": "contracts/ha4-vaccine.sol:CredentialBox",
						"label": "vaccineLen",
						"offset": 0,
						"slot": "4",
						"type": "t_uint8"
					},
					{
						"astId": 216,
						"contract": "contracts/ha4-vaccine.sol:CredentialBox",
						"label": "credentials",
						"offset": 0,
						"slot": "5",
						"type": "t_mapping(t_address,t_struct(Credential)202_storage)"
					}
				],
				"types": {
					"t_address": {
						"encoding": "inplace",
						"label": "address",
						"numberOfBytes": "20"
					},
					"t_bool": {
						"encoding": "inplace",
						"label": "bool",
						"numberOfBytes": "1"
					},
					"t_mapping(t_address,t_bool)": {
						"encoding": "mapping",
						"key": "t_address",
						"label": "mapping(address => bool)",
						"numberOfBytes": "32",
						"value": "t_bool"
					},
					"t_mapping(t_address,t_struct(Credential)202_storage)": {
						"encoding": "mapping",
						"key": "t_address",
						"label": "mapping(address => struct CredentialBox.Credential)",
						"numberOfBytes": "32",
						"value": "t_struct(Credential)202_storage"
					},
					"t_mapping(t_uint8,t_address)": {
						"encoding": "mapping",
						"key": "t_uint8",
						"label": "mapping(uint8 => address)",
						"numberOfBytes": "32",
						"value": "t_address"
					},
					"t_mapping(t_uint8,t_string_storage)": {
						"encoding": "mapping",
						"key": "t_uint8",
						"label": "mapping(uint8 => string)",
						"numberOfBytes": "32",
						"value": "t_string_storage"
					},
					"t_mapping(t_uint8,t_uint256)": {
						"encoding": "mapping",
						"key": "t_uint8",
						"label": "mapping(uint8 => uint256)",
						"numberOfBytes": "32",
						"value": "t_uint256"
					},
					"t_mapping(t_uint8,t_uint8)": {
						"encoding": "mapping",
						"key": "t_uint8",
						"label": "mapping(uint8 => uint8)",
						"numberOfBytes": "32",
						"value": "t_uint8"
					},
					"t_string_storage": {
						"encoding": "bytes",
						"label": "string",
						"numberOfBytes": "32"
					},
					"t_struct(Credential)202_storage": {
						"encoding": "inplace",
						"label": "struct CredentialBox.Credential",
						"members": [
							{
								"astId": 185,
								"contract": "contracts/ha4-vaccine.sol:CredentialBox",
								"label": "id",
								"offset": 0,
								"slot": "0",
								"type": "t_uint256"
							},
							{
								"astId": 187,
								"contract": "contracts/ha4-vaccine.sol:CredentialBox",
								"label": "value",
								"offset": 0,
								"slot": "1",
								"type": "t_string_storage"
							},
							{
								"astId": 191,
								"contract": "contracts/ha4-vaccine.sol:CredentialBox",
								"label": "vaccineIssuers",
								"offset": 0,
								"slot": "2",
								"type": "t_mapping(t_uint8,t_address)"
							},
							{
								"astId": 195,
								"contract": "contracts/ha4-vaccine.sol:CredentialBox",
								"label": "vaccineType",
								"offset": 0,
								"slot": "3",
								"type": "t_mapping(t_uint8,t_uint8)"
							},
							{
								"astId": 199,
								"contract": "contracts/ha4-vaccine.sol:CredentialBox",
								"label": "vaccineInfo",
								"offset": 0,
								"slot": "4",
								"type": "t_mapping(t_uint8,t_uint256)"
							},
							{
								"astId": 201,
								"contract": "contracts/ha4-vaccine.sol:CredentialBox",
								"label": "lastestVaccineNum",
								"offset": 0,
								"slot": "5",
								"type": "t_uint8"
							}
						],
						"numberOfBytes": "192"
					},
					"t_uint256": {
						"encoding": "inplace",
						"label": "uint256",
						"numberOfBytes": "32"
					},
					"t_uint8": {
						"encoding": "inplace",
						"label": "uint8",
						"numberOfBytes": "1"
					}
				}
			},
			"userdoc": {
				"kind": "user",
				"methods": {},
				"version": 1
			}
		}
	}
}